{"abi":[{"inputs":[{"internalType":"string","name":"about","type":"string"}],"name":"createPoll","outputs":[],"stateMutability":"nonpayable","type":"function"},{"inputs":[{"internalType":"uint256","name":"","type":"uint256"}],"name":"deployedPoll","outputs":[{"internalType":"address payable","name":"","type":"address"}],"stateMutability":"view","type":"function"},{"inputs":[],"name":"getDeployedPolls","outputs":[{"internalType":"address payable[]","name":"","type":"address[]"}],"stateMutability":"view","type":"function"}],"devdoc":{"kind":"dev","methods":{},"version":1},"evm":{"assembly":"    /* \"Voting.sol\":61:436  contract pollFactory{... */\n  mstore(0x40, 0x80)\n  callvalue\n  dup1\n  iszero\n  tag_1\n  jumpi\n  0x00\n  dup1\n  revert\ntag_1:\n  pop\n  dataSize(sub_0)\n  dup1\n  dataOffset(sub_0)\n  0x00\n  codecopy\n  0x00\n  return\nstop\n\nsub_0: assembly {\n        /* \"Voting.sol\":61:436  contract pollFactory{... */\n      mstore(0x40, 0x80)\n      callvalue\n      dup1\n      iszero\n      tag_1\n      jumpi\n      0x00\n      dup1\n      revert\n    tag_1:\n      pop\n      jumpi(tag_2, lt(calldatasize, 0x04))\n      shr(0xe0, calldataload(0x00))\n      dup1\n      0x336bec97\n      eq\n      tag_3\n      jumpi\n      dup1\n      0x74a9ced9\n      eq\n      tag_4\n      jumpi\n      dup1\n      0x98460be7\n      eq\n      tag_5\n      jumpi\n    tag_2:\n      0x00\n      dup1\n      revert\n        /* \"Voting.sol\":88:125  address payable[] public deployedPoll */\n    tag_3:\n      tag_6\n      0x04\n      dup1\n      calldatasize\n      sub\n      dup2\n      add\n      swap1\n      tag_7\n      swap2\n      swap1\n      tag_8\n      jump\t// in\n    tag_7:\n      tag_9\n      jump\t// in\n    tag_6:\n      mload(0x40)\n      tag_10\n      swap2\n      swap1\n      tag_11\n      jump\t// in\n    tag_10:\n      mload(0x40)\n      dup1\n      swap2\n      sub\n      swap1\n      return\n        /* \"Voting.sol\":134:314  function createPoll(string memory about) public {... */\n    tag_4:\n      tag_12\n      0x04\n      dup1\n      calldatasize\n      sub\n      dup2\n      add\n      swap1\n      tag_13\n      swap2\n      swap1\n      tag_14\n      jump\t// in\n    tag_13:\n      tag_15\n      jump\t// in\n    tag_12:\n      stop\n        /* \"Voting.sol\":322:433  function getDeployedPolls() public view returns(address payable[] memory){... */\n    tag_5:\n      tag_16\n      tag_17\n      jump\t// in\n    tag_16:\n      mload(0x40)\n      tag_18\n      swap2\n      swap1\n      tag_19\n      jump\t// in\n    tag_18:\n      mload(0x40)\n      dup1\n      swap2\n      sub\n      swap1\n      return\n        /* \"Voting.sol\":88:125  address payable[] public deployedPoll */\n    tag_9:\n      0x00\n      dup2\n      dup2\n      sload\n      dup2\n      lt\n      tag_20\n      jumpi\n      0x00\n      dup1\n      revert\n    tag_20:\n      swap1\n      0x00\n      mstore\n      keccak256(0x00, 0x20)\n      add\n      0x00\n      swap2\n      pop\n      sload\n      swap1\n      0x0100\n      exp\n      swap1\n      div\n      0xffffffffffffffffffffffffffffffffffffffff\n      and\n      dup2\n      jump\t// out\n        /* \"Voting.sol\":134:314  function createPoll(string memory about) public {... */\n    tag_15:\n        /* \"Voting.sol\":193:208  address newPoll */\n      0x00\n        /* \"Voting.sol\":239:244  about */\n      dup2\n        /* \"Voting.sol\":246:256  msg.sender */\n      caller\n        /* \"Voting.sol\":220:257  new VotingCampaign(about, msg.sender) */\n      mload(0x40)\n      tag_23\n      swap1\n      tag_24\n      jump\t// in\n    tag_23:\n      tag_25\n      swap3\n      swap2\n      swap1\n      tag_26\n      jump\t// in\n    tag_25:\n      mload(0x40)\n      dup1\n      swap2\n      sub\n      swap1\n      0x00\n      create\n      dup1\n      iszero\n      dup1\n      iszero\n      tag_27\n      jumpi\n      returndatasize\n      0x00\n      dup1\n      returndatacopy\n      revert(0x00, returndatasize)\n    tag_27:\n      pop\n        /* \"Voting.sol\":193:258  address newPoll = address( new VotingCampaign(about, msg.sender)) */\n      swap1\n      pop\n        /* \"Voting.sol\":271:283  deployedPoll */\n      0x00\n        /* \"Voting.sol\":297:304  newPoll */\n      dup2\n        /* \"Voting.sol\":271:306  deployedPoll.push(payable(newPoll)) */\n      swap1\n      dup1\n      0x01\n      dup2\n      sload\n      add\n      dup1\n      dup3\n      sstore\n      dup1\n      swap2\n      pop\n      pop\n      0x01\n      swap1\n      sub\n      swap1\n      0x00\n      mstore\n      keccak256(0x00, 0x20)\n      add\n      0x00\n      swap1\n      swap2\n      swap1\n      swap2\n      swap1\n      swap2\n      0x0100\n      exp\n      dup2\n      sload\n      dup2\n      0xffffffffffffffffffffffffffffffffffffffff\n      mul\n      not\n      and\n      swap1\n      dup4\n      0xffffffffffffffffffffffffffffffffffffffff\n      and\n      mul\n      or\n      swap1\n      sstore\n      pop\n        /* \"Voting.sol\":182:314  {... */\n      pop\n        /* \"Voting.sol\":134:314  function createPoll(string memory about) public {... */\n      pop\n      jump\t// out\n        /* \"Voting.sol\":322:433  function getDeployedPolls() public view returns(address payable[] memory){... */\n    tag_17:\n        /* \"Voting.sol\":370:394  address payable[] memory */\n      0x60\n        /* \"Voting.sol\":413:425  deployedPoll */\n      0x00\n        /* \"Voting.sol\":406:425  return deployedPoll */\n      dup1\n      sload\n      dup1\n      0x20\n      mul\n      0x20\n      add\n      mload(0x40)\n      swap1\n      dup2\n      add\n      0x40\n      mstore\n      dup1\n      swap3\n      swap2\n      swap1\n      dup2\n      dup2\n      mstore\n      0x20\n      add\n      dup3\n      dup1\n      sload\n      dup1\n      iszero\n      tag_30\n      jumpi\n      0x20\n      mul\n      dup3\n      add\n      swap2\n      swap1\n      0x00\n      mstore\n      keccak256(0x00, 0x20)\n      swap1\n    tag_31:\n      dup2\n      0x00\n      swap1\n      sload\n      swap1\n      0x0100\n      exp\n      swap1\n      div\n      0xffffffffffffffffffffffffffffffffffffffff\n      and\n      0xffffffffffffffffffffffffffffffffffffffff\n      and\n      dup2\n      mstore\n      0x20\n      add\n      swap1\n      0x01\n      add\n      swap1\n      dup1\n      dup4\n      gt\n      tag_31\n      jumpi\n    tag_30:\n      pop\n      pop\n      pop\n      pop\n      pop\n      swap1\n      pop\n        /* \"Voting.sol\":322:433  function getDeployedPolls() public view returns(address payable[] memory){... */\n      swap1\n      jump\t// out\n    tag_24:\n      dataSize(sub_0)\n      dup1\n      dataOffset(sub_0)\n      dup4\n      codecopy\n      add\n      swap1\n      jump\t// out\n        /* \"#utility.yul\":7:82   */\n    tag_32:\n        /* \"#utility.yul\":40:46   */\n      0x00\n        /* \"#utility.yul\":73:75   */\n      0x40\n        /* \"#utility.yul\":67:76   */\n      mload\n        /* \"#utility.yul\":57:76   */\n      swap1\n      pop\n        /* \"#utility.yul\":7:82   */\n      swap1\n      jump\t// out\n        /* \"#utility.yul\":88:205   */\n    tag_33:\n        /* \"#utility.yul\":197:198   */\n      0x00\n        /* \"#utility.yul\":194:195   */\n      dup1\n        /* \"#utility.yul\":187:199   */\n      revert\n        /* \"#utility.yul\":211:328   */\n    tag_34:\n        /* \"#utility.yul\":320:321   */\n      0x00\n        /* \"#utility.yul\":317:318   */\n      dup1\n        /* \"#utility.yul\":310:322   */\n      revert\n        /* \"#utility.yul\":334:411   */\n    tag_35:\n        /* \"#utility.yul\":371:378   */\n      0x00\n        /* \"#utility.yul\":400:405   */\n      dup2\n        /* \"#utility.yul\":389:405   */\n      swap1\n      pop\n        /* \"#utility.yul\":334:411   */\n      swap2\n      swap1\n      pop\n      jump\t// out\n        /* \"#utility.yul\":417:539   */\n    tag_36:\n        /* \"#utility.yul\":490:514   */\n      tag_70\n        /* \"#utility.yul\":508:513   */\n      dup2\n        /* \"#utility.yul\":490:514   */\n      tag_35\n      jump\t// in\n    tag_70:\n        /* \"#utility.yul\":483:488   */\n      dup2\n        /* \"#utility.yul\":480:515   */\n      eq\n        /* \"#utility.yul\":470:533   */\n      tag_71\n      jumpi\n        /* \"#utility.yul\":529:530   */\n      0x00\n        /* \"#utility.yul\":526:527   */\n      dup1\n        /* \"#utility.yul\":519:531   */\n      revert\n        /* \"#utility.yul\":470:533   */\n    tag_71:\n        /* \"#utility.yul\":417:539   */\n      pop\n      jump\t// out\n        /* \"#utility.yul\":545:684   */\n    tag_37:\n        /* \"#utility.yul\":591:596   */\n      0x00\n        /* \"#utility.yul\":629:635   */\n      dup2\n        /* \"#utility.yul\":616:636   */\n      calldataload\n        /* \"#utility.yul\":607:636   */\n      swap1\n      pop\n        /* \"#utility.yul\":645:678   */\n      tag_73\n        /* \"#utility.yul\":672:677   */\n      dup2\n        /* \"#utility.yul\":645:678   */\n      tag_36\n      jump\t// in\n    tag_73:\n        /* \"#utility.yul\":545:684   */\n      swap3\n      swap2\n      pop\n      pop\n      jump\t// out\n        /* \"#utility.yul\":690:1019   */\n    tag_8:\n        /* \"#utility.yul\":749:755   */\n      0x00\n        /* \"#utility.yul\":798:800   */\n      0x20\n        /* \"#utility.yul\":786:795   */\n      dup3\n        /* \"#utility.yul\":777:784   */\n      dup5\n        /* \"#utility.yul\":773:796   */\n      sub\n        /* \"#utility.yul\":769:801   */\n      slt\n        /* \"#utility.yul\":766:885   */\n      iszero\n      tag_75\n      jumpi\n        /* \"#utility.yul\":804:883   */\n      tag_76\n      tag_33\n      jump\t// in\n    tag_76:\n        /* \"#utility.yul\":766:885   */\n    tag_75:\n        /* \"#utility.yul\":924:925   */\n      0x00\n        /* \"#utility.yul\":949:1002   */\n      tag_77\n        /* \"#utility.yul\":994:1001   */\n      dup5\n        /* \"#utility.yul\":985:991   */\n      dup3\n        /* \"#utility.yul\":974:983   */\n      dup6\n        /* \"#utility.yul\":970:992   */\n      add\n        /* \"#utility.yul\":949:1002   */\n      tag_37\n      jump\t// in\n    tag_77:\n        /* \"#utility.yul\":939:1002   */\n      swap2\n      pop\n        /* \"#utility.yul\":895:1012   */\n      pop\n        /* \"#utility.yul\":690:1019   */\n      swap3\n      swap2\n      pop\n      pop\n      jump\t// out\n        /* \"#utility.yul\":1025:1151   */\n    tag_38:\n        /* \"#utility.yul\":1062:1069   */\n      0x00\n        /* \"#utility.yul\":1102:1144   */\n      0xffffffffffffffffffffffffffffffffffffffff\n        /* \"#utility.yul\":1095:1100   */\n      dup3\n        /* \"#utility.yul\":1091:1145   */\n      and\n        /* \"#utility.yul\":1080:1145   */\n      swap1\n      pop\n        /* \"#utility.yul\":1025:1151   */\n      swap2\n      swap1\n      pop\n      jump\t// out\n        /* \"#utility.yul\":1157:1261   */\n    tag_39:\n        /* \"#utility.yul\":1202:1209   */\n      0x00\n        /* \"#utility.yul\":1231:1255   */\n      tag_80\n        /* \"#utility.yul\":1249:1254   */\n      dup3\n        /* \"#utility.yul\":1231:1255   */\n      tag_38\n      jump\t// in\n    tag_80:\n        /* \"#utility.yul\":1220:1255   */\n      swap1\n      pop\n        /* \"#utility.yul\":1157:1261   */\n      swap2\n      swap1\n      pop\n      jump\t// out\n        /* \"#utility.yul\":1267:1409   */\n    tag_40:\n        /* \"#utility.yul\":1370:1402   */\n      tag_82\n        /* \"#utility.yul\":1396:1401   */\n      dup2\n        /* \"#utility.yul\":1370:1402   */\n      tag_39\n      jump\t// in\n    tag_82:\n        /* \"#utility.yul\":1365:1368   */\n      dup3\n        /* \"#utility.yul\":1358:1403   */\n      mstore\n        /* \"#utility.yul\":1267:1409   */\n      pop\n      pop\n      jump\t// out\n        /* \"#utility.yul\":1415:1669   */\n    tag_11:\n        /* \"#utility.yul\":1524:1528   */\n      0x00\n        /* \"#utility.yul\":1562:1564   */\n      0x20\n        /* \"#utility.yul\":1551:1560   */\n      dup3\n        /* \"#utility.yul\":1547:1565   */\n      add\n        /* \"#utility.yul\":1539:1565   */\n      swap1\n      pop\n        /* \"#utility.yul\":1575:1662   */\n      tag_84\n        /* \"#utility.yul\":1659:1660   */\n      0x00\n        /* \"#utility.yul\":1648:1657   */\n      dup4\n        /* \"#utility.yul\":1644:1661   */\n      add\n        /* \"#utility.yul\":1635:1641   */\n      dup5\n        /* \"#utility.yul\":1575:1662   */\n      tag_40\n      jump\t// in\n    tag_84:\n        /* \"#utility.yul\":1415:1669   */\n      swap3\n      swap2\n      pop\n      pop\n      jump\t// out\n        /* \"#utility.yul\":1675:1792   */\n    tag_41:\n        /* \"#utility.yul\":1784:1785   */\n      0x00\n        /* \"#utility.yul\":1781:1782   */\n      dup1\n        /* \"#utility.yul\":1774:1786   */\n      revert\n        /* \"#utility.yul\":1798:1915   */\n    tag_42:\n        /* \"#utility.yul\":1907:1908   */\n      0x00\n        /* \"#utility.yul\":1904:1905   */\n      dup1\n        /* \"#utility.yul\":1897:1909   */\n      revert\n        /* \"#utility.yul\":1921:2023   */\n    tag_43:\n        /* \"#utility.yul\":1962:1968   */\n      0x00\n        /* \"#utility.yul\":2013:2015   */\n      0x1f\n        /* \"#utility.yul\":2009:2016   */\n      not\n        /* \"#utility.yul\":2004:2006   */\n      0x1f\n        /* \"#utility.yul\":1997:2002   */\n      dup4\n        /* \"#utility.yul\":1993:2007   */\n      add\n        /* \"#utility.yul\":1989:2017   */\n      and\n        /* \"#utility.yul\":1979:2017   */\n      swap1\n      pop\n        /* \"#utility.yul\":1921:2023   */\n      swap2\n      swap1\n      pop\n      jump\t// out\n        /* \"#utility.yul\":2029:2209   */\n    tag_44:\n        /* \"#utility.yul\":2077:2154   */\n      0x4e487b7100000000000000000000000000000000000000000000000000000000\n        /* \"#utility.yul\":2074:2075   */\n      0x00\n        /* \"#utility.yul\":2067:2155   */\n      mstore\n        /* \"#utility.yul\":2174:2178   */\n      0x41\n        /* \"#utility.yul\":2171:2172   */\n      0x04\n        /* \"#utility.yul\":2164:2179   */\n      mstore\n        /* \"#utility.yul\":2198:2202   */\n      0x24\n        /* \"#utility.yul\":2195:2196   */\n      0x00\n        /* \"#utility.yul\":2188:2203   */\n      revert\n        /* \"#utility.yul\":2215:2496   */\n    tag_45:\n        /* \"#utility.yul\":2298:2325   */\n      tag_90\n        /* \"#utility.yul\":2320:2324   */\n      dup3\n        /* \"#utility.yul\":2298:2325   */\n      tag_43\n      jump\t// in\n    tag_90:\n        /* \"#utility.yul\":2290:2296   */\n      dup2\n        /* \"#utility.yul\":2286:2326   */\n      add\n        /* \"#utility.yul\":2428:2434   */\n      dup2\n        /* \"#utility.yul\":2416:2426   */\n      dup2\n        /* \"#utility.yul\":2413:2435   */\n      lt\n        /* \"#utility.yul\":2392:2410   */\n      0xffffffffffffffff\n        /* \"#utility.yul\":2380:2390   */\n      dup3\n        /* \"#utility.yul\":2377:2411   */\n      gt\n        /* \"#utility.yul\":2374:2436   */\n      or\n        /* \"#utility.yul\":2371:2459   */\n      iszero\n      tag_91\n      jumpi\n        /* \"#utility.yul\":2439:2457   */\n      tag_92\n      tag_44\n      jump\t// in\n    tag_92:\n        /* \"#utility.yul\":2371:2459   */\n    tag_91:\n        /* \"#utility.yul\":2479:2489   */\n      dup1\n        /* \"#utility.yul\":2475:2477   */\n      0x40\n        /* \"#utility.yul\":2468:2490   */\n      mstore\n        /* \"#utility.yul\":2258:2496   */\n      pop\n        /* \"#utility.yul\":2215:2496   */\n      pop\n      pop\n      jump\t// out\n        /* \"#utility.yul\":2502:2631   */\n    tag_46:\n        /* \"#utility.yul\":2536:2542   */\n      0x00\n        /* \"#utility.yul\":2563:2583   */\n      tag_94\n      tag_32\n      jump\t// in\n    tag_94:\n        /* \"#utility.yul\":2553:2583   */\n      swap1\n      pop\n        /* \"#utility.yul\":2592:2625   */\n      tag_95\n        /* \"#utility.yul\":2620:2624   */\n      dup3\n        /* \"#utility.yul\":2612:2618   */\n      dup3\n        /* \"#utility.yul\":2592:2625   */\n      tag_45\n      jump\t// in\n    tag_95:\n        /* \"#utility.yul\":2502:2631   */\n      swap2\n      swap1\n      pop\n      jump\t// out\n        /* \"#utility.yul\":2637:2945   */\n    tag_47:\n        /* \"#utility.yul\":2699:2703   */\n      0x00\n        /* \"#utility.yul\":2789:2807   */\n      0xffffffffffffffff\n        /* \"#utility.yul\":2781:2787   */\n      dup3\n        /* \"#utility.yul\":2778:2808   */\n      gt\n        /* \"#utility.yul\":2775:2831   */\n      iszero\n      tag_97\n      jumpi\n        /* \"#utility.yul\":2811:2829   */\n      tag_98\n      tag_44\n      jump\t// in\n    tag_98:\n        /* \"#utility.yul\":2775:2831   */\n    tag_97:\n        /* \"#utility.yul\":2849:2878   */\n      tag_99\n        /* \"#utility.yul\":2871:2877   */\n      dup3\n        /* \"#utility.yul\":2849:2878   */\n      tag_43\n      jump\t// in\n    tag_99:\n        /* \"#utility.yul\":2841:2878   */\n      swap1\n      pop\n        /* \"#utility.yul\":2933:2937   */\n      0x20\n        /* \"#utility.yul\":2927:2931   */\n      dup2\n        /* \"#utility.yul\":2923:2938   */\n      add\n        /* \"#utility.yul\":2915:2938   */\n      swap1\n      pop\n        /* \"#utility.yul\":2637:2945   */\n      swap2\n      swap1\n      pop\n      jump\t// out\n        /* \"#utility.yul\":2951:3097   */\n    tag_48:\n        /* \"#utility.yul\":3048:3054   */\n      dup3\n        /* \"#utility.yul\":3043:3046   */\n      dup2\n        /* \"#utility.yul\":3038:3041   */\n      dup4\n        /* \"#utility.yul\":3025:3055   */\n      calldatacopy\n        /* \"#utility.yul\":3089:3090   */\n      0x00\n        /* \"#utility.yul\":3080:3086   */\n      dup4\n        /* \"#utility.yul\":3075:3078   */\n      dup4\n        /* \"#utility.yul\":3071:3087   */\n      add\n        /* \"#utility.yul\":3064:3091   */\n      mstore\n        /* \"#utility.yul\":2951:3097   */\n      pop\n      pop\n      pop\n      jump\t// out\n        /* \"#utility.yul\":3103:3528   */\n    tag_49:\n        /* \"#utility.yul\":3181:3186   */\n      0x00\n        /* \"#utility.yul\":3206:3272   */\n      tag_102\n        /* \"#utility.yul\":3222:3271   */\n      tag_103\n        /* \"#utility.yul\":3264:3270   */\n      dup5\n        /* \"#utility.yul\":3222:3271   */\n      tag_47\n      jump\t// in\n    tag_103:\n        /* \"#utility.yul\":3206:3272   */\n      tag_46\n      jump\t// in\n    tag_102:\n        /* \"#utility.yul\":3197:3272   */\n      swap1\n      pop\n        /* \"#utility.yul\":3295:3301   */\n      dup3\n        /* \"#utility.yul\":3288:3293   */\n      dup2\n        /* \"#utility.yul\":3281:3302   */\n      mstore\n        /* \"#utility.yul\":3333:3337   */\n      0x20\n        /* \"#utility.yul\":3326:3331   */\n      dup2\n        /* \"#utility.yul\":3322:3338   */\n      add\n        /* \"#utility.yul\":3371:3374   */\n      dup5\n        /* \"#utility.yul\":3362:3368   */\n      dup5\n        /* \"#utility.yul\":3357:3360   */\n      dup5\n        /* \"#utility.yul\":3353:3369   */\n      add\n        /* \"#utility.yul\":3350:3375   */\n      gt\n        /* \"#utility.yul\":3347:3459   */\n      iszero\n      tag_104\n      jumpi\n        /* \"#utility.yul\":3378:3457   */\n      tag_105\n      tag_42\n      jump\t// in\n    tag_105:\n        /* \"#utility.yul\":3347:3459   */\n    tag_104:\n        /* \"#utility.yul\":3468:3522   */\n      tag_106\n        /* \"#utility.yul\":3515:3521   */\n      dup5\n        /* \"#utility.yul\":3510:3513   */\n      dup3\n        /* \"#utility.yul\":3505:3508   */\n      dup6\n        /* \"#utility.yul\":3468:3522   */\n      tag_48\n      jump\t// in\n    tag_106:\n        /* \"#utility.yul\":3187:3528   */\n      pop\n        /* \"#utility.yul\":3103:3528   */\n      swap4\n      swap3\n      pop\n      pop\n      pop\n      jump\t// out\n        /* \"#utility.yul\":3548:3888   */\n    tag_50:\n        /* \"#utility.yul\":3604:3609   */\n      0x00\n        /* \"#utility.yul\":3653:3656   */\n      dup3\n        /* \"#utility.yul\":3646:3650   */\n      0x1f\n        /* \"#utility.yul\":3638:3644   */\n      dup4\n        /* \"#utility.yul\":3634:3651   */\n      add\n        /* \"#utility.yul\":3630:3657   */\n      slt\n        /* \"#utility.yul\":3620:3742   */\n      tag_108\n      jumpi\n        /* \"#utility.yul\":3661:3740   */\n      tag_109\n      tag_41\n      jump\t// in\n    tag_109:\n        /* \"#utility.yul\":3620:3742   */\n    tag_108:\n        /* \"#utility.yul\":3778:3784   */\n      dup2\n        /* \"#utility.yul\":3765:3785   */\n      calldataload\n        /* \"#utility.yul\":3803:3882   */\n      tag_110\n        /* \"#utility.yul\":3878:3881   */\n      dup5\n        /* \"#utility.yul\":3870:3876   */\n      dup3\n        /* \"#utility.yul\":3863:3867   */\n      0x20\n        /* \"#utility.yul\":3855:3861   */\n      dup7\n        /* \"#utility.yul\":3851:3868   */\n      add\n        /* \"#utility.yul\":3803:3882   */\n      tag_49\n      jump\t// in\n    tag_110:\n        /* \"#utility.yul\":3794:3882   */\n      swap2\n      pop\n        /* \"#utility.yul\":3610:3888   */\n      pop\n        /* \"#utility.yul\":3548:3888   */\n      swap3\n      swap2\n      pop\n      pop\n      jump\t// out\n        /* \"#utility.yul\":3894:4403   */\n    tag_14:\n        /* \"#utility.yul\":3963:3969   */\n      0x00\n        /* \"#utility.yul\":4012:4014   */\n      0x20\n        /* \"#utility.yul\":4000:4009   */\n      dup3\n        /* \"#utility.yul\":3991:3998   */\n      dup5\n        /* \"#utility.yul\":3987:4010   */\n      sub\n        /* \"#utility.yul\":3983:4015   */\n      slt\n        /* \"#utility.yul\":3980:4099   */\n      iszero\n      tag_112\n      jumpi\n        /* \"#utility.yul\":4018:4097   */\n      tag_113\n      tag_33\n      jump\t// in\n    tag_113:\n        /* \"#utility.yul\":3980:4099   */\n    tag_112:\n        /* \"#utility.yul\":4166:4167   */\n      0x00\n        /* \"#utility.yul\":4155:4164   */\n      dup3\n        /* \"#utility.yul\":4151:4168   */\n      add\n        /* \"#utility.yul\":4138:4169   */\n      calldataload\n        /* \"#utility.yul\":4196:4214   */\n      0xffffffffffffffff\n        /* \"#utility.yul\":4188:4194   */\n      dup2\n        /* \"#utility.yul\":4185:4215   */\n      gt\n        /* \"#utility.yul\":4182:4299   */\n      iszero\n      tag_114\n      jumpi\n        /* \"#utility.yul\":4218:4297   */\n      tag_115\n      tag_34\n      jump\t// in\n    tag_115:\n        /* \"#utility.yul\":4182:4299   */\n    tag_114:\n        /* \"#utility.yul\":4323:4386   */\n      tag_116\n        /* \"#utility.yul\":4378:4385   */\n      dup5\n        /* \"#utility.yul\":4369:4375   */\n      dup3\n        /* \"#utility.yul\":4358:4367   */\n      dup6\n        /* \"#utility.yul\":4354:4376   */\n      add\n        /* \"#utility.yul\":4323:4386   */\n      tag_50\n      jump\t// in\n    tag_116:\n        /* \"#utility.yul\":4313:4386   */\n      swap2\n      pop\n        /* \"#utility.yul\":4109:4396   */\n      pop\n        /* \"#utility.yul\":3894:4403   */\n      swap3\n      swap2\n      pop\n      pop\n      jump\t// out\n        /* \"#utility.yul\":4409:4531   */\n    tag_51:\n        /* \"#utility.yul\":4484:4490   */\n      0x00\n        /* \"#utility.yul\":4518:4523   */\n      dup2\n        /* \"#utility.yul\":4512:4524   */\n      mload\n        /* \"#utility.yul\":4502:4524   */\n      swap1\n      pop\n        /* \"#utility.yul\":4409:4531   */\n      swap2\n      swap1\n      pop\n      jump\t// out\n        /* \"#utility.yul\":4537:4729   */\n    tag_52:\n        /* \"#utility.yul\":4644:4655   */\n      0x00\n        /* \"#utility.yul\":4678:4684   */\n      dup3\n        /* \"#utility.yul\":4673:4676   */\n      dup3\n        /* \"#utility.yul\":4666:4685   */\n      mstore\n        /* \"#utility.yul\":4718:4722   */\n      0x20\n        /* \"#utility.yul\":4713:4716   */\n      dup3\n        /* \"#utility.yul\":4709:4723   */\n      add\n        /* \"#utility.yul\":4694:4723   */\n      swap1\n      pop\n        /* \"#utility.yul\":4537:4729   */\n      swap3\n      swap2\n      pop\n      pop\n      jump\t// out\n        /* \"#utility.yul\":4735:4875   */\n    tag_53:\n        /* \"#utility.yul\":4810:4814   */\n      0x00\n        /* \"#utility.yul\":4833:4836   */\n      dup2\n        /* \"#utility.yul\":4825:4836   */\n      swap1\n      pop\n        /* \"#utility.yul\":4863:4867   */\n      0x20\n        /* \"#utility.yul\":4858:4861   */\n      dup3\n        /* \"#utility.yul\":4854:4868   */\n      add\n        /* \"#utility.yul\":4846:4868   */\n      swap1\n      pop\n        /* \"#utility.yul\":4735:4875   */\n      swap2\n      swap1\n      pop\n      jump\t// out\n        /* \"#utility.yul\":4881:5013   */\n    tag_54:\n        /* \"#utility.yul\":4974:5006   */\n      tag_121\n        /* \"#utility.yul\":5000:5005   */\n      dup2\n        /* \"#utility.yul\":4974:5006   */\n      tag_39\n      jump\t// in\n    tag_121:\n        /* \"#utility.yul\":4969:4972   */\n      dup3\n        /* \"#utility.yul\":4962:5007   */\n      mstore\n        /* \"#utility.yul\":4881:5013   */\n      pop\n      pop\n      jump\t// out\n        /* \"#utility.yul\":5019:5230   */\n    tag_55:\n        /* \"#utility.yul\":5104:5114   */\n      0x00\n        /* \"#utility.yul\":5125:5187   */\n      tag_123\n        /* \"#utility.yul\":5183:5186   */\n      dup4\n        /* \"#utility.yul\":5175:5181   */\n      dup4\n        /* \"#utility.yul\":5125:5187   */\n      tag_54\n      jump\t// in\n    tag_123:\n        /* \"#utility.yul\":5219:5223   */\n      0x20\n        /* \"#utility.yul\":5214:5217   */\n      dup4\n        /* \"#utility.yul\":5210:5224   */\n      add\n        /* \"#utility.yul\":5196:5224   */\n      swap1\n      pop\n        /* \"#utility.yul\":5019:5230   */\n      swap3\n      swap2\n      pop\n      pop\n      jump\t// out\n        /* \"#utility.yul\":5236:5357   */\n    tag_56:\n        /* \"#utility.yul\":5314:5318   */\n      0x00\n        /* \"#utility.yul\":5346:5350   */\n      0x20\n        /* \"#utility.yul\":5341:5344   */\n      dup3\n        /* \"#utility.yul\":5337:5351   */\n      add\n        /* \"#utility.yul\":5329:5351   */\n      swap1\n      pop\n        /* \"#utility.yul\":5236:5357   */\n      swap2\n      swap1\n      pop\n      jump\t// out\n        /* \"#utility.yul\":5409:6205   */\n    tag_57:\n        /* \"#utility.yul\":5544:5547   */\n      0x00\n        /* \"#utility.yul\":5573:5635   */\n      tag_126\n        /* \"#utility.yul\":5629:5634   */\n      dup3\n        /* \"#utility.yul\":5573:5635   */\n      tag_51\n      jump\t// in\n    tag_126:\n        /* \"#utility.yul\":5651:5745   */\n      tag_127\n        /* \"#utility.yul\":5738:5744   */\n      dup2\n        /* \"#utility.yul\":5733:5736   */\n      dup6\n        /* \"#utility.yul\":5651:5745   */\n      tag_52\n      jump\t// in\n    tag_127:\n        /* \"#utility.yul\":5644:5745   */\n      swap4\n      pop\n        /* \"#utility.yul\":5769:5833   */\n      tag_128\n        /* \"#utility.yul\":5827:5832   */\n      dup4\n        /* \"#utility.yul\":5769:5833   */\n      tag_53\n      jump\t// in\n    tag_128:\n        /* \"#utility.yul\":5856:5863   */\n      dup1\n        /* \"#utility.yul\":5887:5888   */\n      0x00\n        /* \"#utility.yul\":5872:6180   */\n    tag_129:\n        /* \"#utility.yul\":5897:5903   */\n      dup4\n        /* \"#utility.yul\":5894:5895   */\n      dup2\n        /* \"#utility.yul\":5891:5904   */\n      lt\n        /* \"#utility.yul\":5872:6180   */\n      iszero\n      tag_131\n      jumpi\n        /* \"#utility.yul\":5973:5979   */\n      dup2\n        /* \"#utility.yul\":5967:5980   */\n      mload\n        /* \"#utility.yul\":6000:6079   */\n      tag_132\n        /* \"#utility.yul\":6075:6078   */\n      dup9\n        /* \"#utility.yul\":6060:6073   */\n      dup3\n        /* \"#utility.yul\":6000:6079   */\n      tag_55\n      jump\t// in\n    tag_132:\n        /* \"#utility.yul\":5993:6079   */\n      swap8\n      pop\n        /* \"#utility.yul\":6102:6170   */\n      tag_133\n        /* \"#utility.yul\":6163:6169   */\n      dup4\n        /* \"#utility.yul\":6102:6170   */\n      tag_56\n      jump\t// in\n    tag_133:\n        /* \"#utility.yul\":6092:6170   */\n      swap3\n      pop\n        /* \"#utility.yul\":5932:6180   */\n      pop\n        /* \"#utility.yul\":5919:5920   */\n      0x01\n        /* \"#utility.yul\":5916:5917   */\n      dup2\n        /* \"#utility.yul\":5912:5921   */\n      add\n        /* \"#utility.yul\":5907:5921   */\n      swap1\n      pop\n        /* \"#utility.yul\":5872:6180   */\n      jump(tag_129)\n    tag_131:\n        /* \"#utility.yul\":5876:5890   */\n      pop\n        /* \"#utility.yul\":6196:6199   */\n      dup6\n        /* \"#utility.yul\":6189:6199   */\n      swap4\n      pop\n        /* \"#utility.yul\":5549:6205   */\n      pop\n      pop\n      pop\n        /* \"#utility.yul\":5409:6205   */\n      swap3\n      swap2\n      pop\n      pop\n      jump\t// out\n        /* \"#utility.yul\":6211:6616   */\n    tag_19:\n        /* \"#utility.yul\":6370:6374   */\n      0x00\n        /* \"#utility.yul\":6408:6410   */\n      0x20\n        /* \"#utility.yul\":6397:6406   */\n      dup3\n        /* \"#utility.yul\":6393:6411   */\n      add\n        /* \"#utility.yul\":6385:6411   */\n      swap1\n      pop\n        /* \"#utility.yul\":6457:6466   */\n      dup2\n        /* \"#utility.yul\":6451:6455   */\n      dup2\n        /* \"#utility.yul\":6447:6467   */\n      sub\n        /* \"#utility.yul\":6443:6444   */\n      0x00\n        /* \"#utility.yul\":6432:6441   */\n      dup4\n        /* \"#utility.yul\":6428:6445   */\n      add\n        /* \"#utility.yul\":6421:6468   */\n      mstore\n        /* \"#utility.yul\":6485:6609   */\n      tag_135\n        /* \"#utility.yul\":6604:6608   */\n      dup2\n        /* \"#utility.yul\":6595:6601   */\n      dup5\n        /* \"#utility.yul\":6485:6609   */\n      tag_57\n      jump\t// in\n    tag_135:\n        /* \"#utility.yul\":6477:6609   */\n      swap1\n      pop\n        /* \"#utility.yul\":6211:6616   */\n      swap3\n      swap2\n      pop\n      pop\n      jump\t// out\n        /* \"#utility.yul\":6622:6721   */\n    tag_58:\n        /* \"#utility.yul\":6674:6680   */\n      0x00\n        /* \"#utility.yul\":6708:6713   */\n      dup2\n        /* \"#utility.yul\":6702:6714   */\n      mload\n        /* \"#utility.yul\":6692:6714   */\n      swap1\n      pop\n        /* \"#utility.yul\":6622:6721   */\n      swap2\n      swap1\n      pop\n      jump\t// out\n        /* \"#utility.yul\":6727:6896   */\n    tag_59:\n        /* \"#utility.yul\":6811:6822   */\n      0x00\n        /* \"#utility.yul\":6845:6851   */\n      dup3\n        /* \"#utility.yul\":6840:6843   */\n      dup3\n        /* \"#utility.yul\":6833:6852   */\n      mstore\n        /* \"#utility.yul\":6885:6889   */\n      0x20\n        /* \"#utility.yul\":6880:6883   */\n      dup3\n        /* \"#utility.yul\":6876:6890   */\n      add\n        /* \"#utility.yul\":6861:6890   */\n      swap1\n      pop\n        /* \"#utility.yul\":6727:6896   */\n      swap3\n      swap2\n      pop\n      pop\n      jump\t// out\n        /* \"#utility.yul\":6902:7148   */\n    tag_60:\n        /* \"#utility.yul\":6983:6984   */\n      0x00\n        /* \"#utility.yul\":6993:7106   */\n    tag_139:\n        /* \"#utility.yul\":7007:7013   */\n      dup4\n        /* \"#utility.yul\":7004:7005   */\n      dup2\n        /* \"#utility.yul\":7001:7014   */\n      lt\n        /* \"#utility.yul\":6993:7106   */\n      iszero\n      tag_141\n      jumpi\n        /* \"#utility.yul\":7092:7093   */\n      dup1\n        /* \"#utility.yul\":7087:7090   */\n      dup3\n        /* \"#utility.yul\":7083:7094   */\n      add\n        /* \"#utility.yul\":7077:7095   */\n      mload\n        /* \"#utility.yul\":7073:7074   */\n      dup2\n        /* \"#utility.yul\":7068:7071   */\n      dup5\n        /* \"#utility.yul\":7064:7075   */\n      add\n        /* \"#utility.yul\":7057:7096   */\n      mstore\n        /* \"#utility.yul\":7029:7031   */\n      0x20\n        /* \"#utility.yul\":7026:7027   */\n      dup2\n        /* \"#utility.yul\":7022:7032   */\n      add\n        /* \"#utility.yul\":7017:7032   */\n      swap1\n      pop\n        /* \"#utility.yul\":6993:7106   */\n      jump(tag_139)\n    tag_141:\n        /* \"#utility.yul\":7140:7141   */\n      0x00\n        /* \"#utility.yul\":7131:7137   */\n      dup5\n        /* \"#utility.yul\":7126:7129   */\n      dup5\n        /* \"#utility.yul\":7122:7138   */\n      add\n        /* \"#utility.yul\":7115:7142   */\n      mstore\n        /* \"#utility.yul\":6964:7148   */\n      pop\n        /* \"#utility.yul\":6902:7148   */\n      pop\n      pop\n      pop\n      jump\t// out\n        /* \"#utility.yul\":7154:7531   */\n    tag_61:\n        /* \"#utility.yul\":7242:7245   */\n      0x00\n        /* \"#utility.yul\":7270:7309   */\n      tag_143\n        /* \"#utility.yul\":7303:7308   */\n      dup3\n        /* \"#utility.yul\":7270:7309   */\n      tag_58\n      jump\t// in\n    tag_143:\n        /* \"#utility.yul\":7325:7396   */\n      tag_144\n        /* \"#utility.yul\":7389:7395   */\n      dup2\n        /* \"#utility.yul\":7384:7387   */\n      dup6\n        /* \"#utility.yul\":7325:7396   */\n      tag_59\n      jump\t// in\n    tag_144:\n        /* \"#utility.yul\":7318:7396   */\n      swap4\n      pop\n        /* \"#utility.yul\":7405:7470   */\n      tag_145\n        /* \"#utility.yul\":7463:7469   */\n      dup2\n        /* \"#utility.yul\":7458:7461   */\n      dup6\n        /* \"#utility.yul\":7451:7455   */\n      0x20\n        /* \"#utility.yul\":7444:7449   */\n      dup7\n        /* \"#utility.yul\":7440:7456   */\n      add\n        /* \"#utility.yul\":7405:7470   */\n      tag_60\n      jump\t// in\n    tag_145:\n        /* \"#utility.yul\":7495:7524   */\n      tag_146\n        /* \"#utility.yul\":7517:7523   */\n      dup2\n        /* \"#utility.yul\":7495:7524   */\n      tag_43\n      jump\t// in\n    tag_146:\n        /* \"#utility.yul\":7490:7493   */\n      dup5\n        /* \"#utility.yul\":7486:7525   */\n      add\n        /* \"#utility.yul\":7479:7525   */\n      swap2\n      pop\n        /* \"#utility.yul\":7246:7531   */\n      pop\n        /* \"#utility.yul\":7154:7531   */\n      swap3\n      swap2\n      pop\n      pop\n      jump\t// out\n        /* \"#utility.yul\":7537:7633   */\n    tag_62:\n        /* \"#utility.yul\":7574:7581   */\n      0x00\n        /* \"#utility.yul\":7603:7627   */\n      tag_148\n        /* \"#utility.yul\":7621:7626   */\n      dup3\n        /* \"#utility.yul\":7603:7627   */\n      tag_38\n      jump\t// in\n    tag_148:\n        /* \"#utility.yul\":7592:7627   */\n      swap1\n      pop\n        /* \"#utility.yul\":7537:7633   */\n      swap2\n      swap1\n      pop\n      jump\t// out\n        /* \"#utility.yul\":7639:7757   */\n    tag_63:\n        /* \"#utility.yul\":7726:7750   */\n      tag_150\n        /* \"#utility.yul\":7744:7749   */\n      dup2\n        /* \"#utility.yul\":7726:7750   */\n      tag_62\n      jump\t// in\n    tag_150:\n        /* \"#utility.yul\":7721:7724   */\n      dup3\n        /* \"#utility.yul\":7714:7751   */\n      mstore\n        /* \"#utility.yul\":7639:7757   */\n      pop\n      pop\n      jump\t// out\n        /* \"#utility.yul\":7763:8186   */\n    tag_26:\n        /* \"#utility.yul\":7904:7908   */\n      0x00\n        /* \"#utility.yul\":7942:7944   */\n      0x40\n        /* \"#utility.yul\":7931:7940   */\n      dup3\n        /* \"#utility.yul\":7927:7945   */\n      add\n        /* \"#utility.yul\":7919:7945   */\n      swap1\n      pop\n        /* \"#utility.yul\":7991:8000   */\n      dup2\n        /* \"#utility.yul\":7985:7989   */\n      dup2\n        /* \"#utility.yul\":7981:8001   */\n      sub\n        /* \"#utility.yul\":7977:7978   */\n      0x00\n        /* \"#utility.yul\":7966:7975   */\n      dup4\n        /* \"#utility.yul\":7962:7979   */\n      add\n        /* \"#utility.yul\":7955:8002   */\n      mstore\n        /* \"#utility.yul\":8019:8097   */\n      tag_152\n        /* \"#utility.yul\":8092:8096   */\n      dup2\n        /* \"#utility.yul\":8083:8089   */\n      dup6\n        /* \"#utility.yul\":8019:8097   */\n      tag_61\n      jump\t// in\n    tag_152:\n        /* \"#utility.yul\":8011:8097   */\n      swap1\n      pop\n        /* \"#utility.yul\":8107:8179   */\n      tag_153\n        /* \"#utility.yul\":8175:8177   */\n      0x20\n        /* \"#utility.yul\":8164:8173   */\n      dup4\n        /* \"#utility.yul\":8160:8178   */\n      add\n        /* \"#utility.yul\":8151:8157   */\n      dup5\n        /* \"#utility.yul\":8107:8179   */\n      tag_63\n      jump\t// in\n    tag_153:\n        /* \"#utility.yul\":7763:8186   */\n      swap4\n      swap3\n      pop\n      pop\n      pop\n      jump\t// out\n    stop\n\n    sub_0: assembly {\n            /* \"Voting.sol\":446:1967  contract VotingCampaign{... */\n          mstore(0x40, 0x80)\n            /* \"Voting.sol\":803:912  constructor(string memory about, address creator) {... */\n          callvalue\n          dup1\n          iszero\n          tag_1\n          jumpi\n          0x00\n          dup1\n          revert\n        tag_1:\n          pop\n          mload(0x40)\n          sub(codesize, bytecodeSize)\n          dup1\n          bytecodeSize\n          dup4\n          codecopy\n          dup2\n          dup2\n          add\n          0x40\n          mstore\n          dup2\n          add\n          swap1\n          tag_2\n          swap2\n          swap1\n          tag_3\n          jump\t// in\n        tag_2:\n            /* \"Voting.sol\":871:876  about */\n          dup2\n            /* \"Voting.sol\":864:868  moto */\n          0x01\n            /* \"Voting.sol\":864:876  moto = about */\n          swap1\n          dup2\n          tag_6\n          swap2\n          swap1\n          tag_7\n          jump\t// in\n        tag_6:\n          pop\n            /* \"Voting.sol\":897:904  creator */\n          dup1\n            /* \"Voting.sol\":887:894  manager */\n          0x00\n          dup1\n            /* \"Voting.sol\":887:904  manager = creator */\n          0x0100\n          exp\n          dup2\n          sload\n          dup2\n          0xffffffffffffffffffffffffffffffffffffffff\n          mul\n          not\n          and\n          swap1\n          dup4\n          0xffffffffffffffffffffffffffffffffffffffff\n          and\n          mul\n          or\n          swap1\n          sstore\n          pop\n            /* \"Voting.sol\":803:912  constructor(string memory about, address creator) {... */\n          pop\n          pop\n            /* \"Voting.sol\":446:1967  contract VotingCampaign{... */\n          jump(tag_8)\n            /* \"#utility.yul\":7:82   */\n        tag_9:\n            /* \"#utility.yul\":40:46   */\n          0x00\n            /* \"#utility.yul\":73:75   */\n          0x40\n            /* \"#utility.yul\":67:76   */\n          mload\n            /* \"#utility.yul\":57:76   */\n          swap1\n          pop\n            /* \"#utility.yul\":7:82   */\n          swap1\n          jump\t// out\n            /* \"#utility.yul\":88:205   */\n        tag_10:\n            /* \"#utility.yul\":197:198   */\n          0x00\n            /* \"#utility.yul\":194:195   */\n          dup1\n            /* \"#utility.yul\":187:199   */\n          revert\n            /* \"#utility.yul\":211:328   */\n        tag_11:\n            /* \"#utility.yul\":320:321   */\n          0x00\n            /* \"#utility.yul\":317:318   */\n          dup1\n            /* \"#utility.yul\":310:322   */\n          revert\n            /* \"#utility.yul\":334:451   */\n        tag_12:\n            /* \"#utility.yul\":443:444   */\n          0x00\n            /* \"#utility.yul\":440:441   */\n          dup1\n            /* \"#utility.yul\":433:445   */\n          revert\n            /* \"#utility.yul\":457:574   */\n        tag_13:\n            /* \"#utility.yul\":566:567   */\n          0x00\n            /* \"#utility.yul\":563:564   */\n          dup1\n            /* \"#utility.yul\":556:568   */\n          revert\n            /* \"#utility.yul\":580:682   */\n        tag_14:\n            /* \"#utility.yul\":621:627   */\n          0x00\n            /* \"#utility.yul\":672:674   */\n          0x1f\n            /* \"#utility.yul\":668:675   */\n          not\n            /* \"#utility.yul\":663:665   */\n          0x1f\n            /* \"#utility.yul\":656:661   */\n          dup4\n            /* \"#utility.yul\":652:666   */\n          add\n            /* \"#utility.yul\":648:676   */\n          and\n            /* \"#utility.yul\":638:676   */\n          swap1\n          pop\n            /* \"#utility.yul\":580:682   */\n          swap2\n          swap1\n          pop\n          jump\t// out\n            /* \"#utility.yul\":688:868   */\n        tag_15:\n            /* \"#utility.yul\":736:813   */\n          0x4e487b7100000000000000000000000000000000000000000000000000000000\n            /* \"#utility.yul\":733:734   */\n          0x00\n            /* \"#utility.yul\":726:814   */\n          mstore\n            /* \"#utility.yul\":833:837   */\n          0x41\n            /* \"#utility.yul\":830:831   */\n          0x04\n            /* \"#utility.yul\":823:838   */\n          mstore\n            /* \"#utility.yul\":857:861   */\n          0x24\n            /* \"#utility.yul\":854:855   */\n          0x00\n            /* \"#utility.yul\":847:862   */\n          revert\n            /* \"#utility.yul\":874:1155   */\n        tag_16:\n            /* \"#utility.yul\":957:984   */\n          tag_54\n            /* \"#utility.yul\":979:983   */\n          dup3\n            /* \"#utility.yul\":957:984   */\n          tag_14\n          jump\t// in\n        tag_54:\n            /* \"#utility.yul\":949:955   */\n          dup2\n            /* \"#utility.yul\":945:985   */\n          add\n            /* \"#utility.yul\":1087:1093   */\n          dup2\n            /* \"#utility.yul\":1075:1085   */\n          dup2\n            /* \"#utility.yul\":1072:1094   */\n          lt\n            /* \"#utility.yul\":1051:1069   */\n          0xffffffffffffffff\n            /* \"#utility.yul\":1039:1049   */\n          dup3\n            /* \"#utility.yul\":1036:1070   */\n          gt\n            /* \"#utility.yul\":1033:1095   */\n          or\n            /* \"#utility.yul\":1030:1118   */\n          iszero\n          tag_55\n          jumpi\n            /* \"#utility.yul\":1098:1116   */\n          tag_56\n          tag_15\n          jump\t// in\n        tag_56:\n            /* \"#utility.yul\":1030:1118   */\n        tag_55:\n            /* \"#utility.yul\":1138:1148   */\n          dup1\n            /* \"#utility.yul\":1134:1136   */\n          0x40\n            /* \"#utility.yul\":1127:1149   */\n          mstore\n            /* \"#utility.yul\":917:1155   */\n          pop\n            /* \"#utility.yul\":874:1155   */\n          pop\n          pop\n          jump\t// out\n            /* \"#utility.yul\":1161:1290   */\n        tag_17:\n            /* \"#utility.yul\":1195:1201   */\n          0x00\n            /* \"#utility.yul\":1222:1242   */\n          tag_58\n          tag_9\n          jump\t// in\n        tag_58:\n            /* \"#utility.yul\":1212:1242   */\n          swap1\n          pop\n            /* \"#utility.yul\":1251:1284   */\n          tag_59\n            /* \"#utility.yul\":1279:1283   */\n          dup3\n            /* \"#utility.yul\":1271:1277   */\n          dup3\n            /* \"#utility.yul\":1251:1284   */\n          tag_16\n          jump\t// in\n        tag_59:\n            /* \"#utility.yul\":1161:1290   */\n          swap2\n          swap1\n          pop\n          jump\t// out\n            /* \"#utility.yul\":1296:1604   */\n        tag_18:\n            /* \"#utility.yul\":1358:1362   */\n          0x00\n            /* \"#utility.yul\":1448:1466   */\n          0xffffffffffffffff\n            /* \"#utility.yul\":1440:1446   */\n          dup3\n            /* \"#utility.yul\":1437:1467   */\n          gt\n            /* \"#utility.yul\":1434:1490   */\n          iszero\n          tag_61\n          jumpi\n            /* \"#utility.yul\":1470:1488   */\n          tag_62\n          tag_15\n          jump\t// in\n        tag_62:\n            /* \"#utility.yul\":1434:1490   */\n        tag_61:\n            /* \"#utility.yul\":1508:1537   */\n          tag_63\n            /* \"#utility.yul\":1530:1536   */\n          dup3\n            /* \"#utility.yul\":1508:1537   */\n          tag_14\n          jump\t// in\n        tag_63:\n            /* \"#utility.yul\":1500:1537   */\n          swap1\n          pop\n            /* \"#utility.yul\":1592:1596   */\n          0x20\n            /* \"#utility.yul\":1586:1590   */\n          dup2\n            /* \"#utility.yul\":1582:1597   */\n          add\n            /* \"#utility.yul\":1574:1597   */\n          swap1\n          pop\n            /* \"#utility.yul\":1296:1604   */\n          swap2\n          swap1\n          pop\n          jump\t// out\n            /* \"#utility.yul\":1610:1856   */\n        tag_19:\n            /* \"#utility.yul\":1691:1692   */\n          0x00\n            /* \"#utility.yul\":1701:1814   */\n        tag_65:\n            /* \"#utility.yul\":1715:1721   */\n          dup4\n            /* \"#utility.yul\":1712:1713   */\n          dup2\n            /* \"#utility.yul\":1709:1722   */\n          lt\n            /* \"#utility.yul\":1701:1814   */\n          iszero\n          tag_67\n          jumpi\n            /* \"#utility.yul\":1800:1801   */\n          dup1\n            /* \"#utility.yul\":1795:1798   */\n          dup3\n            /* \"#utility.yul\":1791:1802   */\n          add\n            /* \"#utility.yul\":1785:1803   */\n          mload\n            /* \"#utility.yul\":1781:1782   */\n          dup2\n            /* \"#utility.yul\":1776:1779   */\n          dup5\n            /* \"#utility.yul\":1772:1783   */\n          add\n            /* \"#utility.yul\":1765:1804   */\n          mstore\n            /* \"#utility.yul\":1737:1739   */\n          0x20\n            /* \"#utility.yul\":1734:1735   */\n          dup2\n            /* \"#utility.yul\":1730:1740   */\n          add\n            /* \"#utility.yul\":1725:1740   */\n          swap1\n          pop\n            /* \"#utility.yul\":1701:1814   */\n          jump(tag_65)\n        tag_67:\n            /* \"#utility.yul\":1848:1849   */\n          0x00\n            /* \"#utility.yul\":1839:1845   */\n          dup5\n            /* \"#utility.yul\":1834:1837   */\n          dup5\n            /* \"#utility.yul\":1830:1846   */\n          add\n            /* \"#utility.yul\":1823:1850   */\n          mstore\n            /* \"#utility.yul\":1672:1856   */\n          pop\n            /* \"#utility.yul\":1610:1856   */\n          pop\n          pop\n          pop\n          jump\t// out\n            /* \"#utility.yul\":1862:2296   */\n        tag_20:\n            /* \"#utility.yul\":1951:1956   */\n          0x00\n            /* \"#utility.yul\":1976:2042   */\n          tag_69\n            /* \"#utility.yul\":1992:2041   */\n          tag_70\n            /* \"#utility.yul\":2034:2040   */\n          dup5\n            /* \"#utility.yul\":1992:2041   */\n          tag_18\n          jump\t// in\n        tag_70:\n            /* \"#utility.yul\":1976:2042   */\n          tag_17\n          jump\t// in\n        tag_69:\n            /* \"#utility.yul\":1967:2042   */\n          swap1\n          pop\n            /* \"#utility.yul\":2065:2071   */\n          dup3\n            /* \"#utility.yul\":2058:2063   */\n          dup2\n            /* \"#utility.yul\":2051:2072   */\n          mstore\n            /* \"#utility.yul\":2103:2107   */\n          0x20\n            /* \"#utility.yul\":2096:2101   */\n          dup2\n            /* \"#utility.yul\":2092:2108   */\n          add\n            /* \"#utility.yul\":2141:2144   */\n          dup5\n            /* \"#utility.yul\":2132:2138   */\n          dup5\n            /* \"#utility.yul\":2127:2130   */\n          dup5\n            /* \"#utility.yul\":2123:2139   */\n          add\n            /* \"#utility.yul\":2120:2145   */\n          gt\n            /* \"#utility.yul\":2117:2229   */\n          iszero\n          tag_71\n          jumpi\n            /* \"#utility.yul\":2148:2227   */\n          tag_72\n          tag_13\n          jump\t// in\n        tag_72:\n            /* \"#utility.yul\":2117:2229   */\n        tag_71:\n            /* \"#utility.yul\":2238:2290   */\n          tag_73\n            /* \"#utility.yul\":2283:2289   */\n          dup5\n            /* \"#utility.yul\":2278:2281   */\n          dup3\n            /* \"#utility.yul\":2273:2276   */\n          dup6\n            /* \"#utility.yul\":2238:2290   */\n          tag_19\n          jump\t// in\n        tag_73:\n            /* \"#utility.yul\":1957:2296   */\n          pop\n            /* \"#utility.yul\":1862:2296   */\n          swap4\n          swap3\n          pop\n          pop\n          pop\n          jump\t// out\n            /* \"#utility.yul\":2316:2671   */\n        tag_21:\n            /* \"#utility.yul\":2383:2388   */\n          0x00\n            /* \"#utility.yul\":2432:2435   */\n          dup3\n            /* \"#utility.yul\":2425:2429   */\n          0x1f\n            /* \"#utility.yul\":2417:2423   */\n          dup4\n            /* \"#utility.yul\":2413:2430   */\n          add\n            /* \"#utility.yul\":2409:2436   */\n          slt\n            /* \"#utility.yul\":2399:2521   */\n          tag_75\n          jumpi\n            /* \"#utility.yul\":2440:2519   */\n          tag_76\n          tag_12\n          jump\t// in\n        tag_76:\n            /* \"#utility.yul\":2399:2521   */\n        tag_75:\n            /* \"#utility.yul\":2550:2556   */\n          dup2\n            /* \"#utility.yul\":2544:2557   */\n          mload\n            /* \"#utility.yul\":2575:2665   */\n          tag_77\n            /* \"#utility.yul\":2661:2664   */\n          dup5\n            /* \"#utility.yul\":2653:2659   */\n          dup3\n            /* \"#utility.yul\":2646:2650   */\n          0x20\n            /* \"#utility.yul\":2638:2644   */\n          dup7\n            /* \"#utility.yul\":2634:2651   */\n          add\n            /* \"#utility.yul\":2575:2665   */\n          tag_20\n          jump\t// in\n        tag_77:\n            /* \"#utility.yul\":2566:2665   */\n          swap2\n          pop\n            /* \"#utility.yul\":2389:2671   */\n          pop\n            /* \"#utility.yul\":2316:2671   */\n          swap3\n          swap2\n          pop\n          pop\n          jump\t// out\n            /* \"#utility.yul\":2677:2803   */\n        tag_22:\n            /* \"#utility.yul\":2714:2721   */\n          0x00\n            /* \"#utility.yul\":2754:2796   */\n          0xffffffffffffffffffffffffffffffffffffffff\n            /* \"#utility.yul\":2747:2752   */\n          dup3\n            /* \"#utility.yul\":2743:2797   */\n          and\n            /* \"#utility.yul\":2732:2797   */\n          swap1\n          pop\n            /* \"#utility.yul\":2677:2803   */\n          swap2\n          swap1\n          pop\n          jump\t// out\n            /* \"#utility.yul\":2809:2905   */\n        tag_23:\n            /* \"#utility.yul\":2846:2853   */\n          0x00\n            /* \"#utility.yul\":2875:2899   */\n          tag_80\n            /* \"#utility.yul\":2893:2898   */\n          dup3\n            /* \"#utility.yul\":2875:2899   */\n          tag_22\n          jump\t// in\n        tag_80:\n            /* \"#utility.yul\":2864:2899   */\n          swap1\n          pop\n            /* \"#utility.yul\":2809:2905   */\n          swap2\n          swap1\n          pop\n          jump\t// out\n            /* \"#utility.yul\":2911:3033   */\n        tag_24:\n            /* \"#utility.yul\":2984:3008   */\n          tag_82\n            /* \"#utility.yul\":3002:3007   */\n          dup2\n            /* \"#utility.yul\":2984:3008   */\n          tag_23\n          jump\t// in\n        tag_82:\n            /* \"#utility.yul\":2977:2982   */\n          dup2\n            /* \"#utility.yul\":2974:3009   */\n          eq\n            /* \"#utility.yul\":2964:3027   */\n          tag_83\n          jumpi\n            /* \"#utility.yul\":3023:3024   */\n          0x00\n            /* \"#utility.yul\":3020:3021   */\n          dup1\n            /* \"#utility.yul\":3013:3025   */\n          revert\n            /* \"#utility.yul\":2964:3027   */\n        tag_83:\n            /* \"#utility.yul\":2911:3033   */\n          pop\n          jump\t// out\n            /* \"#utility.yul\":3039:3182   */\n        tag_25:\n            /* \"#utility.yul\":3096:3101   */\n          0x00\n            /* \"#utility.yul\":3127:3133   */\n          dup2\n            /* \"#utility.yul\":3121:3134   */\n          mload\n            /* \"#utility.yul\":3112:3134   */\n          swap1\n          pop\n            /* \"#utility.yul\":3143:3176   */\n          tag_85\n            /* \"#utility.yul\":3170:3175   */\n          dup2\n            /* \"#utility.yul\":3143:3176   */\n          tag_24\n          jump\t// in\n        tag_85:\n            /* \"#utility.yul\":3039:3182   */\n          swap3\n          swap2\n          pop\n          pop\n          jump\t// out\n            /* \"#utility.yul\":3188:3868   */\n        tag_3:\n            /* \"#utility.yul\":3277:3283   */\n          0x00\n            /* \"#utility.yul\":3285:3291   */\n          dup1\n            /* \"#utility.yul\":3334:3336   */\n          0x40\n            /* \"#utility.yul\":3322:3331   */\n          dup4\n            /* \"#utility.yul\":3313:3320   */\n          dup6\n            /* \"#utility.yul\":3309:3332   */\n          sub\n            /* \"#utility.yul\":3305:3337   */\n          slt\n            /* \"#utility.yul\":3302:3421   */\n          iszero\n          tag_87\n          jumpi\n            /* \"#utility.yul\":3340:3419   */\n          tag_88\n          tag_10\n          jump\t// in\n        tag_88:\n            /* \"#utility.yul\":3302:3421   */\n        tag_87:\n            /* \"#utility.yul\":3481:3482   */\n          0x00\n            /* \"#utility.yul\":3470:3479   */\n          dup4\n            /* \"#utility.yul\":3466:3483   */\n          add\n            /* \"#utility.yul\":3460:3484   */\n          mload\n            /* \"#utility.yul\":3511:3529   */\n          0xffffffffffffffff\n            /* \"#utility.yul\":3503:3509   */\n          dup2\n            /* \"#utility.yul\":3500:3530   */\n          gt\n            /* \"#utility.yul\":3497:3614   */\n          iszero\n          tag_89\n          jumpi\n            /* \"#utility.yul\":3533:3612   */\n          tag_90\n          tag_11\n          jump\t// in\n        tag_90:\n            /* \"#utility.yul\":3497:3614   */\n        tag_89:\n            /* \"#utility.yul\":3638:3712   */\n          tag_91\n            /* \"#utility.yul\":3704:3711   */\n          dup6\n            /* \"#utility.yul\":3695:3701   */\n          dup3\n            /* \"#utility.yul\":3684:3693   */\n          dup7\n            /* \"#utility.yul\":3680:3702   */\n          add\n            /* \"#utility.yul\":3638:3712   */\n          tag_21\n          jump\t// in\n        tag_91:\n            /* \"#utility.yul\":3628:3712   */\n          swap3\n          pop\n            /* \"#utility.yul\":3431:3722   */\n          pop\n            /* \"#utility.yul\":3761:3763   */\n          0x20\n            /* \"#utility.yul\":3787:3851   */\n          tag_92\n            /* \"#utility.yul\":3843:3850   */\n          dup6\n            /* \"#utility.yul\":3834:3840   */\n          dup3\n            /* \"#utility.yul\":3823:3832   */\n          dup7\n            /* \"#utility.yul\":3819:3841   */\n          add\n            /* \"#utility.yul\":3787:3851   */\n          tag_25\n          jump\t// in\n        tag_92:\n            /* \"#utility.yul\":3777:3851   */\n          swap2\n          pop\n            /* \"#utility.yul\":3732:3861   */\n          pop\n            /* \"#utility.yul\":3188:3868   */\n          swap3\n          pop\n          swap3\n          swap1\n          pop\n          jump\t// out\n            /* \"#utility.yul\":3874:3973   */\n        tag_26:\n            /* \"#utility.yul\":3926:3932   */\n          0x00\n            /* \"#utility.yul\":3960:3965   */\n          dup2\n            /* \"#utility.yul\":3954:3966   */\n          mload\n            /* \"#utility.yul\":3944:3966   */\n          swap1\n          pop\n            /* \"#utility.yul\":3874:3973   */\n          swap2\n          swap1\n          pop\n          jump\t// out\n            /* \"#utility.yul\":3979:4159   */\n        tag_27:\n            /* \"#utility.yul\":4027:4104   */\n          0x4e487b7100000000000000000000000000000000000000000000000000000000\n            /* \"#utility.yul\":4024:4025   */\n          0x00\n            /* \"#utility.yul\":4017:4105   */\n          mstore\n            /* \"#utility.yul\":4124:4128   */\n          0x22\n            /* \"#utility.yul\":4121:4122   */\n          0x04\n            /* \"#utility.yul\":4114:4129   */\n          mstore\n            /* \"#utility.yul\":4148:4152   */\n          0x24\n            /* \"#utility.yul\":4145:4146   */\n          0x00\n            /* \"#utility.yul\":4138:4153   */\n          revert\n            /* \"#utility.yul\":4165:4485   */\n        tag_28:\n            /* \"#utility.yul\":4209:4215   */\n          0x00\n            /* \"#utility.yul\":4246:4247   */\n          0x02\n            /* \"#utility.yul\":4240:4244   */\n          dup3\n            /* \"#utility.yul\":4236:4248   */\n          div\n            /* \"#utility.yul\":4226:4248   */\n          swap1\n          pop\n            /* \"#utility.yul\":4293:4294   */\n          0x01\n            /* \"#utility.yul\":4287:4291   */\n          dup3\n            /* \"#utility.yul\":4283:4295   */\n          and\n            /* \"#utility.yul\":4314:4332   */\n          dup1\n            /* \"#utility.yul\":4304:4385   */\n          tag_96\n          jumpi\n            /* \"#utility.yul\":4370:4374   */\n          0x7f\n            /* \"#utility.yul\":4362:4368   */\n          dup3\n            /* \"#utility.yul\":4358:4375   */\n          and\n            /* \"#utility.yul\":4348:4375   */\n          swap2\n          pop\n            /* \"#utility.yul\":4304:4385   */\n        tag_96:\n            /* \"#utility.yul\":4432:4434   */\n          0x20\n            /* \"#utility.yul\":4424:4430   */\n          dup3\n            /* \"#utility.yul\":4421:4435   */\n          lt\n            /* \"#utility.yul\":4401:4419   */\n          dup2\n            /* \"#utility.yul\":4398:4436   */\n          sub\n            /* \"#utility.yul\":4395:4479   */\n          tag_97\n          jumpi\n            /* \"#utility.yul\":4451:4469   */\n          tag_98\n          tag_27\n          jump\t// in\n        tag_98:\n            /* \"#utility.yul\":4395:4479   */\n        tag_97:\n            /* \"#utility.yul\":4216:4485   */\n          pop\n            /* \"#utility.yul\":4165:4485   */\n          swap2\n          swap1\n          pop\n          jump\t// out\n            /* \"#utility.yul\":4491:4632   */\n        tag_29:\n            /* \"#utility.yul\":4540:4544   */\n          0x00\n            /* \"#utility.yul\":4563:4566   */\n          dup2\n            /* \"#utility.yul\":4555:4566   */\n          swap1\n          pop\n            /* \"#utility.yul\":4586:4589   */\n          dup2\n            /* \"#utility.yul\":4583:4584   */\n          0x00\n            /* \"#utility.yul\":4576:4590   */\n          mstore\n            /* \"#utility.yul\":4620:4624   */\n          0x20\n            /* \"#utility.yul\":4617:4618   */\n          0x00\n            /* \"#utility.yul\":4607:4625   */\n          keccak256\n            /* \"#utility.yul\":4599:4625   */\n          swap1\n          pop\n            /* \"#utility.yul\":4491:4632   */\n          swap2\n          swap1\n          pop\n          jump\t// out\n            /* \"#utility.yul\":4638:4731   */\n        tag_30:\n            /* \"#utility.yul\":4675:4681   */\n          0x00\n            /* \"#utility.yul\":4722:4724   */\n          0x20\n            /* \"#utility.yul\":4717:4719   */\n          0x1f\n            /* \"#utility.yul\":4710:4715   */\n          dup4\n            /* \"#utility.yul\":4706:4720   */\n          add\n            /* \"#utility.yul\":4702:4725   */\n          div\n            /* \"#utility.yul\":4692:4725   */\n          swap1\n          pop\n            /* \"#utility.yul\":4638:4731   */\n          swap2\n          swap1\n          pop\n          jump\t// out\n            /* \"#utility.yul\":4737:4844   */\n        tag_31:\n            /* \"#utility.yul\":4781:4789   */\n          0x00\n            /* \"#utility.yul\":4831:4836   */\n          dup3\n            /* \"#utility.yul\":4825:4829   */\n          dup3\n            /* \"#utility.yul\":4821:4837   */\n          shl\n            /* \"#utility.yul\":4800:4837   */\n          swap1\n          pop\n            /* \"#utility.yul\":4737:4844   */\n          swap3\n          swap2\n          pop\n          pop\n          jump\t// out\n            /* \"#utility.yul\":4850:5243   */\n        tag_32:\n            /* \"#utility.yul\":4919:4925   */\n          0x00\n            /* \"#utility.yul\":4969:4970   */\n          0x08\n            /* \"#utility.yul\":4957:4967   */\n          dup4\n            /* \"#utility.yul\":4953:4971   */\n          mul\n            /* \"#utility.yul\":4992:5089   */\n          tag_103\n            /* \"#utility.yul\":5022:5088   */\n          0xffffffffffffffffffffffffffffffffffffffffffffffffffffffffffffffff\n            /* \"#utility.yul\":5011:5020   */\n          dup3\n            /* \"#utility.yul\":4992:5089   */\n          tag_31\n          jump\t// in\n        tag_103:\n            /* \"#utility.yul\":5110:5149   */\n          tag_104\n            /* \"#utility.yul\":5140:5148   */\n          dup7\n            /* \"#utility.yul\":5129:5138   */\n          dup4\n            /* \"#utility.yul\":5110:5149   */\n          tag_31\n          jump\t// in\n        tag_104:\n            /* \"#utility.yul\":5098:5149   */\n          swap6\n          pop\n            /* \"#utility.yul\":5182:5186   */\n          dup1\n            /* \"#utility.yul\":5178:5187   */\n          not\n            /* \"#utility.yul\":5171:5176   */\n          dup5\n            /* \"#utility.yul\":5167:5188   */\n          and\n            /* \"#utility.yul\":5158:5188   */\n          swap4\n          pop\n            /* \"#utility.yul\":5231:5235   */\n          dup1\n            /* \"#utility.yul\":5221:5229   */\n          dup7\n            /* \"#utility.yul\":5217:5236   */\n          and\n            /* \"#utility.yul\":5210:5215   */\n          dup5\n            /* \"#utility.yul\":5207:5237   */\n          or\n            /* \"#utility.yul\":5197:5237   */\n          swap3\n          pop\n            /* \"#utility.yul\":4926:5243   */\n          pop\n          pop\n            /* \"#utility.yul\":4850:5243   */\n          swap4\n          swap3\n          pop\n          pop\n          pop\n          jump\t// out\n            /* \"#utility.yul\":5249:5326   */\n        tag_33:\n            /* \"#utility.yul\":5286:5293   */\n          0x00\n            /* \"#utility.yul\":5315:5320   */\n          dup2\n            /* \"#utility.yul\":5304:5320   */\n          swap1\n          pop\n            /* \"#utility.yul\":5249:5326   */\n          swap2\n          swap1\n          pop\n          jump\t// out\n            /* \"#utility.yul\":5332:5392   */\n        tag_34:\n            /* \"#utility.yul\":5360:5363   */\n          0x00\n            /* \"#utility.yul\":5381:5386   */\n          dup2\n            /* \"#utility.yul\":5374:5386   */\n          swap1\n          pop\n            /* \"#utility.yul\":5332:5392   */\n          swap2\n          swap1\n          pop\n          jump\t// out\n            /* \"#utility.yul\":5398:5540   */\n        tag_35:\n            /* \"#utility.yul\":5448:5457   */\n          0x00\n            /* \"#utility.yul\":5481:5534   */\n          tag_108\n            /* \"#utility.yul\":5499:5533   */\n          tag_109\n            /* \"#utility.yul\":5508:5532   */\n          tag_110\n            /* \"#utility.yul\":5526:5531   */\n          dup5\n            /* \"#utility.yul\":5508:5532   */\n          tag_33\n          jump\t// in\n        tag_110:\n            /* \"#utility.yul\":5499:5533   */\n          tag_34\n          jump\t// in\n        tag_109:\n            /* \"#utility.yul\":5481:5534   */\n          tag_33\n          jump\t// in\n        tag_108:\n            /* \"#utility.yul\":5468:5534   */\n          swap1\n          pop\n            /* \"#utility.yul\":5398:5540   */\n          swap2\n          swap1\n          pop\n          jump\t// out\n            /* \"#utility.yul\":5546:5621   */\n        tag_36:\n            /* \"#utility.yul\":5589:5592   */\n          0x00\n            /* \"#utility.yul\":5610:5615   */\n          dup2\n            /* \"#utility.yul\":5603:5615   */\n          swap1\n          pop\n            /* \"#utility.yul\":5546:5621   */\n          swap2\n          swap1\n          pop\n          jump\t// out\n            /* \"#utility.yul\":5627:5896   */\n        tag_37:\n            /* \"#utility.yul\":5737:5776   */\n          tag_113\n            /* \"#utility.yul\":5768:5775   */\n          dup4\n            /* \"#utility.yul\":5737:5776   */\n          tag_35\n          jump\t// in\n        tag_113:\n            /* \"#utility.yul\":5798:5889   */\n          tag_114\n            /* \"#utility.yul\":5847:5888   */\n          tag_115\n            /* \"#utility.yul\":5871:5887   */\n          dup3\n            /* \"#utility.yul\":5847:5888   */\n          tag_36\n          jump\t// in\n        tag_115:\n            /* \"#utility.yul\":5839:5845   */\n          dup5\n            /* \"#utility.yul\":5832:5836   */\n          dup5\n            /* \"#utility.yul\":5826:5837   */\n          sload\n            /* \"#utility.yul\":5798:5889   */\n          tag_32\n          jump\t// in\n        tag_114:\n            /* \"#utility.yul\":5792:5796   */\n          dup3\n            /* \"#utility.yul\":5785:5890   */\n          sstore\n            /* \"#utility.yul\":5703:5896   */\n          pop\n            /* \"#utility.yul\":5627:5896   */\n          pop\n          pop\n          pop\n          jump\t// out\n            /* \"#utility.yul\":5902:5975   */\n        tag_38:\n            /* \"#utility.yul\":5947:5950   */\n          0x00\n            /* \"#utility.yul\":5902:5975   */\n          swap1\n          jump\t// out\n            /* \"#utility.yul\":5981:6170   */\n        tag_39:\n            /* \"#utility.yul\":6058:6090   */\n          tag_118\n          tag_38\n          jump\t// in\n        tag_118:\n            /* \"#utility.yul\":6099:6164   */\n          tag_119\n            /* \"#utility.yul\":6157:6163   */\n          dup2\n            /* \"#utility.yul\":6149:6155   */\n          dup5\n            /* \"#utility.yul\":6143:6147   */\n          dup5\n            /* \"#utility.yul\":6099:6164   */\n          tag_37\n          jump\t// in\n        tag_119:\n            /* \"#utility.yul\":6034:6170   */\n          pop\n            /* \"#utility.yul\":5981:6170   */\n          pop\n          pop\n          jump\t// out\n            /* \"#utility.yul\":6176:6362   */\n        tag_40:\n            /* \"#utility.yul\":6236:6356   */\n        tag_121:\n            /* \"#utility.yul\":6253:6256   */\n          dup2\n            /* \"#utility.yul\":6246:6251   */\n          dup2\n            /* \"#utility.yul\":6243:6257   */\n          lt\n            /* \"#utility.yul\":6236:6356   */\n          iszero\n          tag_123\n          jumpi\n            /* \"#utility.yul\":6307:6346   */\n          tag_124\n            /* \"#utility.yul\":6344:6345   */\n          0x00\n            /* \"#utility.yul\":6337:6342   */\n          dup3\n            /* \"#utility.yul\":6307:6346   */\n          tag_39\n          jump\t// in\n        tag_124:\n            /* \"#utility.yul\":6280:6281   */\n          0x01\n            /* \"#utility.yul\":6273:6278   */\n          dup2\n            /* \"#utility.yul\":6269:6282   */\n          add\n            /* \"#utility.yul\":6260:6282   */\n          swap1\n          pop\n            /* \"#utility.yul\":6236:6356   */\n          jump(tag_121)\n        tag_123:\n            /* \"#utility.yul\":6176:6362   */\n          pop\n          pop\n          jump\t// out\n            /* \"#utility.yul\":6368:6911   */\n        tag_41:\n            /* \"#utility.yul\":6469:6471   */\n          0x1f\n            /* \"#utility.yul\":6464:6467   */\n          dup3\n            /* \"#utility.yul\":6461:6472   */\n          gt\n            /* \"#utility.yul\":6458:6904   */\n          iszero\n          tag_126\n          jumpi\n            /* \"#utility.yul\":6503:6541   */\n          tag_127\n            /* \"#utility.yul\":6535:6540   */\n          dup2\n            /* \"#utility.yul\":6503:6541   */\n          tag_29\n          jump\t// in\n        tag_127:\n            /* \"#utility.yul\":6587:6616   */\n          tag_128\n            /* \"#utility.yul\":6605:6615   */\n          dup5\n            /* \"#utility.yul\":6587:6616   */\n          tag_30\n          jump\t// in\n        tag_128:\n            /* \"#utility.yul\":6577:6585   */\n          dup2\n            /* \"#utility.yul\":6573:6617   */\n          add\n            /* \"#utility.yul\":6770:6772   */\n          0x20\n            /* \"#utility.yul\":6758:6768   */\n          dup6\n            /* \"#utility.yul\":6755:6773   */\n          lt\n            /* \"#utility.yul\":6752:6801   */\n          iszero\n          tag_129\n          jumpi\n            /* \"#utility.yul\":6791:6799   */\n          dup2\n            /* \"#utility.yul\":6776:6799   */\n          swap1\n          pop\n            /* \"#utility.yul\":6752:6801   */\n        tag_129:\n            /* \"#utility.yul\":6814:6894   */\n          tag_130\n            /* \"#utility.yul\":6870:6892   */\n          tag_131\n            /* \"#utility.yul\":6888:6891   */\n          dup6\n            /* \"#utility.yul\":6870:6892   */\n          tag_30\n          jump\t// in\n        tag_131:\n            /* \"#utility.yul\":6860:6868   */\n          dup4\n            /* \"#utility.yul\":6856:6893   */\n          add\n            /* \"#utility.yul\":6843:6854   */\n          dup3\n            /* \"#utility.yul\":6814:6894   */\n          tag_40\n          jump\t// in\n        tag_130:\n            /* \"#utility.yul\":6473:6904   */\n          pop\n          pop\n            /* \"#utility.yul\":6458:6904   */\n        tag_126:\n            /* \"#utility.yul\":6368:6911   */\n          pop\n          pop\n          pop\n          jump\t// out\n            /* \"#utility.yul\":6917:7034   */\n        tag_42:\n            /* \"#utility.yul\":6971:6979   */\n          0x00\n            /* \"#utility.yul\":7021:7026   */\n          dup3\n            /* \"#utility.yul\":7015:7019   */\n          dup3\n            /* \"#utility.yul\":7011:7027   */\n          shr\n            /* \"#utility.yul\":6990:7027   */\n          swap1\n          pop\n            /* \"#utility.yul\":6917:7034   */\n          swap3\n          swap2\n          pop\n          pop\n          jump\t// out\n            /* \"#utility.yul\":7040:7209   */\n        tag_43:\n            /* \"#utility.yul\":7084:7090   */\n          0x00\n            /* \"#utility.yul\":7117:7168   */\n          tag_134\n            /* \"#utility.yul\":7165:7166   */\n          0x00\n            /* \"#utility.yul\":7161:7167   */\n          not\n            /* \"#utility.yul\":7153:7158   */\n          dup5\n            /* \"#utility.yul\":7150:7151   */\n          0x08\n            /* \"#utility.yul\":7146:7159   */\n          mul\n            /* \"#utility.yul\":7117:7168   */\n          tag_42\n          jump\t// in\n        tag_134:\n            /* \"#utility.yul\":7113:7169   */\n          not\n            /* \"#utility.yul\":7198:7202   */\n          dup1\n            /* \"#utility.yul\":7192:7196   */\n          dup4\n            /* \"#utility.yul\":7188:7203   */\n          and\n            /* \"#utility.yul\":7178:7203   */\n          swap2\n          pop\n            /* \"#utility.yul\":7091:7209   */\n          pop\n            /* \"#utility.yul\":7040:7209   */\n          swap3\n          swap2\n          pop\n          pop\n          jump\t// out\n            /* \"#utility.yul\":7214:7509   */\n        tag_44:\n            /* \"#utility.yul\":7290:7294   */\n          0x00\n            /* \"#utility.yul\":7436:7465   */\n          tag_136\n            /* \"#utility.yul\":7461:7464   */\n          dup4\n            /* \"#utility.yul\":7455:7459   */\n          dup4\n            /* \"#utility.yul\":7436:7465   */\n          tag_43\n          jump\t// in\n        tag_136:\n            /* \"#utility.yul\":7428:7465   */\n          swap2\n          pop\n            /* \"#utility.yul\":7498:7501   */\n          dup3\n            /* \"#utility.yul\":7495:7496   */\n          0x02\n            /* \"#utility.yul\":7491:7502   */\n          mul\n            /* \"#utility.yul\":7485:7489   */\n          dup3\n            /* \"#utility.yul\":7482:7503   */\n          or\n            /* \"#utility.yul\":7474:7503   */\n          swap1\n          pop\n            /* \"#utility.yul\":7214:7509   */\n          swap3\n          swap2\n          pop\n          pop\n          jump\t// out\n            /* \"#utility.yul\":7514:8909   */\n        tag_7:\n            /* \"#utility.yul\":7631:7668   */\n          tag_138\n            /* \"#utility.yul\":7664:7667   */\n          dup3\n            /* \"#utility.yul\":7631:7668   */\n          tag_26\n          jump\t// in\n        tag_138:\n            /* \"#utility.yul\":7733:7751   */\n          0xffffffffffffffff\n            /* \"#utility.yul\":7725:7731   */\n          dup2\n            /* \"#utility.yul\":7722:7752   */\n          gt\n            /* \"#utility.yul\":7719:7775   */\n          iszero\n          tag_139\n          jumpi\n            /* \"#utility.yul\":7755:7773   */\n          tag_140\n          tag_15\n          jump\t// in\n        tag_140:\n            /* \"#utility.yul\":7719:7775   */\n        tag_139:\n            /* \"#utility.yul\":7799:7837   */\n          tag_141\n            /* \"#utility.yul\":7831:7835   */\n          dup3\n            /* \"#utility.yul\":7825:7836   */\n          sload\n            /* \"#utility.yul\":7799:7837   */\n          tag_28\n          jump\t// in\n        tag_141:\n            /* \"#utility.yul\":7884:7951   */\n          tag_142\n            /* \"#utility.yul\":7944:7950   */\n          dup3\n            /* \"#utility.yul\":7936:7942   */\n          dup3\n            /* \"#utility.yul\":7930:7934   */\n          dup6\n            /* \"#utility.yul\":7884:7951   */\n          tag_41\n          jump\t// in\n        tag_142:\n            /* \"#utility.yul\":7978:7979   */\n          0x00\n            /* \"#utility.yul\":8002:8006   */\n          0x20\n            /* \"#utility.yul\":7989:8006   */\n          swap1\n          pop\n            /* \"#utility.yul\":8034:8036   */\n          0x1f\n            /* \"#utility.yul\":8026:8032   */\n          dup4\n            /* \"#utility.yul\":8023:8037   */\n          gt\n            /* \"#utility.yul\":8051:8052   */\n          0x01\n            /* \"#utility.yul\":8046:8664   */\n          dup2\n          eq\n          tag_144\n          jumpi\n            /* \"#utility.yul\":8708:8709   */\n          0x00\n            /* \"#utility.yul\":8725:8731   */\n          dup5\n            /* \"#utility.yul\":8722:8799   */\n          iszero\n          tag_145\n          jumpi\n            /* \"#utility.yul\":8774:8783   */\n          dup3\n            /* \"#utility.yul\":8769:8772   */\n          dup8\n            /* \"#utility.yul\":8765:8784   */\n          add\n            /* \"#utility.yul\":8759:8785   */\n          mload\n            /* \"#utility.yul\":8750:8785   */\n          swap1\n          pop\n            /* \"#utility.yul\":8722:8799   */\n        tag_145:\n            /* \"#utility.yul\":8825:8892   */\n          tag_146\n            /* \"#utility.yul\":8885:8891   */\n          dup6\n            /* \"#utility.yul\":8878:8883   */\n          dup3\n            /* \"#utility.yul\":8825:8892   */\n          tag_44\n          jump\t// in\n        tag_146:\n            /* \"#utility.yul\":8819:8823   */\n          dup7\n            /* \"#utility.yul\":8812:8893   */\n          sstore\n            /* \"#utility.yul\":8681:8903   */\n          pop\n            /* \"#utility.yul\":8016:8903   */\n          jump(tag_143)\n            /* \"#utility.yul\":8046:8664   */\n        tag_144:\n            /* \"#utility.yul\":8098:8102   */\n          0x1f\n            /* \"#utility.yul\":8094:8103   */\n          not\n            /* \"#utility.yul\":8086:8092   */\n          dup5\n            /* \"#utility.yul\":8082:8104   */\n          and\n            /* \"#utility.yul\":8132:8169   */\n          tag_147\n            /* \"#utility.yul\":8164:8168   */\n          dup7\n            /* \"#utility.yul\":8132:8169   */\n          tag_29\n          jump\t// in\n        tag_147:\n            /* \"#utility.yul\":8191:8192   */\n          0x00\n            /* \"#utility.yul\":8205:8413   */\n        tag_148:\n            /* \"#utility.yul\":8219:8226   */\n          dup3\n            /* \"#utility.yul\":8216:8217   */\n          dup2\n            /* \"#utility.yul\":8213:8227   */\n          lt\n            /* \"#utility.yul\":8205:8413   */\n          iszero\n          tag_150\n          jumpi\n            /* \"#utility.yul\":8298:8307   */\n          dup5\n            /* \"#utility.yul\":8293:8296   */\n          dup10\n            /* \"#utility.yul\":8289:8308   */\n          add\n            /* \"#utility.yul\":8283:8309   */\n          mload\n            /* \"#utility.yul\":8275:8281   */\n          dup3\n            /* \"#utility.yul\":8268:8310   */\n          sstore\n            /* \"#utility.yul\":8349:8350   */\n          0x01\n            /* \"#utility.yul\":8341:8347   */\n          dup3\n            /* \"#utility.yul\":8337:8351   */\n          add\n            /* \"#utility.yul\":8327:8351   */\n          swap2\n          pop\n            /* \"#utility.yul\":8396:8398   */\n          0x20\n            /* \"#utility.yul\":8385:8394   */\n          dup6\n            /* \"#utility.yul\":8381:8399   */\n          add\n            /* \"#utility.yul\":8368:8399   */\n          swap5\n          pop\n            /* \"#utility.yul\":8242:8246   */\n          0x20\n            /* \"#utility.yul\":8239:8240   */\n          dup2\n            /* \"#utility.yul\":8235:8247   */\n          add\n            /* \"#utility.yul\":8230:8247   */\n          swap1\n          pop\n            /* \"#utility.yul\":8205:8413   */\n          jump(tag_148)\n        tag_150:\n            /* \"#utility.yul\":8441:8447   */\n          dup7\n            /* \"#utility.yul\":8432:8439   */\n          dup4\n            /* \"#utility.yul\":8429:8448   */\n          lt\n            /* \"#utility.yul\":8426:8605   */\n          iszero\n          tag_151\n          jumpi\n            /* \"#utility.yul\":8499:8508   */\n          dup5\n            /* \"#utility.yul\":8494:8497   */\n          dup10\n            /* \"#utility.yul\":8490:8509   */\n          add\n            /* \"#utility.yul\":8484:8510   */\n          mload\n            /* \"#utility.yul\":8542:8590   */\n          tag_152\n            /* \"#utility.yul\":8584:8588   */\n          0x1f\n            /* \"#utility.yul\":8576:8582   */\n          dup10\n            /* \"#utility.yul\":8572:8589   */\n          and\n            /* \"#utility.yul\":8561:8570   */\n          dup3\n            /* \"#utility.yul\":8542:8590   */\n          tag_43\n          jump\t// in\n        tag_152:\n            /* \"#utility.yul\":8534:8540   */\n          dup4\n            /* \"#utility.yul\":8527:8591   */\n          sstore\n            /* \"#utility.yul\":8449:8605   */\n          pop\n            /* \"#utility.yul\":8426:8605   */\n        tag_151:\n            /* \"#utility.yul\":8651:8652   */\n          0x01\n            /* \"#utility.yul\":8647:8648   */\n          0x02\n            /* \"#utility.yul\":8639:8645   */\n          dup9\n            /* \"#utility.yul\":8635:8649   */\n          mul\n            /* \"#utility.yul\":8631:8653   */\n          add\n            /* \"#utility.yul\":8625:8629   */\n          dup9\n            /* \"#utility.yul\":8618:8654   */\n          sstore\n            /* \"#utility.yul\":8053:8664   */\n          pop\n          pop\n          pop\n            /* \"#utility.yul\":8016:8903   */\n        tag_143:\n          pop\n            /* \"#utility.yul\":7606:8909   */\n          pop\n          pop\n          pop\n            /* \"#utility.yul\":7514:8909   */\n          pop\n          pop\n          jump\t// out\n            /* \"Voting.sol\":446:1967  contract VotingCampaign{... */\n        tag_8:\n          dataSize(sub_0)\n          dup1\n          dataOffset(sub_0)\n          0x00\n          codecopy\n          0x00\n          return\n        stop\n\n        sub_0: assembly {\n                /* \"Voting.sol\":446:1967  contract VotingCampaign{... */\n              mstore(0x40, 0x80)\n              callvalue\n              dup1\n              iszero\n              tag_1\n              jumpi\n              0x00\n              dup1\n              revert\n            tag_1:\n              pop\n              jumpi(tag_2, lt(calldatasize, 0x04))\n              shr(0xe0, calldataload(0x00))\n              dup1\n              0x7317ea29\n              gt\n              tag_15\n              jumpi\n              dup1\n              0x7317ea29\n              eq\n              tag_9\n              jumpi\n              dup1\n              0xa3ec138d\n              eq\n              tag_10\n              jumpi\n              dup1\n              0xa7acbb2b\n              eq\n              tag_11\n              jumpi\n              dup1\n              0xb78662e7\n              eq\n              tag_12\n              jumpi\n              dup1\n              0xe3f7db6e\n              eq\n              tag_13\n              jumpi\n              dup1\n              0xfc3cf018\n              eq\n              tag_14\n              jumpi\n              jump(tag_2)\n            tag_15:\n              dup1\n              0x19e5bf3a\n              eq\n              tag_3\n              jumpi\n              dup1\n              0x42169e48\n              eq\n              tag_4\n              jumpi\n              dup1\n              0x481c6a75\n              eq\n              tag_5\n              jumpi\n              dup1\n              0x6423db34\n              eq\n              tag_6\n              jumpi\n              dup1\n              0x66542aa7\n              eq\n              tag_7\n              jumpi\n              dup1\n              0x68e2a8e4\n              eq\n              tag_8\n              jumpi\n            tag_2:\n              0x00\n              dup1\n              revert\n                /* \"Voting.sol\":920:1101  function Register() public {... */\n            tag_3:\n              tag_16\n              tag_17\n              jump\t// in\n            tag_16:\n              stop\n                /* \"Voting.sol\":610:632  uint public voterCount */\n            tag_4:\n              tag_18\n              tag_19\n              jump\t// in\n            tag_18:\n              mload(0x40)\n              tag_20\n              swap2\n              swap1\n              tag_21\n              jump\t// in\n            tag_20:\n              mload(0x40)\n              dup1\n              swap2\n              sub\n              swap1\n              return\n                /* \"Voting.sol\":476:498  address public manager */\n            tag_5:\n              tag_22\n              tag_23\n              jump\t// in\n            tag_22:\n              mload(0x40)\n              tag_24\n              swap2\n              swap1\n              tag_25\n              jump\t// in\n            tag_24:\n              mload(0x40)\n              dup1\n              swap2\n              sub\n              swap1\n              return\n                /* \"Voting.sol\":1421:1801  function Reset() public{... */\n            tag_6:\n              tag_26\n              tag_27\n              jump\t// in\n            tag_26:\n              stop\n                /* \"Voting.sol\":575:603  address[] public individuals */\n            tag_7:\n              tag_28\n              0x04\n              dup1\n              calldatasize\n              sub\n              dup2\n              add\n              swap1\n              tag_29\n              swap2\n              swap1\n              tag_30\n              jump\t// in\n            tag_29:\n              tag_31\n              jump\t// in\n            tag_28:\n              mload(0x40)\n              tag_32\n              swap2\n              swap1\n              tag_25\n              jump\t// in\n            tag_32:\n              mload(0x40)\n              dup1\n              swap2\n              sub\n              swap1\n              return\n                /* \"Voting.sol\":505:523  string public moto */\n            tag_8:\n              tag_33\n              tag_34\n              jump\t// in\n            tag_33:\n              mload(0x40)\n              tag_35\n              swap2\n              swap1\n              tag_36\n              jump\t// in\n            tag_35:\n              mload(0x40)\n              dup1\n              swap2\n              sub\n              swap1\n              return\n                /* \"Voting.sol\":1109:1217  function VoteUp() public Required{... */\n            tag_9:\n              tag_37\n              tag_38\n              jump\t// in\n            tag_37:\n              stop\n                /* \"Voting.sol\":530:568  mapping(address => bool) public voters */\n            tag_10:\n              tag_39\n              0x04\n              dup1\n              calldatasize\n              sub\n              dup2\n              add\n              swap1\n              tag_40\n              swap2\n              swap1\n              tag_41\n              jump\t// in\n            tag_40:\n              tag_42\n              jump\t// in\n            tag_39:\n              mload(0x40)\n              tag_43\n              swap2\n              swap1\n              tag_44\n              jump\t// in\n            tag_43:\n              mload(0x40)\n              dup1\n              swap2\n              sub\n              swap1\n              return\n                /* \"Voting.sol\":675:704  uint public negativeVoteCount */\n            tag_11:\n              tag_45\n              tag_46\n              jump\t// in\n            tag_45:\n              mload(0x40)\n              tag_47\n              swap2\n              swap1\n              tag_21\n              jump\t// in\n            tag_47:\n              mload(0x40)\n              dup1\n              swap2\n              sub\n              swap1\n              return\n                /* \"Voting.sol\":1264:1374  function VoteDown() public Required{... */\n            tag_12:\n              tag_48\n              tag_49\n              jump\t// in\n            tag_48:\n              stop\n                /* \"Voting.sol\":639:668  uint public positiveVoteCount */\n            tag_13:\n              tag_50\n              tag_51\n              jump\t// in\n            tag_50:\n              mload(0x40)\n              tag_52\n              swap2\n              swap1\n              tag_21\n              jump\t// in\n            tag_52:\n              mload(0x40)\n              dup1\n              swap2\n              sub\n              swap1\n              return\n                /* \"Voting.sol\":1862:1962  function getInidviduals() public view returns(address[] memory){... */\n            tag_14:\n              tag_53\n              tag_54\n              jump\t// in\n            tag_53:\n              mload(0x40)\n              tag_55\n              swap2\n              swap1\n              tag_56\n              jump\t// in\n            tag_55:\n              mload(0x40)\n              dup1\n              swap2\n              sub\n              swap1\n              return\n                /* \"Voting.sol\":920:1101  function Register() public {... */\n            tag_17:\n                /* \"Voting.sol\":967:973  voters */\n              0x02\n                /* \"Voting.sol\":967:985  voters[msg.sender] */\n              0x00\n                /* \"Voting.sol\":974:984  msg.sender */\n              caller\n                /* \"Voting.sol\":967:985  voters[msg.sender] */\n              0xffffffffffffffffffffffffffffffffffffffff\n              and\n              0xffffffffffffffffffffffffffffffffffffffff\n              and\n              dup2\n              mstore\n              0x20\n              add\n              swap1\n              dup2\n              mstore\n              0x20\n              add\n              0x00\n              keccak256\n              0x00\n              swap1\n              sload\n              swap1\n              0x0100\n              exp\n              swap1\n              div\n              0xff\n              and\n                /* \"Voting.sol\":966:985  !voters[msg.sender] */\n              iszero\n                /* \"Voting.sol\":958:986  require(!voters[msg.sender]) */\n              tag_58\n              jumpi\n              0x00\n              dup1\n              revert\n            tag_58:\n                /* \"Voting.sol\":1006:1017  individuals */\n              0x03\n                /* \"Voting.sol\":1023:1033  msg.sender */\n              caller\n                /* \"Voting.sol\":1006:1034  individuals.push(msg.sender) */\n              swap1\n              dup1\n              0x01\n              dup2\n              sload\n              add\n              dup1\n              dup3\n              sstore\n              dup1\n              swap2\n              pop\n              pop\n              0x01\n              swap1\n              sub\n              swap1\n              0x00\n              mstore\n              keccak256(0x00, 0x20)\n              add\n              0x00\n              swap1\n              swap2\n              swap1\n              swap2\n              swap1\n              swap2\n              0x0100\n              exp\n              dup2\n              sload\n              dup2\n              0xffffffffffffffffffffffffffffffffffffffff\n              mul\n              not\n              and\n              swap1\n              dup4\n              0xffffffffffffffffffffffffffffffffffffffff\n              and\n              mul\n              or\n              swap1\n              sstore\n              pop\n                /* \"Voting.sol\":1066:1070  true */\n              0x01\n                /* \"Voting.sol\":1045:1051  voters */\n              0x02\n                /* \"Voting.sol\":1045:1063  voters[msg.sender] */\n              0x00\n                /* \"Voting.sol\":1052:1062  msg.sender */\n              caller\n                /* \"Voting.sol\":1045:1063  voters[msg.sender] */\n              0xffffffffffffffffffffffffffffffffffffffff\n              and\n              0xffffffffffffffffffffffffffffffffffffffff\n              and\n              dup2\n              mstore\n              0x20\n              add\n              swap1\n              dup2\n              mstore\n              0x20\n              add\n              0x00\n              keccak256\n              0x00\n                /* \"Voting.sol\":1045:1070  voters[msg.sender] = true */\n              0x0100\n              exp\n              dup2\n              sload\n              dup2\n              0xff\n              mul\n              not\n              and\n              swap1\n              dup4\n              iszero\n              iszero\n              mul\n              or\n              swap1\n              sstore\n              pop\n                /* \"Voting.sol\":1081:1091  voterCount */\n              0x04\n              0x00\n                /* \"Voting.sol\":1081:1093  voterCount++ */\n              dup2\n              sload\n              dup1\n              swap3\n              swap2\n              swap1\n              tag_60\n              swap1\n              tag_61\n              jump\t// in\n            tag_60:\n              swap2\n              swap1\n              pop\n              sstore\n              pop\n                /* \"Voting.sol\":920:1101  function Register() public {... */\n              jump\t// out\n                /* \"Voting.sol\":610:632  uint public voterCount */\n            tag_19:\n              sload(0x04)\n              dup2\n              jump\t// out\n                /* \"Voting.sol\":476:498  address public manager */\n            tag_23:\n              0x00\n              dup1\n              sload\n              swap1\n              0x0100\n              exp\n              swap1\n              div\n              0xffffffffffffffffffffffffffffffffffffffff\n              and\n              dup2\n              jump\t// out\n                /* \"Voting.sol\":1421:1801  function Reset() public{... */\n            tag_27:\n                /* \"Voting.sol\":1477:1484  manager */\n              0x00\n              dup1\n              sload\n              swap1\n              0x0100\n              exp\n              swap1\n              div\n              0xffffffffffffffffffffffffffffffffffffffff\n              and\n                /* \"Voting.sol\":1463:1484  msg.sender == manager */\n              0xffffffffffffffffffffffffffffffffffffffff\n              and\n                /* \"Voting.sol\":1463:1473  msg.sender */\n              caller\n                /* \"Voting.sol\":1463:1484  msg.sender == manager */\n              0xffffffffffffffffffffffffffffffffffffffff\n              and\n              eq\n                /* \"Voting.sol\":1455:1485  require(msg.sender == manager) */\n              tag_63\n              jumpi\n              0x00\n              dup1\n              revert\n            tag_63:\n                /* \"Voting.sol\":1505:1522  positiveVoteCount */\n              0x05\n                /* \"Voting.sol\":1498:1522  delete positiveVoteCount */\n              0x00\n              swap1\n              sstore\n                /* \"Voting.sol\":1540:1557  negativeVoteCount */\n              0x06\n                /* \"Voting.sol\":1533:1557  delete negativeVoteCount */\n              0x00\n              swap1\n              sstore\n                /* \"Voting.sol\":1575:1585  voterCount */\n              0x04\n                /* \"Voting.sol\":1568:1585  delete voterCount */\n              0x00\n              swap1\n              sstore\n                /* \"Voting.sol\":1602:1608  uint i */\n              0x00\n                /* \"Voting.sol\":1598:1763  for(uint i =0; i<individuals.length; i++){... */\n            tag_64:\n                /* \"Voting.sol\":1615:1626  individuals */\n              0x03\n                /* \"Voting.sol\":1615:1633  individuals.length */\n              dup1\n              sload\n              swap1\n              pop\n                /* \"Voting.sol\":1613:1614  i */\n              dup2\n                /* \"Voting.sol\":1613:1633  i<individuals.length */\n              lt\n                /* \"Voting.sol\":1598:1763  for(uint i =0; i<individuals.length; i++){... */\n              iszero\n              tag_65\n              jumpi\n                /* \"Voting.sol\":1682:1686  true */\n              0x01\n                /* \"Voting.sol\":1657:1663  voters */\n              0x02\n                /* \"Voting.sol\":1657:1679  voters[individuals[i]] */\n              0x00\n                /* \"Voting.sol\":1664:1675  individuals */\n              0x03\n                /* \"Voting.sol\":1676:1677  i */\n              dup5\n                /* \"Voting.sol\":1664:1678  individuals[i] */\n              dup2\n              sload\n              dup2\n              lt\n              tag_67\n              jumpi\n              tag_68\n              tag_69\n              jump\t// in\n            tag_68:\n            tag_67:\n              swap1\n              0x00\n              mstore\n              keccak256(0x00, 0x20)\n              add\n              0x00\n              swap1\n              sload\n              swap1\n              0x0100\n              exp\n              swap1\n              div\n              0xffffffffffffffffffffffffffffffffffffffff\n              and\n                /* \"Voting.sol\":1657:1679  voters[individuals[i]] */\n              0xffffffffffffffffffffffffffffffffffffffff\n              and\n              0xffffffffffffffffffffffffffffffffffffffff\n              and\n              dup2\n              mstore\n              0x20\n              add\n              swap1\n              dup2\n              mstore\n              0x20\n              add\n              0x00\n              keccak256\n              0x00\n                /* \"Voting.sol\":1657:1686  voters[individuals[i]] = true */\n              0x0100\n              exp\n              dup2\n              sload\n              dup2\n              0xff\n              mul\n              not\n              and\n              swap1\n              dup4\n              iszero\n              iszero\n              mul\n              or\n              swap1\n              sstore\n                /* \"Voting.sol\":1654:1752  if(voters[individuals[i]] = true){... */\n              iszero\n              tag_71\n              jumpi\n                /* \"Voting.sol\":1731:1736  false */\n              0x00\n                /* \"Voting.sol\":1706:1712  voters */\n              0x02\n                /* \"Voting.sol\":1706:1728  voters[individuals[i]] */\n              0x00\n                /* \"Voting.sol\":1713:1724  individuals */\n              0x03\n                /* \"Voting.sol\":1725:1726  i */\n              dup5\n                /* \"Voting.sol\":1713:1727  individuals[i] */\n              dup2\n              sload\n              dup2\n              lt\n              tag_72\n              jumpi\n              tag_73\n              tag_69\n              jump\t// in\n            tag_73:\n            tag_72:\n              swap1\n              0x00\n              mstore\n              keccak256(0x00, 0x20)\n              add\n              0x00\n              swap1\n              sload\n              swap1\n              0x0100\n              exp\n              swap1\n              div\n              0xffffffffffffffffffffffffffffffffffffffff\n              and\n                /* \"Voting.sol\":1706:1728  voters[individuals[i]] */\n              0xffffffffffffffffffffffffffffffffffffffff\n              and\n              0xffffffffffffffffffffffffffffffffffffffff\n              and\n              dup2\n              mstore\n              0x20\n              add\n              swap1\n              dup2\n              mstore\n              0x20\n              add\n              0x00\n              keccak256\n              0x00\n                /* \"Voting.sol\":1706:1736  voters[individuals[i]] = false */\n              0x0100\n              exp\n              dup2\n              sload\n              dup2\n              0xff\n              mul\n              not\n              and\n              swap1\n              dup4\n              iszero\n              iszero\n              mul\n              or\n              swap1\n              sstore\n              pop\n                /* \"Voting.sol\":1654:1752  if(voters[individuals[i]] = true){... */\n            tag_71:\n                /* \"Voting.sol\":1635:1638  i++ */\n              dup1\n              dup1\n              tag_75\n              swap1\n              tag_61\n              jump\t// in\n            tag_75:\n              swap2\n              pop\n              pop\n                /* \"Voting.sol\":1598:1763  for(uint i =0; i<individuals.length; i++){... */\n              jump(tag_64)\n            tag_65:\n              pop\n                /* \"Voting.sol\":1782:1793  individuals */\n              0x03\n              0x00\n                /* \"Voting.sol\":1775:1793  delete individuals */\n              tag_76\n              swap2\n              swap1\n              tag_77\n              jump\t// in\n            tag_76:\n                /* \"Voting.sol\":1421:1801  function Reset() public{... */\n              jump\t// out\n                /* \"Voting.sol\":575:603  address[] public individuals */\n            tag_31:\n              0x03\n              dup2\n              dup2\n              sload\n              dup2\n              lt\n              tag_78\n              jumpi\n              0x00\n              dup1\n              revert\n            tag_78:\n              swap1\n              0x00\n              mstore\n              keccak256(0x00, 0x20)\n              add\n              0x00\n              swap2\n              pop\n              sload\n              swap1\n              0x0100\n              exp\n              swap1\n              div\n              0xffffffffffffffffffffffffffffffffffffffff\n              and\n              dup2\n              jump\t// out\n                /* \"Voting.sol\":505:523  string public moto */\n            tag_34:\n              0x01\n              dup1\n              sload\n              tag_80\n              swap1\n              tag_81\n              jump\t// in\n            tag_80:\n              dup1\n              0x1f\n              add\n              0x20\n              dup1\n              swap2\n              div\n              mul\n              0x20\n              add\n              mload(0x40)\n              swap1\n              dup2\n              add\n              0x40\n              mstore\n              dup1\n              swap3\n              swap2\n              swap1\n              dup2\n              dup2\n              mstore\n              0x20\n              add\n              dup3\n              dup1\n              sload\n              tag_82\n              swap1\n              tag_81\n              jump\t// in\n            tag_82:\n              dup1\n              iszero\n              tag_83\n              jumpi\n              dup1\n              0x1f\n              lt\n              tag_84\n              jumpi\n              0x0100\n              dup1\n              dup4\n              sload\n              div\n              mul\n              dup4\n              mstore\n              swap2\n              0x20\n              add\n              swap2\n              jump(tag_83)\n            tag_84:\n              dup3\n              add\n              swap2\n              swap1\n              0x00\n              mstore\n              keccak256(0x00, 0x20)\n              swap1\n            tag_85:\n              dup2\n              sload\n              dup2\n              mstore\n              swap1\n              0x01\n              add\n              swap1\n              0x20\n              add\n              dup1\n              dup4\n              gt\n              tag_85\n              jumpi\n              dup3\n              swap1\n              sub\n              0x1f\n              and\n              dup3\n              add\n              swap2\n            tag_83:\n              pop\n              pop\n              pop\n              pop\n              pop\n              dup2\n              jump\t// out\n                /* \"Voting.sol\":1109:1217  function VoteUp() public Required{... */\n            tag_38:\n                /* \"Voting.sol\":752:758  voters */\n              0x02\n                /* \"Voting.sol\":752:770  voters[msg.sender] */\n              0x00\n                /* \"Voting.sol\":759:769  msg.sender */\n              caller\n                /* \"Voting.sol\":752:770  voters[msg.sender] */\n              0xffffffffffffffffffffffffffffffffffffffff\n              and\n              0xffffffffffffffffffffffffffffffffffffffff\n              and\n              dup2\n              mstore\n              0x20\n              add\n              swap1\n              dup2\n              mstore\n              0x20\n              add\n              0x00\n              keccak256\n              0x00\n              swap1\n              sload\n              swap1\n              0x0100\n              exp\n              swap1\n              div\n              0xff\n              and\n                /* \"Voting.sol\":743:771  require (voters[msg.sender]) */\n              tag_87\n              jumpi\n              0x00\n              dup1\n              revert\n            tag_87:\n                /* \"Voting.sol\":1153:1170  positiveVoteCount */\n              0x05\n              0x00\n                /* \"Voting.sol\":1153:1172  positiveVoteCount++ */\n              dup2\n              sload\n              dup1\n              swap3\n              swap2\n              swap1\n              tag_89\n              swap1\n              tag_61\n              jump\t// in\n            tag_89:\n              swap2\n              swap1\n              pop\n              sstore\n              pop\n                /* \"Voting.sol\":1204:1209  false */\n              0x00\n                /* \"Voting.sol\":1183:1189  voters */\n              0x02\n                /* \"Voting.sol\":1183:1201  voters[msg.sender] */\n              0x00\n                /* \"Voting.sol\":1190:1200  msg.sender */\n              caller\n                /* \"Voting.sol\":1183:1201  voters[msg.sender] */\n              0xffffffffffffffffffffffffffffffffffffffff\n              and\n              0xffffffffffffffffffffffffffffffffffffffff\n              and\n              dup2\n              mstore\n              0x20\n              add\n              swap1\n              dup2\n              mstore\n              0x20\n              add\n              0x00\n              keccak256\n              0x00\n                /* \"Voting.sol\":1183:1209  voters[msg.sender] = false */\n              0x0100\n              exp\n              dup2\n              sload\n              dup2\n              0xff\n              mul\n              not\n              and\n              swap1\n              dup4\n              iszero\n              iszero\n              mul\n              or\n              swap1\n              sstore\n              pop\n                /* \"Voting.sol\":1109:1217  function VoteUp() public Required{... */\n              jump\t// out\n                /* \"Voting.sol\":530:568  mapping(address => bool) public voters */\n            tag_42:\n              mstore(0x20, 0x02)\n              dup1\n              0x00\n              mstore\n              keccak256(0x00, 0x40)\n              0x00\n              swap2\n              pop\n              sload\n              swap1\n              0x0100\n              exp\n              swap1\n              div\n              0xff\n              and\n              dup2\n              jump\t// out\n                /* \"Voting.sol\":675:704  uint public negativeVoteCount */\n            tag_46:\n              sload(0x06)\n              dup2\n              jump\t// out\n                /* \"Voting.sol\":1264:1374  function VoteDown() public Required{... */\n            tag_49:\n                /* \"Voting.sol\":752:758  voters */\n              0x02\n                /* \"Voting.sol\":752:770  voters[msg.sender] */\n              0x00\n                /* \"Voting.sol\":759:769  msg.sender */\n              caller\n                /* \"Voting.sol\":752:770  voters[msg.sender] */\n              0xffffffffffffffffffffffffffffffffffffffff\n              and\n              0xffffffffffffffffffffffffffffffffffffffff\n              and\n              dup2\n              mstore\n              0x20\n              add\n              swap1\n              dup2\n              mstore\n              0x20\n              add\n              0x00\n              keccak256\n              0x00\n              swap1\n              sload\n              swap1\n              0x0100\n              exp\n              swap1\n              div\n              0xff\n              and\n                /* \"Voting.sol\":743:771  require (voters[msg.sender]) */\n              tag_91\n              jumpi\n              0x00\n              dup1\n              revert\n            tag_91:\n                /* \"Voting.sol\":1310:1327  negativeVoteCount */\n              0x06\n              0x00\n                /* \"Voting.sol\":1310:1329  negativeVoteCount++ */\n              dup2\n              sload\n              dup1\n              swap3\n              swap2\n              swap1\n              tag_93\n              swap1\n              tag_61\n              jump\t// in\n            tag_93:\n              swap2\n              swap1\n              pop\n              sstore\n              pop\n                /* \"Voting.sol\":1361:1366  false */\n              0x00\n                /* \"Voting.sol\":1340:1346  voters */\n              0x02\n                /* \"Voting.sol\":1340:1358  voters[msg.sender] */\n              0x00\n                /* \"Voting.sol\":1347:1357  msg.sender */\n              caller\n                /* \"Voting.sol\":1340:1358  voters[msg.sender] */\n              0xffffffffffffffffffffffffffffffffffffffff\n              and\n              0xffffffffffffffffffffffffffffffffffffffff\n              and\n              dup2\n              mstore\n              0x20\n              add\n              swap1\n              dup2\n              mstore\n              0x20\n              add\n              0x00\n              keccak256\n              0x00\n                /* \"Voting.sol\":1340:1366  voters[msg.sender] = false */\n              0x0100\n              exp\n              dup2\n              sload\n              dup2\n              0xff\n              mul\n              not\n              and\n              swap1\n              dup4\n              iszero\n              iszero\n              mul\n              or\n              swap1\n              sstore\n              pop\n                /* \"Voting.sol\":1264:1374  function VoteDown() public Required{... */\n              jump\t// out\n                /* \"Voting.sol\":639:668  uint public positiveVoteCount */\n            tag_51:\n              sload(0x05)\n              dup2\n              jump\t// out\n                /* \"Voting.sol\":1862:1962  function getInidviduals() public view returns(address[] memory){... */\n            tag_54:\n                /* \"Voting.sol\":1908:1924  address[] memory */\n              0x60\n                /* \"Voting.sol\":1943:1954  individuals */\n              0x03\n                /* \"Voting.sol\":1936:1954  return individuals */\n              dup1\n              sload\n              dup1\n              0x20\n              mul\n              0x20\n              add\n              mload(0x40)\n              swap1\n              dup2\n              add\n              0x40\n              mstore\n              dup1\n              swap3\n              swap2\n              swap1\n              dup2\n              dup2\n              mstore\n              0x20\n              add\n              dup3\n              dup1\n              sload\n              dup1\n              iszero\n              tag_95\n              jumpi\n              0x20\n              mul\n              dup3\n              add\n              swap2\n              swap1\n              0x00\n              mstore\n              keccak256(0x00, 0x20)\n              swap1\n            tag_96:\n              dup2\n              0x00\n              swap1\n              sload\n              swap1\n              0x0100\n              exp\n              swap1\n              div\n              0xffffffffffffffffffffffffffffffffffffffff\n              and\n              0xffffffffffffffffffffffffffffffffffffffff\n              and\n              dup2\n              mstore\n              0x20\n              add\n              swap1\n              0x01\n              add\n              swap1\n              dup1\n              dup4\n              gt\n              tag_96\n              jumpi\n            tag_95:\n              pop\n              pop\n              pop\n              pop\n              pop\n              swap1\n              pop\n                /* \"Voting.sol\":1862:1962  function getInidviduals() public view returns(address[] memory){... */\n              swap1\n              jump\t// out\n            tag_77:\n              pop\n              dup1\n              sload\n              0x00\n              dup3\n              sstore\n              swap1\n              0x00\n              mstore\n              keccak256(0x00, 0x20)\n              swap1\n              dup2\n              add\n              swap1\n              tag_98\n              swap2\n              swap1\n              tag_99\n              jump\t// in\n            tag_98:\n              pop\n              jump\t// out\n            tag_99:\n            tag_100:\n              dup1\n              dup3\n              gt\n              iszero\n              tag_101\n              jumpi\n              0x00\n              dup2\n              0x00\n              swap1\n              sstore\n              pop\n              0x01\n              add\n              jump(tag_100)\n            tag_101:\n              pop\n              swap1\n              jump\t// out\n                /* \"#utility.yul\":7:84   */\n            tag_102:\n                /* \"#utility.yul\":44:51   */\n              0x00\n                /* \"#utility.yul\":73:78   */\n              dup2\n                /* \"#utility.yul\":62:78   */\n              swap1\n              pop\n                /* \"#utility.yul\":7:84   */\n              swap2\n              swap1\n              pop\n              jump\t// out\n                /* \"#utility.yul\":90:208   */\n            tag_103:\n                /* \"#utility.yul\":177:201   */\n              tag_133\n                /* \"#utility.yul\":195:200   */\n              dup2\n                /* \"#utility.yul\":177:201   */\n              tag_102\n              jump\t// in\n            tag_133:\n                /* \"#utility.yul\":172:175   */\n              dup3\n                /* \"#utility.yul\":165:202   */\n              mstore\n                /* \"#utility.yul\":90:208   */\n              pop\n              pop\n              jump\t// out\n                /* \"#utility.yul\":214:436   */\n            tag_21:\n                /* \"#utility.yul\":307:311   */\n              0x00\n                /* \"#utility.yul\":345:347   */\n              0x20\n                /* \"#utility.yul\":334:343   */\n              dup3\n                /* \"#utility.yul\":330:348   */\n              add\n                /* \"#utility.yul\":322:348   */\n              swap1\n              pop\n                /* \"#utility.yul\":358:429   */\n              tag_135\n                /* \"#utility.yul\":426:427   */\n              0x00\n                /* \"#utility.yul\":415:424   */\n              dup4\n                /* \"#utility.yul\":411:428   */\n              add\n                /* \"#utility.yul\":402:408   */\n              dup5\n                /* \"#utility.yul\":358:429   */\n              tag_103\n              jump\t// in\n            tag_135:\n                /* \"#utility.yul\":214:436   */\n              swap3\n              swap2\n              pop\n              pop\n              jump\t// out\n                /* \"#utility.yul\":442:568   */\n            tag_104:\n                /* \"#utility.yul\":479:486   */\n              0x00\n                /* \"#utility.yul\":519:561   */\n              0xffffffffffffffffffffffffffffffffffffffff\n                /* \"#utility.yul\":512:517   */\n              dup3\n                /* \"#utility.yul\":508:562   */\n              and\n                /* \"#utility.yul\":497:562   */\n              swap1\n              pop\n                /* \"#utility.yul\":442:568   */\n              swap2\n              swap1\n              pop\n              jump\t// out\n                /* \"#utility.yul\":574:670   */\n            tag_105:\n                /* \"#utility.yul\":611:618   */\n              0x00\n                /* \"#utility.yul\":640:664   */\n              tag_138\n                /* \"#utility.yul\":658:663   */\n              dup3\n                /* \"#utility.yul\":640:664   */\n              tag_104\n              jump\t// in\n            tag_138:\n                /* \"#utility.yul\":629:664   */\n              swap1\n              pop\n                /* \"#utility.yul\":574:670   */\n              swap2\n              swap1\n              pop\n              jump\t// out\n                /* \"#utility.yul\":676:794   */\n            tag_106:\n                /* \"#utility.yul\":763:787   */\n              tag_140\n                /* \"#utility.yul\":781:786   */\n              dup2\n                /* \"#utility.yul\":763:787   */\n              tag_105\n              jump\t// in\n            tag_140:\n                /* \"#utility.yul\":758:761   */\n              dup3\n                /* \"#utility.yul\":751:788   */\n              mstore\n                /* \"#utility.yul\":676:794   */\n              pop\n              pop\n              jump\t// out\n                /* \"#utility.yul\":800:1022   */\n            tag_25:\n                /* \"#utility.yul\":893:897   */\n              0x00\n                /* \"#utility.yul\":931:933   */\n              0x20\n                /* \"#utility.yul\":920:929   */\n              dup3\n                /* \"#utility.yul\":916:934   */\n              add\n                /* \"#utility.yul\":908:934   */\n              swap1\n              pop\n                /* \"#utility.yul\":944:1015   */\n              tag_142\n                /* \"#utility.yul\":1012:1013   */\n              0x00\n                /* \"#utility.yul\":1001:1010   */\n              dup4\n                /* \"#utility.yul\":997:1014   */\n              add\n                /* \"#utility.yul\":988:994   */\n              dup5\n                /* \"#utility.yul\":944:1015   */\n              tag_106\n              jump\t// in\n            tag_142:\n                /* \"#utility.yul\":800:1022   */\n              swap3\n              swap2\n              pop\n              pop\n              jump\t// out\n                /* \"#utility.yul\":1109:1226   */\n            tag_108:\n                /* \"#utility.yul\":1218:1219   */\n              0x00\n                /* \"#utility.yul\":1215:1216   */\n              dup1\n                /* \"#utility.yul\":1208:1220   */\n              revert\n                /* \"#utility.yul\":1355:1477   */\n            tag_110:\n                /* \"#utility.yul\":1428:1452   */\n              tag_147\n                /* \"#utility.yul\":1446:1451   */\n              dup2\n                /* \"#utility.yul\":1428:1452   */\n              tag_102\n              jump\t// in\n            tag_147:\n                /* \"#utility.yul\":1421:1426   */\n              dup2\n                /* \"#utility.yul\":1418:1453   */\n              eq\n                /* \"#utility.yul\":1408:1471   */\n              tag_148\n              jumpi\n                /* \"#utility.yul\":1467:1468   */\n              0x00\n                /* \"#utility.yul\":1464:1465   */\n              dup1\n                /* \"#utility.yul\":1457:1469   */\n              revert\n                /* \"#utility.yul\":1408:1471   */\n            tag_148:\n                /* \"#utility.yul\":1355:1477   */\n              pop\n              jump\t// out\n                /* \"#utility.yul\":1483:1622   */\n            tag_111:\n                /* \"#utility.yul\":1529:1534   */\n              0x00\n                /* \"#utility.yul\":1567:1573   */\n              dup2\n                /* \"#utility.yul\":1554:1574   */\n              calldataload\n                /* \"#utility.yul\":1545:1574   */\n              swap1\n              pop\n                /* \"#utility.yul\":1583:1616   */\n              tag_150\n                /* \"#utility.yul\":1610:1615   */\n              dup2\n                /* \"#utility.yul\":1583:1616   */\n              tag_110\n              jump\t// in\n            tag_150:\n                /* \"#utility.yul\":1483:1622   */\n              swap3\n              swap2\n              pop\n              pop\n              jump\t// out\n                /* \"#utility.yul\":1628:1957   */\n            tag_30:\n                /* \"#utility.yul\":1687:1693   */\n              0x00\n                /* \"#utility.yul\":1736:1738   */\n              0x20\n                /* \"#utility.yul\":1724:1733   */\n              dup3\n                /* \"#utility.yul\":1715:1722   */\n              dup5\n                /* \"#utility.yul\":1711:1734   */\n              sub\n                /* \"#utility.yul\":1707:1739   */\n              slt\n                /* \"#utility.yul\":1704:1823   */\n              iszero\n              tag_152\n              jumpi\n                /* \"#utility.yul\":1742:1821   */\n              tag_153\n              tag_108\n              jump\t// in\n            tag_153:\n                /* \"#utility.yul\":1704:1823   */\n            tag_152:\n                /* \"#utility.yul\":1862:1863   */\n              0x00\n                /* \"#utility.yul\":1887:1940   */\n              tag_154\n                /* \"#utility.yul\":1932:1939   */\n              dup5\n                /* \"#utility.yul\":1923:1929   */\n              dup3\n                /* \"#utility.yul\":1912:1921   */\n              dup6\n                /* \"#utility.yul\":1908:1930   */\n              add\n                /* \"#utility.yul\":1887:1940   */\n              tag_111\n              jump\t// in\n            tag_154:\n                /* \"#utility.yul\":1877:1940   */\n              swap2\n              pop\n                /* \"#utility.yul\":1833:1950   */\n              pop\n                /* \"#utility.yul\":1628:1957   */\n              swap3\n              swap2\n              pop\n              pop\n              jump\t// out\n                /* \"#utility.yul\":1963:2062   */\n            tag_112:\n                /* \"#utility.yul\":2015:2021   */\n              0x00\n                /* \"#utility.yul\":2049:2054   */\n              dup2\n                /* \"#utility.yul\":2043:2055   */\n              mload\n                /* \"#utility.yul\":2033:2055   */\n              swap1\n              pop\n                /* \"#utility.yul\":1963:2062   */\n              swap2\n              swap1\n              pop\n              jump\t// out\n                /* \"#utility.yul\":2068:2237   */\n            tag_113:\n                /* \"#utility.yul\":2152:2163   */\n              0x00\n                /* \"#utility.yul\":2186:2192   */\n              dup3\n                /* \"#utility.yul\":2181:2184   */\n              dup3\n                /* \"#utility.yul\":2174:2193   */\n              mstore\n                /* \"#utility.yul\":2226:2230   */\n              0x20\n                /* \"#utility.yul\":2221:2224   */\n              dup3\n                /* \"#utility.yul\":2217:2231   */\n              add\n                /* \"#utility.yul\":2202:2231   */\n              swap1\n              pop\n                /* \"#utility.yul\":2068:2237   */\n              swap3\n              swap2\n              pop\n              pop\n              jump\t// out\n                /* \"#utility.yul\":2243:2489   */\n            tag_114:\n                /* \"#utility.yul\":2324:2325   */\n              0x00\n                /* \"#utility.yul\":2334:2447   */\n            tag_158:\n                /* \"#utility.yul\":2348:2354   */\n              dup4\n                /* \"#utility.yul\":2345:2346   */\n              dup2\n                /* \"#utility.yul\":2342:2355   */\n              lt\n                /* \"#utility.yul\":2334:2447   */\n              iszero\n              tag_160\n              jumpi\n                /* \"#utility.yul\":2433:2434   */\n              dup1\n                /* \"#utility.yul\":2428:2431   */\n              dup3\n                /* \"#utility.yul\":2424:2435   */\n              add\n                /* \"#utility.yul\":2418:2436   */\n              mload\n                /* \"#utility.yul\":2414:2415   */\n              dup2\n                /* \"#utility.yul\":2409:2412   */\n              dup5\n                /* \"#utility.yul\":2405:2416   */\n              add\n                /* \"#utility.yul\":2398:2437   */\n              mstore\n                /* \"#utility.yul\":2370:2372   */\n              0x20\n                /* \"#utility.yul\":2367:2368   */\n              dup2\n                /* \"#utility.yul\":2363:2373   */\n              add\n                /* \"#utility.yul\":2358:2373   */\n              swap1\n              pop\n                /* \"#utility.yul\":2334:2447   */\n              jump(tag_158)\n            tag_160:\n                /* \"#utility.yul\":2481:2482   */\n              0x00\n                /* \"#utility.yul\":2472:2478   */\n              dup5\n                /* \"#utility.yul\":2467:2470   */\n              dup5\n                /* \"#utility.yul\":2463:2479   */\n              add\n                /* \"#utility.yul\":2456:2483   */\n              mstore\n                /* \"#utility.yul\":2305:2489   */\n              pop\n                /* \"#utility.yul\":2243:2489   */\n              pop\n              pop\n              pop\n              jump\t// out\n                /* \"#utility.yul\":2495:2597   */\n            tag_115:\n                /* \"#utility.yul\":2536:2542   */\n              0x00\n                /* \"#utility.yul\":2587:2589   */\n              0x1f\n                /* \"#utility.yul\":2583:2590   */\n              not\n                /* \"#utility.yul\":2578:2580   */\n              0x1f\n                /* \"#utility.yul\":2571:2576   */\n              dup4\n                /* \"#utility.yul\":2567:2581   */\n              add\n                /* \"#utility.yul\":2563:2591   */\n              and\n                /* \"#utility.yul\":2553:2591   */\n              swap1\n              pop\n                /* \"#utility.yul\":2495:2597   */\n              swap2\n              swap1\n              pop\n              jump\t// out\n                /* \"#utility.yul\":2603:2980   */\n            tag_116:\n                /* \"#utility.yul\":2691:2694   */\n              0x00\n                /* \"#utility.yul\":2719:2758   */\n              tag_163\n                /* \"#utility.yul\":2752:2757   */\n              dup3\n                /* \"#utility.yul\":2719:2758   */\n              tag_112\n              jump\t// in\n            tag_163:\n                /* \"#utility.yul\":2774:2845   */\n              tag_164\n                /* \"#utility.yul\":2838:2844   */\n              dup2\n                /* \"#utility.yul\":2833:2836   */\n              dup6\n                /* \"#utility.yul\":2774:2845   */\n              tag_113\n              jump\t// in\n            tag_164:\n                /* \"#utility.yul\":2767:2845   */\n              swap4\n              pop\n                /* \"#utility.yul\":2854:2919   */\n              tag_165\n                /* \"#utility.yul\":2912:2918   */\n              dup2\n                /* \"#utility.yul\":2907:2910   */\n              dup6\n                /* \"#utility.yul\":2900:2904   */\n              0x20\n                /* \"#utility.yul\":2893:2898   */\n              dup7\n                /* \"#utility.yul\":2889:2905   */\n              add\n                /* \"#utility.yul\":2854:2919   */\n              tag_114\n              jump\t// in\n            tag_165:\n                /* \"#utility.yul\":2944:2973   */\n              tag_166\n                /* \"#utility.yul\":2966:2972   */\n              dup2\n                /* \"#utility.yul\":2944:2973   */\n              tag_115\n              jump\t// in\n            tag_166:\n                /* \"#utility.yul\":2939:2942   */\n              dup5\n                /* \"#utility.yul\":2935:2974   */\n              add\n                /* \"#utility.yul\":2928:2974   */\n              swap2\n              pop\n                /* \"#utility.yul\":2695:2980   */\n              pop\n                /* \"#utility.yul\":2603:2980   */\n              swap3\n              swap2\n              pop\n              pop\n              jump\t// out\n                /* \"#utility.yul\":2986:3299   */\n            tag_36:\n                /* \"#utility.yul\":3099:3103   */\n              0x00\n                /* \"#utility.yul\":3137:3139   */\n              0x20\n                /* \"#utility.yul\":3126:3135   */\n              dup3\n                /* \"#utility.yul\":3122:3140   */\n              add\n                /* \"#utility.yul\":3114:3140   */\n              swap1\n              pop\n                /* \"#utility.yul\":3186:3195   */\n              dup2\n                /* \"#utility.yul\":3180:3184   */\n              dup2\n                /* \"#utility.yul\":3176:3196   */\n              sub\n                /* \"#utility.yul\":3172:3173   */\n              0x00\n                /* \"#utility.yul\":3161:3170   */\n              dup4\n                /* \"#utility.yul\":3157:3174   */\n              add\n                /* \"#utility.yul\":3150:3197   */\n              mstore\n                /* \"#utility.yul\":3214:3292   */\n              tag_168\n                /* \"#utility.yul\":3287:3291   */\n              dup2\n                /* \"#utility.yul\":3278:3284   */\n              dup5\n                /* \"#utility.yul\":3214:3292   */\n              tag_116\n              jump\t// in\n            tag_168:\n                /* \"#utility.yul\":3206:3292   */\n              swap1\n              pop\n                /* \"#utility.yul\":2986:3299   */\n              swap3\n              swap2\n              pop\n              pop\n              jump\t// out\n                /* \"#utility.yul\":3305:3427   */\n            tag_117:\n                /* \"#utility.yul\":3378:3402   */\n              tag_170\n                /* \"#utility.yul\":3396:3401   */\n              dup2\n                /* \"#utility.yul\":3378:3402   */\n              tag_105\n              jump\t// in\n            tag_170:\n                /* \"#utility.yul\":3371:3376   */\n              dup2\n                /* \"#utility.yul\":3368:3403   */\n              eq\n                /* \"#utility.yul\":3358:3421   */\n              tag_171\n              jumpi\n                /* \"#utility.yul\":3417:3418   */\n              0x00\n                /* \"#utility.yul\":3414:3415   */\n              dup1\n                /* \"#utility.yul\":3407:3419   */\n              revert\n                /* \"#utility.yul\":3358:3421   */\n            tag_171:\n                /* \"#utility.yul\":3305:3427   */\n              pop\n              jump\t// out\n                /* \"#utility.yul\":3433:3572   */\n            tag_118:\n                /* \"#utility.yul\":3479:3484   */\n              0x00\n                /* \"#utility.yul\":3517:3523   */\n              dup2\n                /* \"#utility.yul\":3504:3524   */\n              calldataload\n                /* \"#utility.yul\":3495:3524   */\n              swap1\n              pop\n                /* \"#utility.yul\":3533:3566   */\n              tag_173\n                /* \"#utility.yul\":3560:3565   */\n              dup2\n                /* \"#utility.yul\":3533:3566   */\n              tag_117\n              jump\t// in\n            tag_173:\n                /* \"#utility.yul\":3433:3572   */\n              swap3\n              swap2\n              pop\n              pop\n              jump\t// out\n                /* \"#utility.yul\":3578:3907   */\n            tag_41:\n                /* \"#utility.yul\":3637:3643   */\n              0x00\n                /* \"#utility.yul\":3686:3688   */\n              0x20\n                /* \"#utility.yul\":3674:3683   */\n              dup3\n                /* \"#utility.yul\":3665:3672   */\n              dup5\n                /* \"#utility.yul\":3661:3684   */\n              sub\n                /* \"#utility.yul\":3657:3689   */\n              slt\n                /* \"#utility.yul\":3654:3773   */\n              iszero\n              tag_175\n              jumpi\n                /* \"#utility.yul\":3692:3771   */\n              tag_176\n              tag_108\n              jump\t// in\n            tag_176:\n                /* \"#utility.yul\":3654:3773   */\n            tag_175:\n                /* \"#utility.yul\":3812:3813   */\n              0x00\n                /* \"#utility.yul\":3837:3890   */\n              tag_177\n                /* \"#utility.yul\":3882:3889   */\n              dup5\n                /* \"#utility.yul\":3873:3879   */\n              dup3\n                /* \"#utility.yul\":3862:3871   */\n              dup6\n                /* \"#utility.yul\":3858:3880   */\n              add\n                /* \"#utility.yul\":3837:3890   */\n              tag_118\n              jump\t// in\n            tag_177:\n                /* \"#utility.yul\":3827:3890   */\n              swap2\n              pop\n                /* \"#utility.yul\":3783:3900   */\n              pop\n                /* \"#utility.yul\":3578:3907   */\n              swap3\n              swap2\n              pop\n              pop\n              jump\t// out\n                /* \"#utility.yul\":3913:4003   */\n            tag_119:\n                /* \"#utility.yul\":3947:3954   */\n              0x00\n                /* \"#utility.yul\":3990:3995   */\n              dup2\n                /* \"#utility.yul\":3983:3996   */\n              iszero\n                /* \"#utility.yul\":3976:3997   */\n              iszero\n                /* \"#utility.yul\":3965:3997   */\n              swap1\n              pop\n                /* \"#utility.yul\":3913:4003   */\n              swap2\n              swap1\n              pop\n              jump\t// out\n                /* \"#utility.yul\":4009:4118   */\n            tag_120:\n                /* \"#utility.yul\":4090:4111   */\n              tag_180\n                /* \"#utility.yul\":4105:4110   */\n              dup2\n                /* \"#utility.yul\":4090:4111   */\n              tag_119\n              jump\t// in\n            tag_180:\n                /* \"#utility.yul\":4085:4088   */\n              dup3\n                /* \"#utility.yul\":4078:4112   */\n              mstore\n                /* \"#utility.yul\":4009:4118   */\n              pop\n              pop\n              jump\t// out\n                /* \"#utility.yul\":4124:4334   */\n            tag_44:\n                /* \"#utility.yul\":4211:4215   */\n              0x00\n                /* \"#utility.yul\":4249:4251   */\n              0x20\n                /* \"#utility.yul\":4238:4247   */\n              dup3\n                /* \"#utility.yul\":4234:4252   */\n              add\n                /* \"#utility.yul\":4226:4252   */\n              swap1\n              pop\n                /* \"#utility.yul\":4262:4327   */\n              tag_182\n                /* \"#utility.yul\":4324:4325   */\n              0x00\n                /* \"#utility.yul\":4313:4322   */\n              dup4\n                /* \"#utility.yul\":4309:4326   */\n              add\n                /* \"#utility.yul\":4300:4306   */\n              dup5\n                /* \"#utility.yul\":4262:4327   */\n              tag_120\n              jump\t// in\n            tag_182:\n                /* \"#utility.yul\":4124:4334   */\n              swap3\n              swap2\n              pop\n              pop\n              jump\t// out\n                /* \"#utility.yul\":4340:4454   */\n            tag_121:\n                /* \"#utility.yul\":4407:4413   */\n              0x00\n                /* \"#utility.yul\":4441:4446   */\n              dup2\n                /* \"#utility.yul\":4435:4447   */\n              mload\n                /* \"#utility.yul\":4425:4447   */\n              swap1\n              pop\n                /* \"#utility.yul\":4340:4454   */\n              swap2\n              swap1\n              pop\n              jump\t// out\n                /* \"#utility.yul\":4460:4644   */\n            tag_122:\n                /* \"#utility.yul\":4559:4570   */\n              0x00\n                /* \"#utility.yul\":4593:4599   */\n              dup3\n                /* \"#utility.yul\":4588:4591   */\n              dup3\n                /* \"#utility.yul\":4581:4600   */\n              mstore\n                /* \"#utility.yul\":4633:4637   */\n              0x20\n                /* \"#utility.yul\":4628:4631   */\n              dup3\n                /* \"#utility.yul\":4624:4638   */\n              add\n                /* \"#utility.yul\":4609:4638   */\n              swap1\n              pop\n                /* \"#utility.yul\":4460:4644   */\n              swap3\n              swap2\n              pop\n              pop\n              jump\t// out\n                /* \"#utility.yul\":4650:4782   */\n            tag_123:\n                /* \"#utility.yul\":4717:4721   */\n              0x00\n                /* \"#utility.yul\":4740:4743   */\n              dup2\n                /* \"#utility.yul\":4732:4743   */\n              swap1\n              pop\n                /* \"#utility.yul\":4770:4774   */\n              0x20\n                /* \"#utility.yul\":4765:4768   */\n              dup3\n                /* \"#utility.yul\":4761:4775   */\n              add\n                /* \"#utility.yul\":4753:4775   */\n              swap1\n              pop\n                /* \"#utility.yul\":4650:4782   */\n              swap2\n              swap1\n              pop\n              jump\t// out\n                /* \"#utility.yul\":4788:4896   */\n            tag_124:\n                /* \"#utility.yul\":4865:4889   */\n              tag_187\n                /* \"#utility.yul\":4883:4888   */\n              dup2\n                /* \"#utility.yul\":4865:4889   */\n              tag_105\n              jump\t// in\n            tag_187:\n                /* \"#utility.yul\":4860:4863   */\n              dup3\n                /* \"#utility.yul\":4853:4890   */\n              mstore\n                /* \"#utility.yul\":4788:4896   */\n              pop\n              pop\n              jump\t// out\n                /* \"#utility.yul\":4902:5081   */\n            tag_125:\n                /* \"#utility.yul\":4971:4981   */\n              0x00\n                /* \"#utility.yul\":4992:5038   */\n              tag_189\n                /* \"#utility.yul\":5034:5037   */\n              dup4\n                /* \"#utility.yul\":5026:5032   */\n              dup4\n                /* \"#utility.yul\":4992:5038   */\n              tag_124\n              jump\t// in\n            tag_189:\n                /* \"#utility.yul\":5070:5074   */\n              0x20\n                /* \"#utility.yul\":5065:5068   */\n              dup4\n                /* \"#utility.yul\":5061:5075   */\n              add\n                /* \"#utility.yul\":5047:5075   */\n              swap1\n              pop\n                /* \"#utility.yul\":4902:5081   */\n              swap3\n              swap2\n              pop\n              pop\n              jump\t// out\n                /* \"#utility.yul\":5087:5200   */\n            tag_126:\n                /* \"#utility.yul\":5157:5161   */\n              0x00\n                /* \"#utility.yul\":5189:5193   */\n              0x20\n                /* \"#utility.yul\":5184:5187   */\n              dup3\n                /* \"#utility.yul\":5180:5194   */\n              add\n                /* \"#utility.yul\":5172:5194   */\n              swap1\n              pop\n                /* \"#utility.yul\":5087:5200   */\n              swap2\n              swap1\n              pop\n              jump\t// out\n                /* \"#utility.yul\":5236:5968   */\n            tag_127:\n                /* \"#utility.yul\":5355:5358   */\n              0x00\n                /* \"#utility.yul\":5384:5438   */\n              tag_192\n                /* \"#utility.yul\":5432:5437   */\n              dup3\n                /* \"#utility.yul\":5384:5438   */\n              tag_121\n              jump\t// in\n            tag_192:\n                /* \"#utility.yul\":5454:5540   */\n              tag_193\n                /* \"#utility.yul\":5533:5539   */\n              dup2\n                /* \"#utility.yul\":5528:5531   */\n              dup6\n                /* \"#utility.yul\":5454:5540   */\n              tag_122\n              jump\t// in\n            tag_193:\n                /* \"#utility.yul\":5447:5540   */\n              swap4\n              pop\n                /* \"#utility.yul\":5564:5620   */\n              tag_194\n                /* \"#utility.yul\":5614:5619   */\n              dup4\n                /* \"#utility.yul\":5564:5620   */\n              tag_123\n              jump\t// in\n            tag_194:\n                /* \"#utility.yul\":5643:5650   */\n              dup1\n                /* \"#utility.yul\":5674:5675   */\n              0x00\n                /* \"#utility.yul\":5659:5943   */\n            tag_195:\n                /* \"#utility.yul\":5684:5690   */\n              dup4\n                /* \"#utility.yul\":5681:5682   */\n              dup2\n                /* \"#utility.yul\":5678:5691   */\n              lt\n                /* \"#utility.yul\":5659:5943   */\n              iszero\n              tag_197\n              jumpi\n                /* \"#utility.yul\":5760:5766   */\n              dup2\n                /* \"#utility.yul\":5754:5767   */\n              mload\n                /* \"#utility.yul\":5787:5850   */\n              tag_198\n                /* \"#utility.yul\":5846:5849   */\n              dup9\n                /* \"#utility.yul\":5831:5844   */\n              dup3\n                /* \"#utility.yul\":5787:5850   */\n              tag_125\n              jump\t// in\n            tag_198:\n                /* \"#utility.yul\":5780:5850   */\n              swap8\n              pop\n                /* \"#utility.yul\":5873:5933   */\n              tag_199\n                /* \"#utility.yul\":5926:5932   */\n              dup4\n                /* \"#utility.yul\":5873:5933   */\n              tag_126\n              jump\t// in\n            tag_199:\n                /* \"#utility.yul\":5863:5933   */\n              swap3\n              pop\n                /* \"#utility.yul\":5719:5943   */\n              pop\n                /* \"#utility.yul\":5706:5707   */\n              0x01\n                /* \"#utility.yul\":5703:5704   */\n              dup2\n                /* \"#utility.yul\":5699:5708   */\n              add\n                /* \"#utility.yul\":5694:5708   */\n              swap1\n              pop\n                /* \"#utility.yul\":5659:5943   */\n              jump(tag_195)\n            tag_197:\n                /* \"#utility.yul\":5663:5677   */\n              pop\n                /* \"#utility.yul\":5959:5962   */\n              dup6\n                /* \"#utility.yul\":5952:5962   */\n              swap4\n              pop\n                /* \"#utility.yul\":5360:5968   */\n              pop\n              pop\n              pop\n                /* \"#utility.yul\":5236:5968   */\n              swap3\n              swap2\n              pop\n              pop\n              jump\t// out\n                /* \"#utility.yul\":5974:6347   */\n            tag_56:\n                /* \"#utility.yul\":6117:6121   */\n              0x00\n                /* \"#utility.yul\":6155:6157   */\n              0x20\n                /* \"#utility.yul\":6144:6153   */\n              dup3\n                /* \"#utility.yul\":6140:6158   */\n              add\n                /* \"#utility.yul\":6132:6158   */\n              swap1\n              pop\n                /* \"#utility.yul\":6204:6213   */\n              dup2\n                /* \"#utility.yul\":6198:6202   */\n              dup2\n                /* \"#utility.yul\":6194:6214   */\n              sub\n                /* \"#utility.yul\":6190:6191   */\n              0x00\n                /* \"#utility.yul\":6179:6188   */\n              dup4\n                /* \"#utility.yul\":6175:6192   */\n              add\n                /* \"#utility.yul\":6168:6215   */\n              mstore\n                /* \"#utility.yul\":6232:6340   */\n              tag_201\n                /* \"#utility.yul\":6335:6339   */\n              dup2\n                /* \"#utility.yul\":6326:6332   */\n              dup5\n                /* \"#utility.yul\":6232:6340   */\n              tag_127\n              jump\t// in\n            tag_201:\n                /* \"#utility.yul\":6224:6340   */\n              swap1\n              pop\n                /* \"#utility.yul\":5974:6347   */\n              swap3\n              swap2\n              pop\n              pop\n              jump\t// out\n                /* \"#utility.yul\":6353:6533   */\n            tag_128:\n                /* \"#utility.yul\":6401:6478   */\n              0x4e487b7100000000000000000000000000000000000000000000000000000000\n                /* \"#utility.yul\":6398:6399   */\n              0x00\n                /* \"#utility.yul\":6391:6479   */\n              mstore\n                /* \"#utility.yul\":6498:6502   */\n              0x11\n                /* \"#utility.yul\":6495:6496   */\n              0x04\n                /* \"#utility.yul\":6488:6503   */\n              mstore\n                /* \"#utility.yul\":6522:6526   */\n              0x24\n                /* \"#utility.yul\":6519:6520   */\n              0x00\n                /* \"#utility.yul\":6512:6527   */\n              revert\n                /* \"#utility.yul\":6539:6772   */\n            tag_61:\n                /* \"#utility.yul\":6578:6581   */\n              0x00\n                /* \"#utility.yul\":6601:6625   */\n              tag_204\n                /* \"#utility.yul\":6619:6624   */\n              dup3\n                /* \"#utility.yul\":6601:6625   */\n              tag_102\n              jump\t// in\n            tag_204:\n                /* \"#utility.yul\":6592:6625   */\n              swap2\n              pop\n                /* \"#utility.yul\":6647:6713   */\n              0xffffffffffffffffffffffffffffffffffffffffffffffffffffffffffffffff\n                /* \"#utility.yul\":6640:6645   */\n              dup3\n                /* \"#utility.yul\":6637:6714   */\n              sub\n                /* \"#utility.yul\":6634:6737   */\n              tag_205\n              jumpi\n                /* \"#utility.yul\":6717:6735   */\n              tag_206\n              tag_128\n              jump\t// in\n            tag_206:\n                /* \"#utility.yul\":6634:6737   */\n            tag_205:\n                /* \"#utility.yul\":6764:6765   */\n              0x01\n                /* \"#utility.yul\":6757:6762   */\n              dup3\n                /* \"#utility.yul\":6753:6766   */\n              add\n                /* \"#utility.yul\":6746:6766   */\n              swap1\n              pop\n                /* \"#utility.yul\":6539:6772   */\n              swap2\n              swap1\n              pop\n              jump\t// out\n                /* \"#utility.yul\":6778:6958   */\n            tag_69:\n                /* \"#utility.yul\":6826:6903   */\n              0x4e487b7100000000000000000000000000000000000000000000000000000000\n                /* \"#utility.yul\":6823:6824   */\n              0x00\n                /* \"#utility.yul\":6816:6904   */\n              mstore\n                /* \"#utility.yul\":6923:6927   */\n              0x32\n                /* \"#utility.yul\":6920:6921   */\n              0x04\n                /* \"#utility.yul\":6913:6928   */\n              mstore\n                /* \"#utility.yul\":6947:6951   */\n              0x24\n                /* \"#utility.yul\":6944:6945   */\n              0x00\n                /* \"#utility.yul\":6937:6952   */\n              revert\n                /* \"#utility.yul\":6964:7144   */\n            tag_129:\n                /* \"#utility.yul\":7012:7089   */\n              0x4e487b7100000000000000000000000000000000000000000000000000000000\n                /* \"#utility.yul\":7009:7010   */\n              0x00\n                /* \"#utility.yul\":7002:7090   */\n              mstore\n                /* \"#utility.yul\":7109:7113   */\n              0x22\n                /* \"#utility.yul\":7106:7107   */\n              0x04\n                /* \"#utility.yul\":7099:7114   */\n              mstore\n                /* \"#utility.yul\":7133:7137   */\n              0x24\n                /* \"#utility.yul\":7130:7131   */\n              0x00\n                /* \"#utility.yul\":7123:7138   */\n              revert\n                /* \"#utility.yul\":7150:7470   */\n            tag_81:\n                /* \"#utility.yul\":7194:7200   */\n              0x00\n                /* \"#utility.yul\":7231:7232   */\n              0x02\n                /* \"#utility.yul\":7225:7229   */\n              dup3\n                /* \"#utility.yul\":7221:7233   */\n              div\n                /* \"#utility.yul\":7211:7233   */\n              swap1\n              pop\n                /* \"#utility.yul\":7278:7279   */\n              0x01\n                /* \"#utility.yul\":7272:7276   */\n              dup3\n                /* \"#utility.yul\":7268:7280   */\n              and\n                /* \"#utility.yul\":7299:7317   */\n              dup1\n                /* \"#utility.yul\":7289:7370   */\n              tag_210\n              jumpi\n                /* \"#utility.yul\":7355:7359   */\n              0x7f\n                /* \"#utility.yul\":7347:7353   */\n              dup3\n                /* \"#utility.yul\":7343:7360   */\n              and\n                /* \"#utility.yul\":7333:7360   */\n              swap2\n              pop\n                /* \"#utility.yul\":7289:7370   */\n            tag_210:\n                /* \"#utility.yul\":7417:7419   */\n              0x20\n                /* \"#utility.yul\":7409:7415   */\n              dup3\n                /* \"#utility.yul\":7406:7420   */\n              lt\n                /* \"#utility.yul\":7386:7404   */\n              dup2\n                /* \"#utility.yul\":7383:7421   */\n              sub\n                /* \"#utility.yul\":7380:7464   */\n              tag_211\n              jumpi\n                /* \"#utility.yul\":7436:7454   */\n              tag_212\n              tag_129\n              jump\t// in\n            tag_212:\n                /* \"#utility.yul\":7380:7464   */\n            tag_211:\n                /* \"#utility.yul\":7201:7470   */\n              pop\n                /* \"#utility.yul\":7150:7470   */\n              swap2\n              swap1\n              pop\n              jump\t// out\n\n            auxdata: 0xa2646970667358221220988788b6cc2c5c622b00e2a309d2bdce7e62b50b034e922af76ddde4fdb6cad064736f6c63430008130033\n        }\n    }\n\n    auxdata: 0xa2646970667358221220646a9cd871fbe4d23a646846a79716f5917e2f4baeebed11697590245cb7b2f864736f6c63430008130033\n}\n","bytecode":{"linkReferences":{},"object":"608060405234801561001057600080fd5b506119d2806100206000396000f3fe60806040523480156200001157600080fd5b5060043610620000465760003560e01c8063336bec97146200004b57806374a9ced9146200008157806398460be714620000a1575b600080fd5b62000069600480360381019062000063919062000296565b620000c3565b6040516200007891906200030d565b60405180910390f35b6200009f60048036038101906200009991906200048c565b62000103565b005b620000ab620001a9565b604051620000ba9190620005ab565b60405180910390f35b60008181548110620000d457600080fd5b906000526020600020016000915054906101000a900473ffffffffffffffffffffffffffffffffffffffff1681565b60008133604051620001159062000239565b620001229291906200067d565b604051809103906000f0801580156200013f573d6000803e3d6000fd5b5090506000819080600181540180825580915050600190039060005260206000200160009091909190916101000a81548173ffffffffffffffffffffffffffffffffffffffff021916908373ffffffffffffffffffffffffffffffffffffffff1602179055505050565b606060008054806020026020016040519081016040528092919081815260200182805480156200022f57602002820191906000526020600020905b8160009054906101000a900473ffffffffffffffffffffffffffffffffffffffff1673ffffffffffffffffffffffffffffffffffffffff1681526020019060010190808311620001e4575b5050505050905090565b6112eb80620006b283390190565b6000604051905090565b600080fd5b600080fd5b6000819050919050565b62000270816200025b565b81146200027c57600080fd5b50565b600081359050620002908162000265565b92915050565b600060208284031215620002af57620002ae62000251565b5b6000620002bf848285016200027f565b91505092915050565b600073ffffffffffffffffffffffffffffffffffffffff82169050919050565b6000620002f582620002c8565b9050919050565b6200030781620002e8565b82525050565b6000602082019050620003246000830184620002fc565b92915050565b600080fd5b600080fd5b6000601f19601f8301169050919050565b7f4e487b7100000000000000000000000000000000000000000000000000000000600052604160045260246000fd5b6200037f8262000334565b810181811067ffffffffffffffff82111715620003a157620003a062000345565b5b80604052505050565b6000620003b662000247565b9050620003c4828262000374565b919050565b600067ffffffffffffffff821115620003e757620003e662000345565b5b620003f28262000334565b9050602081019050919050565b82818337600083830152505050565b6000620004256200041f84620003c9565b620003aa565b9050828152602081018484840111156200044457620004436200032f565b5b62000451848285620003ff565b509392505050565b600082601f8301126200047157620004706200032a565b5b8135620004838482602086016200040e565b91505092915050565b600060208284031215620004a557620004a462000251565b5b600082013567ffffffffffffffff811115620004c657620004c562000256565b5b620004d48482850162000459565b91505092915050565b600081519050919050565b600082825260208201905092915050565b6000819050602082019050919050565b6200051481620002e8565b82525050565b600062000528838362000509565b60208301905092915050565b6000602082019050919050565b60006200054e82620004dd565b6200055a8185620004e8565b93506200056783620004f9565b8060005b838110156200059e5781516200058288826200051a565b97506200058f8362000534565b9250506001810190506200056b565b5085935050505092915050565b60006020820190508181036000830152620005c7818462000541565b905092915050565b600081519050919050565b600082825260208201905092915050565b60005b838110156200060b578082015181840152602081019050620005ee565b60008484015250505050565b60006200062482620005cf565b620006308185620005da565b935062000642818560208601620005eb565b6200064d8162000334565b840191505092915050565b60006200066582620002c8565b9050919050565b620006778162000658565b82525050565b6000604082019050818103600083015262000699818562000617565b9050620006aa60208301846200066c565b939250505056fe60806040523480156200001157600080fd5b50604051620012eb380380620012eb833981810160405281019062000037919062000289565b81600190816200004891906200053a565b50806000806101000a81548173ffffffffffffffffffffffffffffffffffffffff021916908373ffffffffffffffffffffffffffffffffffffffff160217905550505062000621565b6000604051905090565b600080fd5b600080fd5b600080fd5b600080fd5b6000601f19601f8301169050919050565b7f4e487b7100000000000000000000000000000000000000000000000000000000600052604160045260246000fd5b620000fa82620000af565b810181811067ffffffffffffffff821117156200011c576200011b620000c0565b5b80604052505050565b60006200013162000091565b90506200013f8282620000ef565b919050565b600067ffffffffffffffff821115620001625762000161620000c0565b5b6200016d82620000af565b9050602081019050919050565b60005b838110156200019a5780820151818401526020810190506200017d565b60008484015250505050565b6000620001bd620001b78462000144565b62000125565b905082815260208101848484011115620001dc57620001db620000aa565b5b620001e98482856200017a565b509392505050565b600082601f830112620002095762000208620000a5565b5b81516200021b848260208601620001a6565b91505092915050565b600073ffffffffffffffffffffffffffffffffffffffff82169050919050565b6000620002518262000224565b9050919050565b620002638162000244565b81146200026f57600080fd5b50565b600081519050620002838162000258565b92915050565b60008060408385031215620002a357620002a26200009b565b5b600083015167ffffffffffffffff811115620002c457620002c3620000a0565b5b620002d285828601620001f1565b9250506020620002e58582860162000272565b9150509250929050565b600081519050919050565b7f4e487b7100000000000000000000000000000000000000000000000000000000600052602260045260246000fd5b600060028204905060018216806200034257607f821691505b602082108103620003585762000357620002fa565b5b50919050565b60008190508160005260206000209050919050565b60006020601f8301049050919050565b600082821b905092915050565b600060088302620003c27fffffffffffffffffffffffffffffffffffffffffffffffffffffffffffffffff8262000383565b620003ce868362000383565b95508019841693508086168417925050509392505050565b6000819050919050565b6000819050919050565b60006200041b620004156200040f84620003e6565b620003f0565b620003e6565b9050919050565b6000819050919050565b6200043783620003fa565b6200044f620004468262000422565b84845462000390565b825550505050565b600090565b6200046662000457565b620004738184846200042c565b505050565b5b818110156200049b576200048f6000826200045c565b60018101905062000479565b5050565b601f821115620004ea57620004b4816200035e565b620004bf8462000373565b81016020851015620004cf578190505b620004e7620004de8562000373565b83018262000478565b50505b505050565b600082821c905092915050565b60006200050f60001984600802620004ef565b1980831691505092915050565b60006200052a8383620004fc565b9150826002028217905092915050565b6200054582620002ef565b67ffffffffffffffff811115620005615762000560620000c0565b5b6200056d825462000329565b6200057a8282856200049f565b600060209050601f831160018114620005b257600084156200059d578287015190505b620005a985826200051c565b86555062000619565b601f198416620005c2866200035e565b60005b82811015620005ec57848901518255600182019150602085019450602081019050620005c5565b868310156200060c578489015162000608601f891682620004fc565b8355505b6001600288020188555050505b505050505050565b610cba80620006316000396000f3fe608060405234801561001057600080fd5b50600436106100b45760003560e01c80637317ea29116100715780637317ea2914610157578063a3ec138d14610161578063a7acbb2b14610191578063b78662e7146101af578063e3f7db6e146101b9578063fc3cf018146101d7576100b4565b806319e5bf3a146100b957806342169e48146100c3578063481c6a75146100e15780636423db34146100ff57806366542aa71461010957806368e2a8e414610139575b600080fd5b6100c16101f5565b005b6100cb610321565b6040516100d89190610888565b60405180910390f35b6100e9610327565b6040516100f691906108e4565b60405180910390f35b61010761034b565b005b610123600480360381019061011e9190610930565b61051a565b60405161013091906108e4565b60405180910390f35b610141610559565b60405161014e91906109ed565b60405180910390f35b61015f6105e7565b005b61017b60048036038101906101769190610a3b565b6106af565b6040516101889190610a83565b60405180910390f35b6101996106cf565b6040516101a69190610888565b60405180910390f35b6101b76106d5565b005b6101c161079d565b6040516101ce9190610888565b60405180910390f35b6101df6107a3565b6040516101ec9190610b5c565b60405180910390f35b600260003373ffffffffffffffffffffffffffffffffffffffff1673ffffffffffffffffffffffffffffffffffffffff16815260200190815260200160002060009054906101000a900460ff161561024c57600080fd5b6003339080600181540180825580915050600190039060005260206000200160009091909190916101000a81548173ffffffffffffffffffffffffffffffffffffffff021916908373ffffffffffffffffffffffffffffffffffffffff1602179055506001600260003373ffffffffffffffffffffffffffffffffffffffff1673ffffffffffffffffffffffffffffffffffffffff16815260200190815260200160002060006101000a81548160ff0219169083151502179055506004600081548092919061031a90610bad565b9190505550565b60045481565b60008054906101000a900473ffffffffffffffffffffffffffffffffffffffff1681565b60008054906101000a900473ffffffffffffffffffffffffffffffffffffffff1673ffffffffffffffffffffffffffffffffffffffff163373ffffffffffffffffffffffffffffffffffffffff16146103a357600080fd5b60056000905560066000905560046000905560005b60038054905081101561050957600160026000600384815481106103df576103de610bf5565b5b9060005260206000200160009054906101000a900473ffffffffffffffffffffffffffffffffffffffff1673ffffffffffffffffffffffffffffffffffffffff1673ffffffffffffffffffffffffffffffffffffffff16815260200190815260200160002060006101000a81548160ff0219169083151502179055156104f6576000600260006003848154811061047957610478610bf5565b5b9060005260206000200160009054906101000a900473ffffffffffffffffffffffffffffffffffffffff1673ffffffffffffffffffffffffffffffffffffffff1673ffffffffffffffffffffffffffffffffffffffff16815260200190815260200160002060006101000a81548160ff0219169083151502179055505b808061050190610bad565b9150506103b8565b50600360006105189190610831565b565b6003818154811061052a57600080fd5b906000526020600020016000915054906101000a900473ffffffffffffffffffffffffffffffffffffffff1681565b6001805461056690610c53565b80601f016020809104026020016040519081016040528092919081815260200182805461059290610c53565b80156105df5780601f106105b4576101008083540402835291602001916105df565b820191906000526020600020905b8154815290600101906020018083116105c257829003601f168201915b505050505081565b600260003373ffffffffffffffffffffffffffffffffffffffff1673ffffffffffffffffffffffffffffffffffffffff16815260200190815260200160002060009054906101000a900460ff1661063d57600080fd5b6005600081548092919061065090610bad565b91905055506000600260003373ffffffffffffffffffffffffffffffffffffffff1673ffffffffffffffffffffffffffffffffffffffff16815260200190815260200160002060006101000a81548160ff021916908315150217905550565b60026020528060005260406000206000915054906101000a900460ff1681565b60065481565b600260003373ffffffffffffffffffffffffffffffffffffffff1673ffffffffffffffffffffffffffffffffffffffff16815260200190815260200160002060009054906101000a900460ff1661072b57600080fd5b6006600081548092919061073e90610bad565b91905055506000600260003373ffffffffffffffffffffffffffffffffffffffff1673ffffffffffffffffffffffffffffffffffffffff16815260200190815260200160002060006101000a81548160ff021916908315150217905550565b60055481565b6060600380548060200260200160405190810160405280929190818152602001828054801561082757602002820191906000526020600020905b8160009054906101000a900473ffffffffffffffffffffffffffffffffffffffff1673ffffffffffffffffffffffffffffffffffffffff16815260200190600101908083116107dd575b5050505050905090565b508054600082559060005260206000209081019061084f9190610852565b50565b5b8082111561086b576000816000905550600101610853565b5090565b6000819050919050565b6108828161086f565b82525050565b600060208201905061089d6000830184610879565b92915050565b600073ffffffffffffffffffffffffffffffffffffffff82169050919050565b60006108ce826108a3565b9050919050565b6108de816108c3565b82525050565b60006020820190506108f960008301846108d5565b92915050565b600080fd5b61090d8161086f565b811461091857600080fd5b50565b60008135905061092a81610904565b92915050565b600060208284031215610946576109456108ff565b5b60006109548482850161091b565b91505092915050565b600081519050919050565b600082825260208201905092915050565b60005b8381101561099757808201518184015260208101905061097c565b60008484015250505050565b6000601f19601f8301169050919050565b60006109bf8261095d565b6109c98185610968565b93506109d9818560208601610979565b6109e2816109a3565b840191505092915050565b60006020820190508181036000830152610a0781846109b4565b905092915050565b610a18816108c3565b8114610a2357600080fd5b50565b600081359050610a3581610a0f565b92915050565b600060208284031215610a5157610a506108ff565b5b6000610a5f84828501610a26565b91505092915050565b60008115159050919050565b610a7d81610a68565b82525050565b6000602082019050610a986000830184610a74565b92915050565b600081519050919050565b600082825260208201905092915050565b6000819050602082019050919050565b610ad3816108c3565b82525050565b6000610ae58383610aca565b60208301905092915050565b6000602082019050919050565b6000610b0982610a9e565b610b138185610aa9565b9350610b1e83610aba565b8060005b83811015610b4f578151610b368882610ad9565b9750610b4183610af1565b925050600181019050610b22565b5085935050505092915050565b60006020820190508181036000830152610b768184610afe565b905092915050565b7f4e487b7100000000000000000000000000000000000000000000000000000000600052601160045260246000fd5b6000610bb88261086f565b91507fffffffffffffffffffffffffffffffffffffffffffffffffffffffffffffffff8203610bea57610be9610b7e565b5b600182019050919050565b7f4e487b7100000000000000000000000000000000000000000000000000000000600052603260045260246000fd5b7f4e487b7100000000000000000000000000000000000000000000000000000000600052602260045260246000fd5b60006002820490506001821680610c6b57607f821691505b602082108103610c7e57610c7d610c24565b5b5091905056fea2646970667358221220988788b6cc2c5c622b00e2a309d2bdce7e62b50b034e922af76ddde4fdb6cad064736f6c63430008130033a2646970667358221220646a9cd871fbe4d23a646846a79716f5917e2f4baeebed11697590245cb7b2f864736f6c63430008130033","opcodes":"PUSH1 0x80 PUSH1 0x40 MSTORE CALLVALUE DUP1 ISZERO PUSH2 0x10 JUMPI PUSH1 0x0 DUP1 REVERT JUMPDEST POP PUSH2 0x19D2 DUP1 PUSH2 0x20 PUSH1 0x0 CODECOPY PUSH1 0x0 RETURN INVALID PUSH1 0x80 PUSH1 0x40 MSTORE CALLVALUE DUP1 ISZERO PUSH3 0x11 JUMPI PUSH1 0x0 DUP1 REVERT JUMPDEST POP PUSH1 0x4 CALLDATASIZE LT PUSH3 0x46 JUMPI PUSH1 0x0 CALLDATALOAD PUSH1 0xE0 SHR DUP1 PUSH4 0x336BEC97 EQ PUSH3 0x4B JUMPI DUP1 PUSH4 0x74A9CED9 EQ PUSH3 0x81 JUMPI DUP1 PUSH4 0x98460BE7 EQ PUSH3 0xA1 JUMPI JUMPDEST PUSH1 0x0 DUP1 REVERT JUMPDEST PUSH3 0x69 PUSH1 0x4 DUP1 CALLDATASIZE SUB DUP2 ADD SWAP1 PUSH3 0x63 SWAP2 SWAP1 PUSH3 0x296 JUMP JUMPDEST PUSH3 0xC3 JUMP JUMPDEST PUSH1 0x40 MLOAD PUSH3 0x78 SWAP2 SWAP1 PUSH3 0x30D JUMP JUMPDEST PUSH1 0x40 MLOAD DUP1 SWAP2 SUB SWAP1 RETURN JUMPDEST PUSH3 0x9F PUSH1 0x4 DUP1 CALLDATASIZE SUB DUP2 ADD SWAP1 PUSH3 0x99 SWAP2 SWAP1 PUSH3 0x48C JUMP JUMPDEST PUSH3 0x103 JUMP JUMPDEST STOP JUMPDEST PUSH3 0xAB PUSH3 0x1A9 JUMP JUMPDEST PUSH1 0x40 MLOAD PUSH3 0xBA SWAP2 SWAP1 PUSH3 0x5AB JUMP JUMPDEST PUSH1 0x40 MLOAD DUP1 SWAP2 SUB SWAP1 RETURN JUMPDEST PUSH1 0x0 DUP2 DUP2 SLOAD DUP2 LT PUSH3 0xD4 JUMPI PUSH1 0x0 DUP1 REVERT JUMPDEST SWAP1 PUSH1 0x0 MSTORE PUSH1 0x20 PUSH1 0x0 KECCAK256 ADD PUSH1 0x0 SWAP2 POP SLOAD SWAP1 PUSH2 0x100 EXP SWAP1 DIV PUSH20 0xFFFFFFFFFFFFFFFFFFFFFFFFFFFFFFFFFFFFFFFF AND DUP2 JUMP JUMPDEST PUSH1 0x0 DUP2 CALLER PUSH1 0x40 MLOAD PUSH3 0x115 SWAP1 PUSH3 0x239 JUMP JUMPDEST PUSH3 0x122 SWAP3 SWAP2 SWAP1 PUSH3 0x67D JUMP JUMPDEST PUSH1 0x40 MLOAD DUP1 SWAP2 SUB SWAP1 PUSH1 0x0 CREATE DUP1 ISZERO DUP1 ISZERO PUSH3 0x13F JUMPI RETURNDATASIZE PUSH1 0x0 DUP1 RETURNDATACOPY RETURNDATASIZE PUSH1 0x0 REVERT JUMPDEST POP SWAP1 POP PUSH1 0x0 DUP2 SWAP1 DUP1 PUSH1 0x1 DUP2 SLOAD ADD DUP1 DUP3 SSTORE DUP1 SWAP2 POP POP PUSH1 0x1 SWAP1 SUB SWAP1 PUSH1 0x0 MSTORE PUSH1 0x20 PUSH1 0x0 KECCAK256 ADD PUSH1 0x0 SWAP1 SWAP2 SWAP1 SWAP2 SWAP1 SWAP2 PUSH2 0x100 EXP DUP2 SLOAD DUP2 PUSH20 0xFFFFFFFFFFFFFFFFFFFFFFFFFFFFFFFFFFFFFFFF MUL NOT AND SWAP1 DUP4 PUSH20 0xFFFFFFFFFFFFFFFFFFFFFFFFFFFFFFFFFFFFFFFF AND MUL OR SWAP1 SSTORE POP POP POP JUMP JUMPDEST PUSH1 0x60 PUSH1 0x0 DUP1 SLOAD DUP1 PUSH1 0x20 MUL PUSH1 0x20 ADD PUSH1 0x40 MLOAD SWAP1 DUP2 ADD PUSH1 0x40 MSTORE DUP1 SWAP3 SWAP2 SWAP1 DUP2 DUP2 MSTORE PUSH1 0x20 ADD DUP3 DUP1 SLOAD DUP1 ISZERO PUSH3 0x22F JUMPI PUSH1 0x20 MUL DUP3 ADD SWAP2 SWAP1 PUSH1 0x0 MSTORE PUSH1 0x20 PUSH1 0x0 KECCAK256 SWAP1 JUMPDEST DUP2 PUSH1 0x0 SWAP1 SLOAD SWAP1 PUSH2 0x100 EXP SWAP1 DIV PUSH20 0xFFFFFFFFFFFFFFFFFFFFFFFFFFFFFFFFFFFFFFFF AND PUSH20 0xFFFFFFFFFFFFFFFFFFFFFFFFFFFFFFFFFFFFFFFF AND DUP2 MSTORE PUSH1 0x20 ADD SWAP1 PUSH1 0x1 ADD SWAP1 DUP1 DUP4 GT PUSH3 0x1E4 JUMPI JUMPDEST POP POP POP POP POP SWAP1 POP SWAP1 JUMP JUMPDEST PUSH2 0x12EB DUP1 PUSH3 0x6B2 DUP4 CODECOPY ADD SWAP1 JUMP JUMPDEST PUSH1 0x0 PUSH1 0x40 MLOAD SWAP1 POP SWAP1 JUMP JUMPDEST PUSH1 0x0 DUP1 REVERT JUMPDEST PUSH1 0x0 DUP1 REVERT JUMPDEST PUSH1 0x0 DUP2 SWAP1 POP SWAP2 SWAP1 POP JUMP JUMPDEST PUSH3 0x270 DUP2 PUSH3 0x25B JUMP JUMPDEST DUP2 EQ PUSH3 0x27C JUMPI PUSH1 0x0 DUP1 REVERT JUMPDEST POP JUMP JUMPDEST PUSH1 0x0 DUP2 CALLDATALOAD SWAP1 POP PUSH3 0x290 DUP2 PUSH3 0x265 JUMP JUMPDEST SWAP3 SWAP2 POP POP JUMP JUMPDEST PUSH1 0x0 PUSH1 0x20 DUP3 DUP5 SUB SLT ISZERO PUSH3 0x2AF JUMPI PUSH3 0x2AE PUSH3 0x251 JUMP JUMPDEST JUMPDEST PUSH1 0x0 PUSH3 0x2BF DUP5 DUP3 DUP6 ADD PUSH3 0x27F JUMP JUMPDEST SWAP2 POP POP SWAP3 SWAP2 POP POP JUMP JUMPDEST PUSH1 0x0 PUSH20 0xFFFFFFFFFFFFFFFFFFFFFFFFFFFFFFFFFFFFFFFF DUP3 AND SWAP1 POP SWAP2 SWAP1 POP JUMP JUMPDEST PUSH1 0x0 PUSH3 0x2F5 DUP3 PUSH3 0x2C8 JUMP JUMPDEST SWAP1 POP SWAP2 SWAP1 POP JUMP JUMPDEST PUSH3 0x307 DUP2 PUSH3 0x2E8 JUMP JUMPDEST DUP3 MSTORE POP POP JUMP JUMPDEST PUSH1 0x0 PUSH1 0x20 DUP3 ADD SWAP1 POP PUSH3 0x324 PUSH1 0x0 DUP4 ADD DUP5 PUSH3 0x2FC JUMP JUMPDEST SWAP3 SWAP2 POP POP JUMP JUMPDEST PUSH1 0x0 DUP1 REVERT JUMPDEST PUSH1 0x0 DUP1 REVERT JUMPDEST PUSH1 0x0 PUSH1 0x1F NOT PUSH1 0x1F DUP4 ADD AND SWAP1 POP SWAP2 SWAP1 POP JUMP JUMPDEST PUSH32 0x4E487B7100000000000000000000000000000000000000000000000000000000 PUSH1 0x0 MSTORE PUSH1 0x41 PUSH1 0x4 MSTORE PUSH1 0x24 PUSH1 0x0 REVERT JUMPDEST PUSH3 0x37F DUP3 PUSH3 0x334 JUMP JUMPDEST DUP2 ADD DUP2 DUP2 LT PUSH8 0xFFFFFFFFFFFFFFFF DUP3 GT OR ISZERO PUSH3 0x3A1 JUMPI PUSH3 0x3A0 PUSH3 0x345 JUMP JUMPDEST JUMPDEST DUP1 PUSH1 0x40 MSTORE POP POP POP JUMP JUMPDEST PUSH1 0x0 PUSH3 0x3B6 PUSH3 0x247 JUMP JUMPDEST SWAP1 POP PUSH3 0x3C4 DUP3 DUP3 PUSH3 0x374 JUMP JUMPDEST SWAP2 SWAP1 POP JUMP JUMPDEST PUSH1 0x0 PUSH8 0xFFFFFFFFFFFFFFFF DUP3 GT ISZERO PUSH3 0x3E7 JUMPI PUSH3 0x3E6 PUSH3 0x345 JUMP JUMPDEST JUMPDEST PUSH3 0x3F2 DUP3 PUSH3 0x334 JUMP JUMPDEST SWAP1 POP PUSH1 0x20 DUP2 ADD SWAP1 POP SWAP2 SWAP1 POP JUMP JUMPDEST DUP3 DUP2 DUP4 CALLDATACOPY PUSH1 0x0 DUP4 DUP4 ADD MSTORE POP POP POP JUMP JUMPDEST PUSH1 0x0 PUSH3 0x425 PUSH3 0x41F DUP5 PUSH3 0x3C9 JUMP JUMPDEST PUSH3 0x3AA JUMP JUMPDEST SWAP1 POP DUP3 DUP2 MSTORE PUSH1 0x20 DUP2 ADD DUP5 DUP5 DUP5 ADD GT ISZERO PUSH3 0x444 JUMPI PUSH3 0x443 PUSH3 0x32F JUMP JUMPDEST JUMPDEST PUSH3 0x451 DUP5 DUP3 DUP6 PUSH3 0x3FF JUMP JUMPDEST POP SWAP4 SWAP3 POP POP POP JUMP JUMPDEST PUSH1 0x0 DUP3 PUSH1 0x1F DUP4 ADD SLT PUSH3 0x471 JUMPI PUSH3 0x470 PUSH3 0x32A JUMP JUMPDEST JUMPDEST DUP2 CALLDATALOAD PUSH3 0x483 DUP5 DUP3 PUSH1 0x20 DUP7 ADD PUSH3 0x40E JUMP JUMPDEST SWAP2 POP POP SWAP3 SWAP2 POP POP JUMP JUMPDEST PUSH1 0x0 PUSH1 0x20 DUP3 DUP5 SUB SLT ISZERO PUSH3 0x4A5 JUMPI PUSH3 0x4A4 PUSH3 0x251 JUMP JUMPDEST JUMPDEST PUSH1 0x0 DUP3 ADD CALLDATALOAD PUSH8 0xFFFFFFFFFFFFFFFF DUP2 GT ISZERO PUSH3 0x4C6 JUMPI PUSH3 0x4C5 PUSH3 0x256 JUMP JUMPDEST JUMPDEST PUSH3 0x4D4 DUP5 DUP3 DUP6 ADD PUSH3 0x459 JUMP JUMPDEST SWAP2 POP POP SWAP3 SWAP2 POP POP JUMP JUMPDEST PUSH1 0x0 DUP2 MLOAD SWAP1 POP SWAP2 SWAP1 POP JUMP JUMPDEST PUSH1 0x0 DUP3 DUP3 MSTORE PUSH1 0x20 DUP3 ADD SWAP1 POP SWAP3 SWAP2 POP POP JUMP JUMPDEST PUSH1 0x0 DUP2 SWAP1 POP PUSH1 0x20 DUP3 ADD SWAP1 POP SWAP2 SWAP1 POP JUMP JUMPDEST PUSH3 0x514 DUP2 PUSH3 0x2E8 JUMP JUMPDEST DUP3 MSTORE POP POP JUMP JUMPDEST PUSH1 0x0 PUSH3 0x528 DUP4 DUP4 PUSH3 0x509 JUMP JUMPDEST PUSH1 0x20 DUP4 ADD SWAP1 POP SWAP3 SWAP2 POP POP JUMP JUMPDEST PUSH1 0x0 PUSH1 0x20 DUP3 ADD SWAP1 POP SWAP2 SWAP1 POP JUMP JUMPDEST PUSH1 0x0 PUSH3 0x54E DUP3 PUSH3 0x4DD JUMP JUMPDEST PUSH3 0x55A DUP2 DUP6 PUSH3 0x4E8 JUMP JUMPDEST SWAP4 POP PUSH3 0x567 DUP4 PUSH3 0x4F9 JUMP JUMPDEST DUP1 PUSH1 0x0 JUMPDEST DUP4 DUP2 LT ISZERO PUSH3 0x59E JUMPI DUP2 MLOAD PUSH3 0x582 DUP9 DUP3 PUSH3 0x51A JUMP JUMPDEST SWAP8 POP PUSH3 0x58F DUP4 PUSH3 0x534 JUMP JUMPDEST SWAP3 POP POP PUSH1 0x1 DUP2 ADD SWAP1 POP PUSH3 0x56B JUMP JUMPDEST POP DUP6 SWAP4 POP POP POP POP SWAP3 SWAP2 POP POP JUMP JUMPDEST PUSH1 0x0 PUSH1 0x20 DUP3 ADD SWAP1 POP DUP2 DUP2 SUB PUSH1 0x0 DUP4 ADD MSTORE PUSH3 0x5C7 DUP2 DUP5 PUSH3 0x541 JUMP JUMPDEST SWAP1 POP SWAP3 SWAP2 POP POP JUMP JUMPDEST PUSH1 0x0 DUP2 MLOAD SWAP1 POP SWAP2 SWAP1 POP JUMP JUMPDEST PUSH1 0x0 DUP3 DUP3 MSTORE PUSH1 0x20 DUP3 ADD SWAP1 POP SWAP3 SWAP2 POP POP JUMP JUMPDEST PUSH1 0x0 JUMPDEST DUP4 DUP2 LT ISZERO PUSH3 0x60B JUMPI DUP1 DUP3 ADD MLOAD DUP2 DUP5 ADD MSTORE PUSH1 0x20 DUP2 ADD SWAP1 POP PUSH3 0x5EE JUMP JUMPDEST PUSH1 0x0 DUP5 DUP5 ADD MSTORE POP POP POP POP JUMP JUMPDEST PUSH1 0x0 PUSH3 0x624 DUP3 PUSH3 0x5CF JUMP JUMPDEST PUSH3 0x630 DUP2 DUP6 PUSH3 0x5DA JUMP JUMPDEST SWAP4 POP PUSH3 0x642 DUP2 DUP6 PUSH1 0x20 DUP7 ADD PUSH3 0x5EB JUMP JUMPDEST PUSH3 0x64D DUP2 PUSH3 0x334 JUMP JUMPDEST DUP5 ADD SWAP2 POP POP SWAP3 SWAP2 POP POP JUMP JUMPDEST PUSH1 0x0 PUSH3 0x665 DUP3 PUSH3 0x2C8 JUMP JUMPDEST SWAP1 POP SWAP2 SWAP1 POP JUMP JUMPDEST PUSH3 0x677 DUP2 PUSH3 0x658 JUMP JUMPDEST DUP3 MSTORE POP POP JUMP JUMPDEST PUSH1 0x0 PUSH1 0x40 DUP3 ADD SWAP1 POP DUP2 DUP2 SUB PUSH1 0x0 DUP4 ADD MSTORE PUSH3 0x699 DUP2 DUP6 PUSH3 0x617 JUMP JUMPDEST SWAP1 POP PUSH3 0x6AA PUSH1 0x20 DUP4 ADD DUP5 PUSH3 0x66C JUMP JUMPDEST SWAP4 SWAP3 POP POP POP JUMP INVALID PUSH1 0x80 PUSH1 0x40 MSTORE CALLVALUE DUP1 ISZERO PUSH3 0x11 JUMPI PUSH1 0x0 DUP1 REVERT JUMPDEST POP PUSH1 0x40 MLOAD PUSH3 0x12EB CODESIZE SUB DUP1 PUSH3 0x12EB DUP4 CODECOPY DUP2 DUP2 ADD PUSH1 0x40 MSTORE DUP2 ADD SWAP1 PUSH3 0x37 SWAP2 SWAP1 PUSH3 0x289 JUMP JUMPDEST DUP2 PUSH1 0x1 SWAP1 DUP2 PUSH3 0x48 SWAP2 SWAP1 PUSH3 0x53A JUMP JUMPDEST POP DUP1 PUSH1 0x0 DUP1 PUSH2 0x100 EXP DUP2 SLOAD DUP2 PUSH20 0xFFFFFFFFFFFFFFFFFFFFFFFFFFFFFFFFFFFFFFFF MUL NOT AND SWAP1 DUP4 PUSH20 0xFFFFFFFFFFFFFFFFFFFFFFFFFFFFFFFFFFFFFFFF AND MUL OR SWAP1 SSTORE POP POP POP PUSH3 0x621 JUMP JUMPDEST PUSH1 0x0 PUSH1 0x40 MLOAD SWAP1 POP SWAP1 JUMP JUMPDEST PUSH1 0x0 DUP1 REVERT JUMPDEST PUSH1 0x0 DUP1 REVERT JUMPDEST PUSH1 0x0 DUP1 REVERT JUMPDEST PUSH1 0x0 DUP1 REVERT JUMPDEST PUSH1 0x0 PUSH1 0x1F NOT PUSH1 0x1F DUP4 ADD AND SWAP1 POP SWAP2 SWAP1 POP JUMP JUMPDEST PUSH32 0x4E487B7100000000000000000000000000000000000000000000000000000000 PUSH1 0x0 MSTORE PUSH1 0x41 PUSH1 0x4 MSTORE PUSH1 0x24 PUSH1 0x0 REVERT JUMPDEST PUSH3 0xFA DUP3 PUSH3 0xAF JUMP JUMPDEST DUP2 ADD DUP2 DUP2 LT PUSH8 0xFFFFFFFFFFFFFFFF DUP3 GT OR ISZERO PUSH3 0x11C JUMPI PUSH3 0x11B PUSH3 0xC0 JUMP JUMPDEST JUMPDEST DUP1 PUSH1 0x40 MSTORE POP POP POP JUMP JUMPDEST PUSH1 0x0 PUSH3 0x131 PUSH3 0x91 JUMP JUMPDEST SWAP1 POP PUSH3 0x13F DUP3 DUP3 PUSH3 0xEF JUMP JUMPDEST SWAP2 SWAP1 POP JUMP JUMPDEST PUSH1 0x0 PUSH8 0xFFFFFFFFFFFFFFFF DUP3 GT ISZERO PUSH3 0x162 JUMPI PUSH3 0x161 PUSH3 0xC0 JUMP JUMPDEST JUMPDEST PUSH3 0x16D DUP3 PUSH3 0xAF JUMP JUMPDEST SWAP1 POP PUSH1 0x20 DUP2 ADD SWAP1 POP SWAP2 SWAP1 POP JUMP JUMPDEST PUSH1 0x0 JUMPDEST DUP4 DUP2 LT ISZERO PUSH3 0x19A JUMPI DUP1 DUP3 ADD MLOAD DUP2 DUP5 ADD MSTORE PUSH1 0x20 DUP2 ADD SWAP1 POP PUSH3 0x17D JUMP JUMPDEST PUSH1 0x0 DUP5 DUP5 ADD MSTORE POP POP POP POP JUMP JUMPDEST PUSH1 0x0 PUSH3 0x1BD PUSH3 0x1B7 DUP5 PUSH3 0x144 JUMP JUMPDEST PUSH3 0x125 JUMP JUMPDEST SWAP1 POP DUP3 DUP2 MSTORE PUSH1 0x20 DUP2 ADD DUP5 DUP5 DUP5 ADD GT ISZERO PUSH3 0x1DC JUMPI PUSH3 0x1DB PUSH3 0xAA JUMP JUMPDEST JUMPDEST PUSH3 0x1E9 DUP5 DUP3 DUP6 PUSH3 0x17A JUMP JUMPDEST POP SWAP4 SWAP3 POP POP POP JUMP JUMPDEST PUSH1 0x0 DUP3 PUSH1 0x1F DUP4 ADD SLT PUSH3 0x209 JUMPI PUSH3 0x208 PUSH3 0xA5 JUMP JUMPDEST JUMPDEST DUP2 MLOAD PUSH3 0x21B DUP5 DUP3 PUSH1 0x20 DUP7 ADD PUSH3 0x1A6 JUMP JUMPDEST SWAP2 POP POP SWAP3 SWAP2 POP POP JUMP JUMPDEST PUSH1 0x0 PUSH20 0xFFFFFFFFFFFFFFFFFFFFFFFFFFFFFFFFFFFFFFFF DUP3 AND SWAP1 POP SWAP2 SWAP1 POP JUMP JUMPDEST PUSH1 0x0 PUSH3 0x251 DUP3 PUSH3 0x224 JUMP JUMPDEST SWAP1 POP SWAP2 SWAP1 POP JUMP JUMPDEST PUSH3 0x263 DUP2 PUSH3 0x244 JUMP JUMPDEST DUP2 EQ PUSH3 0x26F JUMPI PUSH1 0x0 DUP1 REVERT JUMPDEST POP JUMP JUMPDEST PUSH1 0x0 DUP2 MLOAD SWAP1 POP PUSH3 0x283 DUP2 PUSH3 0x258 JUMP JUMPDEST SWAP3 SWAP2 POP POP JUMP JUMPDEST PUSH1 0x0 DUP1 PUSH1 0x40 DUP4 DUP6 SUB SLT ISZERO PUSH3 0x2A3 JUMPI PUSH3 0x2A2 PUSH3 0x9B JUMP JUMPDEST JUMPDEST PUSH1 0x0 DUP4 ADD MLOAD PUSH8 0xFFFFFFFFFFFFFFFF DUP2 GT ISZERO PUSH3 0x2C4 JUMPI PUSH3 0x2C3 PUSH3 0xA0 JUMP JUMPDEST JUMPDEST PUSH3 0x2D2 DUP6 DUP3 DUP7 ADD PUSH3 0x1F1 JUMP JUMPDEST SWAP3 POP POP PUSH1 0x20 PUSH3 0x2E5 DUP6 DUP3 DUP7 ADD PUSH3 0x272 JUMP JUMPDEST SWAP2 POP POP SWAP3 POP SWAP3 SWAP1 POP JUMP JUMPDEST PUSH1 0x0 DUP2 MLOAD SWAP1 POP SWAP2 SWAP1 POP JUMP JUMPDEST PUSH32 0x4E487B7100000000000000000000000000000000000000000000000000000000 PUSH1 0x0 MSTORE PUSH1 0x22 PUSH1 0x4 MSTORE PUSH1 0x24 PUSH1 0x0 REVERT JUMPDEST PUSH1 0x0 PUSH1 0x2 DUP3 DIV SWAP1 POP PUSH1 0x1 DUP3 AND DUP1 PUSH3 0x342 JUMPI PUSH1 0x7F DUP3 AND SWAP2 POP JUMPDEST PUSH1 0x20 DUP3 LT DUP2 SUB PUSH3 0x358 JUMPI PUSH3 0x357 PUSH3 0x2FA JUMP JUMPDEST JUMPDEST POP SWAP2 SWAP1 POP JUMP JUMPDEST PUSH1 0x0 DUP2 SWAP1 POP DUP2 PUSH1 0x0 MSTORE PUSH1 0x20 PUSH1 0x0 KECCAK256 SWAP1 POP SWAP2 SWAP1 POP JUMP JUMPDEST PUSH1 0x0 PUSH1 0x20 PUSH1 0x1F DUP4 ADD DIV SWAP1 POP SWAP2 SWAP1 POP JUMP JUMPDEST PUSH1 0x0 DUP3 DUP3 SHL SWAP1 POP SWAP3 SWAP2 POP POP JUMP JUMPDEST PUSH1 0x0 PUSH1 0x8 DUP4 MUL PUSH3 0x3C2 PUSH32 0xFFFFFFFFFFFFFFFFFFFFFFFFFFFFFFFFFFFFFFFFFFFFFFFFFFFFFFFFFFFFFFFF DUP3 PUSH3 0x383 JUMP JUMPDEST PUSH3 0x3CE DUP7 DUP4 PUSH3 0x383 JUMP JUMPDEST SWAP6 POP DUP1 NOT DUP5 AND SWAP4 POP DUP1 DUP7 AND DUP5 OR SWAP3 POP POP POP SWAP4 SWAP3 POP POP POP JUMP JUMPDEST PUSH1 0x0 DUP2 SWAP1 POP SWAP2 SWAP1 POP JUMP JUMPDEST PUSH1 0x0 DUP2 SWAP1 POP SWAP2 SWAP1 POP JUMP JUMPDEST PUSH1 0x0 PUSH3 0x41B PUSH3 0x415 PUSH3 0x40F DUP5 PUSH3 0x3E6 JUMP JUMPDEST PUSH3 0x3F0 JUMP JUMPDEST PUSH3 0x3E6 JUMP JUMPDEST SWAP1 POP SWAP2 SWAP1 POP JUMP JUMPDEST PUSH1 0x0 DUP2 SWAP1 POP SWAP2 SWAP1 POP JUMP JUMPDEST PUSH3 0x437 DUP4 PUSH3 0x3FA JUMP JUMPDEST PUSH3 0x44F PUSH3 0x446 DUP3 PUSH3 0x422 JUMP JUMPDEST DUP5 DUP5 SLOAD PUSH3 0x390 JUMP JUMPDEST DUP3 SSTORE POP POP POP POP JUMP JUMPDEST PUSH1 0x0 SWAP1 JUMP JUMPDEST PUSH3 0x466 PUSH3 0x457 JUMP JUMPDEST PUSH3 0x473 DUP2 DUP5 DUP5 PUSH3 0x42C JUMP JUMPDEST POP POP POP JUMP JUMPDEST JUMPDEST DUP2 DUP2 LT ISZERO PUSH3 0x49B JUMPI PUSH3 0x48F PUSH1 0x0 DUP3 PUSH3 0x45C JUMP JUMPDEST PUSH1 0x1 DUP2 ADD SWAP1 POP PUSH3 0x479 JUMP JUMPDEST POP POP JUMP JUMPDEST PUSH1 0x1F DUP3 GT ISZERO PUSH3 0x4EA JUMPI PUSH3 0x4B4 DUP2 PUSH3 0x35E JUMP JUMPDEST PUSH3 0x4BF DUP5 PUSH3 0x373 JUMP JUMPDEST DUP2 ADD PUSH1 0x20 DUP6 LT ISZERO PUSH3 0x4CF JUMPI DUP2 SWAP1 POP JUMPDEST PUSH3 0x4E7 PUSH3 0x4DE DUP6 PUSH3 0x373 JUMP JUMPDEST DUP4 ADD DUP3 PUSH3 0x478 JUMP JUMPDEST POP POP JUMPDEST POP POP POP JUMP JUMPDEST PUSH1 0x0 DUP3 DUP3 SHR SWAP1 POP SWAP3 SWAP2 POP POP JUMP JUMPDEST PUSH1 0x0 PUSH3 0x50F PUSH1 0x0 NOT DUP5 PUSH1 0x8 MUL PUSH3 0x4EF JUMP JUMPDEST NOT DUP1 DUP4 AND SWAP2 POP POP SWAP3 SWAP2 POP POP JUMP JUMPDEST PUSH1 0x0 PUSH3 0x52A DUP4 DUP4 PUSH3 0x4FC JUMP JUMPDEST SWAP2 POP DUP3 PUSH1 0x2 MUL DUP3 OR SWAP1 POP SWAP3 SWAP2 POP POP JUMP JUMPDEST PUSH3 0x545 DUP3 PUSH3 0x2EF JUMP JUMPDEST PUSH8 0xFFFFFFFFFFFFFFFF DUP2 GT ISZERO PUSH3 0x561 JUMPI PUSH3 0x560 PUSH3 0xC0 JUMP JUMPDEST JUMPDEST PUSH3 0x56D DUP3 SLOAD PUSH3 0x329 JUMP JUMPDEST PUSH3 0x57A DUP3 DUP3 DUP6 PUSH3 0x49F JUMP JUMPDEST PUSH1 0x0 PUSH1 0x20 SWAP1 POP PUSH1 0x1F DUP4 GT PUSH1 0x1 DUP2 EQ PUSH3 0x5B2 JUMPI PUSH1 0x0 DUP5 ISZERO PUSH3 0x59D JUMPI DUP3 DUP8 ADD MLOAD SWAP1 POP JUMPDEST PUSH3 0x5A9 DUP6 DUP3 PUSH3 0x51C JUMP JUMPDEST DUP7 SSTORE POP PUSH3 0x619 JUMP JUMPDEST PUSH1 0x1F NOT DUP5 AND PUSH3 0x5C2 DUP7 PUSH3 0x35E JUMP JUMPDEST PUSH1 0x0 JUMPDEST DUP3 DUP2 LT ISZERO PUSH3 0x5EC JUMPI DUP5 DUP10 ADD MLOAD DUP3 SSTORE PUSH1 0x1 DUP3 ADD SWAP2 POP PUSH1 0x20 DUP6 ADD SWAP5 POP PUSH1 0x20 DUP2 ADD SWAP1 POP PUSH3 0x5C5 JUMP JUMPDEST DUP7 DUP4 LT ISZERO PUSH3 0x60C JUMPI DUP5 DUP10 ADD MLOAD PUSH3 0x608 PUSH1 0x1F DUP10 AND DUP3 PUSH3 0x4FC JUMP JUMPDEST DUP4 SSTORE POP JUMPDEST PUSH1 0x1 PUSH1 0x2 DUP9 MUL ADD DUP9 SSTORE POP POP POP JUMPDEST POP POP POP POP POP POP JUMP JUMPDEST PUSH2 0xCBA DUP1 PUSH3 0x631 PUSH1 0x0 CODECOPY PUSH1 0x0 RETURN INVALID PUSH1 0x80 PUSH1 0x40 MSTORE CALLVALUE DUP1 ISZERO PUSH2 0x10 JUMPI PUSH1 0x0 DUP1 REVERT JUMPDEST POP PUSH1 0x4 CALLDATASIZE LT PUSH2 0xB4 JUMPI PUSH1 0x0 CALLDATALOAD PUSH1 0xE0 SHR DUP1 PUSH4 0x7317EA29 GT PUSH2 0x71 JUMPI DUP1 PUSH4 0x7317EA29 EQ PUSH2 0x157 JUMPI DUP1 PUSH4 0xA3EC138D EQ PUSH2 0x161 JUMPI DUP1 PUSH4 0xA7ACBB2B EQ PUSH2 0x191 JUMPI DUP1 PUSH4 0xB78662E7 EQ PUSH2 0x1AF JUMPI DUP1 PUSH4 0xE3F7DB6E EQ PUSH2 0x1B9 JUMPI DUP1 PUSH4 0xFC3CF018 EQ PUSH2 0x1D7 JUMPI PUSH2 0xB4 JUMP JUMPDEST DUP1 PUSH4 0x19E5BF3A EQ PUSH2 0xB9 JUMPI DUP1 PUSH4 0x42169E48 EQ PUSH2 0xC3 JUMPI DUP1 PUSH4 0x481C6A75 EQ PUSH2 0xE1 JUMPI DUP1 PUSH4 0x6423DB34 EQ PUSH2 0xFF JUMPI DUP1 PUSH4 0x66542AA7 EQ PUSH2 0x109 JUMPI DUP1 PUSH4 0x68E2A8E4 EQ PUSH2 0x139 JUMPI JUMPDEST PUSH1 0x0 DUP1 REVERT JUMPDEST PUSH2 0xC1 PUSH2 0x1F5 JUMP JUMPDEST STOP JUMPDEST PUSH2 0xCB PUSH2 0x321 JUMP JUMPDEST PUSH1 0x40 MLOAD PUSH2 0xD8 SWAP2 SWAP1 PUSH2 0x888 JUMP JUMPDEST PUSH1 0x40 MLOAD DUP1 SWAP2 SUB SWAP1 RETURN JUMPDEST PUSH2 0xE9 PUSH2 0x327 JUMP JUMPDEST PUSH1 0x40 MLOAD PUSH2 0xF6 SWAP2 SWAP1 PUSH2 0x8E4 JUMP JUMPDEST PUSH1 0x40 MLOAD DUP1 SWAP2 SUB SWAP1 RETURN JUMPDEST PUSH2 0x107 PUSH2 0x34B JUMP JUMPDEST STOP JUMPDEST PUSH2 0x123 PUSH1 0x4 DUP1 CALLDATASIZE SUB DUP2 ADD SWAP1 PUSH2 0x11E SWAP2 SWAP1 PUSH2 0x930 JUMP JUMPDEST PUSH2 0x51A JUMP JUMPDEST PUSH1 0x40 MLOAD PUSH2 0x130 SWAP2 SWAP1 PUSH2 0x8E4 JUMP JUMPDEST PUSH1 0x40 MLOAD DUP1 SWAP2 SUB SWAP1 RETURN JUMPDEST PUSH2 0x141 PUSH2 0x559 JUMP JUMPDEST PUSH1 0x40 MLOAD PUSH2 0x14E SWAP2 SWAP1 PUSH2 0x9ED JUMP JUMPDEST PUSH1 0x40 MLOAD DUP1 SWAP2 SUB SWAP1 RETURN JUMPDEST PUSH2 0x15F PUSH2 0x5E7 JUMP JUMPDEST STOP JUMPDEST PUSH2 0x17B PUSH1 0x4 DUP1 CALLDATASIZE SUB DUP2 ADD SWAP1 PUSH2 0x176 SWAP2 SWAP1 PUSH2 0xA3B JUMP JUMPDEST PUSH2 0x6AF JUMP JUMPDEST PUSH1 0x40 MLOAD PUSH2 0x188 SWAP2 SWAP1 PUSH2 0xA83 JUMP JUMPDEST PUSH1 0x40 MLOAD DUP1 SWAP2 SUB SWAP1 RETURN JUMPDEST PUSH2 0x199 PUSH2 0x6CF JUMP JUMPDEST PUSH1 0x40 MLOAD PUSH2 0x1A6 SWAP2 SWAP1 PUSH2 0x888 JUMP JUMPDEST PUSH1 0x40 MLOAD DUP1 SWAP2 SUB SWAP1 RETURN JUMPDEST PUSH2 0x1B7 PUSH2 0x6D5 JUMP JUMPDEST STOP JUMPDEST PUSH2 0x1C1 PUSH2 0x79D JUMP JUMPDEST PUSH1 0x40 MLOAD PUSH2 0x1CE SWAP2 SWAP1 PUSH2 0x888 JUMP JUMPDEST PUSH1 0x40 MLOAD DUP1 SWAP2 SUB SWAP1 RETURN JUMPDEST PUSH2 0x1DF PUSH2 0x7A3 JUMP JUMPDEST PUSH1 0x40 MLOAD PUSH2 0x1EC SWAP2 SWAP1 PUSH2 0xB5C JUMP JUMPDEST PUSH1 0x40 MLOAD DUP1 SWAP2 SUB SWAP1 RETURN JUMPDEST PUSH1 0x2 PUSH1 0x0 CALLER PUSH20 0xFFFFFFFFFFFFFFFFFFFFFFFFFFFFFFFFFFFFFFFF AND PUSH20 0xFFFFFFFFFFFFFFFFFFFFFFFFFFFFFFFFFFFFFFFF AND DUP2 MSTORE PUSH1 0x20 ADD SWAP1 DUP2 MSTORE PUSH1 0x20 ADD PUSH1 0x0 KECCAK256 PUSH1 0x0 SWAP1 SLOAD SWAP1 PUSH2 0x100 EXP SWAP1 DIV PUSH1 0xFF AND ISZERO PUSH2 0x24C JUMPI PUSH1 0x0 DUP1 REVERT JUMPDEST PUSH1 0x3 CALLER SWAP1 DUP1 PUSH1 0x1 DUP2 SLOAD ADD DUP1 DUP3 SSTORE DUP1 SWAP2 POP POP PUSH1 0x1 SWAP1 SUB SWAP1 PUSH1 0x0 MSTORE PUSH1 0x20 PUSH1 0x0 KECCAK256 ADD PUSH1 0x0 SWAP1 SWAP2 SWAP1 SWAP2 SWAP1 SWAP2 PUSH2 0x100 EXP DUP2 SLOAD DUP2 PUSH20 0xFFFFFFFFFFFFFFFFFFFFFFFFFFFFFFFFFFFFFFFF MUL NOT AND SWAP1 DUP4 PUSH20 0xFFFFFFFFFFFFFFFFFFFFFFFFFFFFFFFFFFFFFFFF AND MUL OR SWAP1 SSTORE POP PUSH1 0x1 PUSH1 0x2 PUSH1 0x0 CALLER PUSH20 0xFFFFFFFFFFFFFFFFFFFFFFFFFFFFFFFFFFFFFFFF AND PUSH20 0xFFFFFFFFFFFFFFFFFFFFFFFFFFFFFFFFFFFFFFFF AND DUP2 MSTORE PUSH1 0x20 ADD SWAP1 DUP2 MSTORE PUSH1 0x20 ADD PUSH1 0x0 KECCAK256 PUSH1 0x0 PUSH2 0x100 EXP DUP2 SLOAD DUP2 PUSH1 0xFF MUL NOT AND SWAP1 DUP4 ISZERO ISZERO MUL OR SWAP1 SSTORE POP PUSH1 0x4 PUSH1 0x0 DUP2 SLOAD DUP1 SWAP3 SWAP2 SWAP1 PUSH2 0x31A SWAP1 PUSH2 0xBAD JUMP JUMPDEST SWAP2 SWAP1 POP SSTORE POP JUMP JUMPDEST PUSH1 0x4 SLOAD DUP2 JUMP JUMPDEST PUSH1 0x0 DUP1 SLOAD SWAP1 PUSH2 0x100 EXP SWAP1 DIV PUSH20 0xFFFFFFFFFFFFFFFFFFFFFFFFFFFFFFFFFFFFFFFF AND DUP2 JUMP JUMPDEST PUSH1 0x0 DUP1 SLOAD SWAP1 PUSH2 0x100 EXP SWAP1 DIV PUSH20 0xFFFFFFFFFFFFFFFFFFFFFFFFFFFFFFFFFFFFFFFF AND PUSH20 0xFFFFFFFFFFFFFFFFFFFFFFFFFFFFFFFFFFFFFFFF AND CALLER PUSH20 0xFFFFFFFFFFFFFFFFFFFFFFFFFFFFFFFFFFFFFFFF AND EQ PUSH2 0x3A3 JUMPI PUSH1 0x0 DUP1 REVERT JUMPDEST PUSH1 0x5 PUSH1 0x0 SWAP1 SSTORE PUSH1 0x6 PUSH1 0x0 SWAP1 SSTORE PUSH1 0x4 PUSH1 0x0 SWAP1 SSTORE PUSH1 0x0 JUMPDEST PUSH1 0x3 DUP1 SLOAD SWAP1 POP DUP2 LT ISZERO PUSH2 0x509 JUMPI PUSH1 0x1 PUSH1 0x2 PUSH1 0x0 PUSH1 0x3 DUP5 DUP2 SLOAD DUP2 LT PUSH2 0x3DF JUMPI PUSH2 0x3DE PUSH2 0xBF5 JUMP JUMPDEST JUMPDEST SWAP1 PUSH1 0x0 MSTORE PUSH1 0x20 PUSH1 0x0 KECCAK256 ADD PUSH1 0x0 SWAP1 SLOAD SWAP1 PUSH2 0x100 EXP SWAP1 DIV PUSH20 0xFFFFFFFFFFFFFFFFFFFFFFFFFFFFFFFFFFFFFFFF AND PUSH20 0xFFFFFFFFFFFFFFFFFFFFFFFFFFFFFFFFFFFFFFFF AND PUSH20 0xFFFFFFFFFFFFFFFFFFFFFFFFFFFFFFFFFFFFFFFF AND DUP2 MSTORE PUSH1 0x20 ADD SWAP1 DUP2 MSTORE PUSH1 0x20 ADD PUSH1 0x0 KECCAK256 PUSH1 0x0 PUSH2 0x100 EXP DUP2 SLOAD DUP2 PUSH1 0xFF MUL NOT AND SWAP1 DUP4 ISZERO ISZERO MUL OR SWAP1 SSTORE ISZERO PUSH2 0x4F6 JUMPI PUSH1 0x0 PUSH1 0x2 PUSH1 0x0 PUSH1 0x3 DUP5 DUP2 SLOAD DUP2 LT PUSH2 0x479 JUMPI PUSH2 0x478 PUSH2 0xBF5 JUMP JUMPDEST JUMPDEST SWAP1 PUSH1 0x0 MSTORE PUSH1 0x20 PUSH1 0x0 KECCAK256 ADD PUSH1 0x0 SWAP1 SLOAD SWAP1 PUSH2 0x100 EXP SWAP1 DIV PUSH20 0xFFFFFFFFFFFFFFFFFFFFFFFFFFFFFFFFFFFFFFFF AND PUSH20 0xFFFFFFFFFFFFFFFFFFFFFFFFFFFFFFFFFFFFFFFF AND PUSH20 0xFFFFFFFFFFFFFFFFFFFFFFFFFFFFFFFFFFFFFFFF AND DUP2 MSTORE PUSH1 0x20 ADD SWAP1 DUP2 MSTORE PUSH1 0x20 ADD PUSH1 0x0 KECCAK256 PUSH1 0x0 PUSH2 0x100 EXP DUP2 SLOAD DUP2 PUSH1 0xFF MUL NOT AND SWAP1 DUP4 ISZERO ISZERO MUL OR SWAP1 SSTORE POP JUMPDEST DUP1 DUP1 PUSH2 0x501 SWAP1 PUSH2 0xBAD JUMP JUMPDEST SWAP2 POP POP PUSH2 0x3B8 JUMP JUMPDEST POP PUSH1 0x3 PUSH1 0x0 PUSH2 0x518 SWAP2 SWAP1 PUSH2 0x831 JUMP JUMPDEST JUMP JUMPDEST PUSH1 0x3 DUP2 DUP2 SLOAD DUP2 LT PUSH2 0x52A JUMPI PUSH1 0x0 DUP1 REVERT JUMPDEST SWAP1 PUSH1 0x0 MSTORE PUSH1 0x20 PUSH1 0x0 KECCAK256 ADD PUSH1 0x0 SWAP2 POP SLOAD SWAP1 PUSH2 0x100 EXP SWAP1 DIV PUSH20 0xFFFFFFFFFFFFFFFFFFFFFFFFFFFFFFFFFFFFFFFF AND DUP2 JUMP JUMPDEST PUSH1 0x1 DUP1 SLOAD PUSH2 0x566 SWAP1 PUSH2 0xC53 JUMP JUMPDEST DUP1 PUSH1 0x1F ADD PUSH1 0x20 DUP1 SWAP2 DIV MUL PUSH1 0x20 ADD PUSH1 0x40 MLOAD SWAP1 DUP2 ADD PUSH1 0x40 MSTORE DUP1 SWAP3 SWAP2 SWAP1 DUP2 DUP2 MSTORE PUSH1 0x20 ADD DUP3 DUP1 SLOAD PUSH2 0x592 SWAP1 PUSH2 0xC53 JUMP JUMPDEST DUP1 ISZERO PUSH2 0x5DF JUMPI DUP1 PUSH1 0x1F LT PUSH2 0x5B4 JUMPI PUSH2 0x100 DUP1 DUP4 SLOAD DIV MUL DUP4 MSTORE SWAP2 PUSH1 0x20 ADD SWAP2 PUSH2 0x5DF JUMP JUMPDEST DUP3 ADD SWAP2 SWAP1 PUSH1 0x0 MSTORE PUSH1 0x20 PUSH1 0x0 KECCAK256 SWAP1 JUMPDEST DUP2 SLOAD DUP2 MSTORE SWAP1 PUSH1 0x1 ADD SWAP1 PUSH1 0x20 ADD DUP1 DUP4 GT PUSH2 0x5C2 JUMPI DUP3 SWAP1 SUB PUSH1 0x1F AND DUP3 ADD SWAP2 JUMPDEST POP POP POP POP POP DUP2 JUMP JUMPDEST PUSH1 0x2 PUSH1 0x0 CALLER PUSH20 0xFFFFFFFFFFFFFFFFFFFFFFFFFFFFFFFFFFFFFFFF AND PUSH20 0xFFFFFFFFFFFFFFFFFFFFFFFFFFFFFFFFFFFFFFFF AND DUP2 MSTORE PUSH1 0x20 ADD SWAP1 DUP2 MSTORE PUSH1 0x20 ADD PUSH1 0x0 KECCAK256 PUSH1 0x0 SWAP1 SLOAD SWAP1 PUSH2 0x100 EXP SWAP1 DIV PUSH1 0xFF AND PUSH2 0x63D JUMPI PUSH1 0x0 DUP1 REVERT JUMPDEST PUSH1 0x5 PUSH1 0x0 DUP2 SLOAD DUP1 SWAP3 SWAP2 SWAP1 PUSH2 0x650 SWAP1 PUSH2 0xBAD JUMP JUMPDEST SWAP2 SWAP1 POP SSTORE POP PUSH1 0x0 PUSH1 0x2 PUSH1 0x0 CALLER PUSH20 0xFFFFFFFFFFFFFFFFFFFFFFFFFFFFFFFFFFFFFFFF AND PUSH20 0xFFFFFFFFFFFFFFFFFFFFFFFFFFFFFFFFFFFFFFFF AND DUP2 MSTORE PUSH1 0x20 ADD SWAP1 DUP2 MSTORE PUSH1 0x20 ADD PUSH1 0x0 KECCAK256 PUSH1 0x0 PUSH2 0x100 EXP DUP2 SLOAD DUP2 PUSH1 0xFF MUL NOT AND SWAP1 DUP4 ISZERO ISZERO MUL OR SWAP1 SSTORE POP JUMP JUMPDEST PUSH1 0x2 PUSH1 0x20 MSTORE DUP1 PUSH1 0x0 MSTORE PUSH1 0x40 PUSH1 0x0 KECCAK256 PUSH1 0x0 SWAP2 POP SLOAD SWAP1 PUSH2 0x100 EXP SWAP1 DIV PUSH1 0xFF AND DUP2 JUMP JUMPDEST PUSH1 0x6 SLOAD DUP2 JUMP JUMPDEST PUSH1 0x2 PUSH1 0x0 CALLER PUSH20 0xFFFFFFFFFFFFFFFFFFFFFFFFFFFFFFFFFFFFFFFF AND PUSH20 0xFFFFFFFFFFFFFFFFFFFFFFFFFFFFFFFFFFFFFFFF AND DUP2 MSTORE PUSH1 0x20 ADD SWAP1 DUP2 MSTORE PUSH1 0x20 ADD PUSH1 0x0 KECCAK256 PUSH1 0x0 SWAP1 SLOAD SWAP1 PUSH2 0x100 EXP SWAP1 DIV PUSH1 0xFF AND PUSH2 0x72B JUMPI PUSH1 0x0 DUP1 REVERT JUMPDEST PUSH1 0x6 PUSH1 0x0 DUP2 SLOAD DUP1 SWAP3 SWAP2 SWAP1 PUSH2 0x73E SWAP1 PUSH2 0xBAD JUMP JUMPDEST SWAP2 SWAP1 POP SSTORE POP PUSH1 0x0 PUSH1 0x2 PUSH1 0x0 CALLER PUSH20 0xFFFFFFFFFFFFFFFFFFFFFFFFFFFFFFFFFFFFFFFF AND PUSH20 0xFFFFFFFFFFFFFFFFFFFFFFFFFFFFFFFFFFFFFFFF AND DUP2 MSTORE PUSH1 0x20 ADD SWAP1 DUP2 MSTORE PUSH1 0x20 ADD PUSH1 0x0 KECCAK256 PUSH1 0x0 PUSH2 0x100 EXP DUP2 SLOAD DUP2 PUSH1 0xFF MUL NOT AND SWAP1 DUP4 ISZERO ISZERO MUL OR SWAP1 SSTORE POP JUMP JUMPDEST PUSH1 0x5 SLOAD DUP2 JUMP JUMPDEST PUSH1 0x60 PUSH1 0x3 DUP1 SLOAD DUP1 PUSH1 0x20 MUL PUSH1 0x20 ADD PUSH1 0x40 MLOAD SWAP1 DUP2 ADD PUSH1 0x40 MSTORE DUP1 SWAP3 SWAP2 SWAP1 DUP2 DUP2 MSTORE PUSH1 0x20 ADD DUP3 DUP1 SLOAD DUP1 ISZERO PUSH2 0x827 JUMPI PUSH1 0x20 MUL DUP3 ADD SWAP2 SWAP1 PUSH1 0x0 MSTORE PUSH1 0x20 PUSH1 0x0 KECCAK256 SWAP1 JUMPDEST DUP2 PUSH1 0x0 SWAP1 SLOAD SWAP1 PUSH2 0x100 EXP SWAP1 DIV PUSH20 0xFFFFFFFFFFFFFFFFFFFFFFFFFFFFFFFFFFFFFFFF AND PUSH20 0xFFFFFFFFFFFFFFFFFFFFFFFFFFFFFFFFFFFFFFFF AND DUP2 MSTORE PUSH1 0x20 ADD SWAP1 PUSH1 0x1 ADD SWAP1 DUP1 DUP4 GT PUSH2 0x7DD JUMPI JUMPDEST POP POP POP POP POP SWAP1 POP SWAP1 JUMP JUMPDEST POP DUP1 SLOAD PUSH1 0x0 DUP3 SSTORE SWAP1 PUSH1 0x0 MSTORE PUSH1 0x20 PUSH1 0x0 KECCAK256 SWAP1 DUP2 ADD SWAP1 PUSH2 0x84F SWAP2 SWAP1 PUSH2 0x852 JUMP JUMPDEST POP JUMP JUMPDEST JUMPDEST DUP1 DUP3 GT ISZERO PUSH2 0x86B JUMPI PUSH1 0x0 DUP2 PUSH1 0x0 SWAP1 SSTORE POP PUSH1 0x1 ADD PUSH2 0x853 JUMP JUMPDEST POP SWAP1 JUMP JUMPDEST PUSH1 0x0 DUP2 SWAP1 POP SWAP2 SWAP1 POP JUMP JUMPDEST PUSH2 0x882 DUP2 PUSH2 0x86F JUMP JUMPDEST DUP3 MSTORE POP POP JUMP JUMPDEST PUSH1 0x0 PUSH1 0x20 DUP3 ADD SWAP1 POP PUSH2 0x89D PUSH1 0x0 DUP4 ADD DUP5 PUSH2 0x879 JUMP JUMPDEST SWAP3 SWAP2 POP POP JUMP JUMPDEST PUSH1 0x0 PUSH20 0xFFFFFFFFFFFFFFFFFFFFFFFFFFFFFFFFFFFFFFFF DUP3 AND SWAP1 POP SWAP2 SWAP1 POP JUMP JUMPDEST PUSH1 0x0 PUSH2 0x8CE DUP3 PUSH2 0x8A3 JUMP JUMPDEST SWAP1 POP SWAP2 SWAP1 POP JUMP JUMPDEST PUSH2 0x8DE DUP2 PUSH2 0x8C3 JUMP JUMPDEST DUP3 MSTORE POP POP JUMP JUMPDEST PUSH1 0x0 PUSH1 0x20 DUP3 ADD SWAP1 POP PUSH2 0x8F9 PUSH1 0x0 DUP4 ADD DUP5 PUSH2 0x8D5 JUMP JUMPDEST SWAP3 SWAP2 POP POP JUMP JUMPDEST PUSH1 0x0 DUP1 REVERT JUMPDEST PUSH2 0x90D DUP2 PUSH2 0x86F JUMP JUMPDEST DUP2 EQ PUSH2 0x918 JUMPI PUSH1 0x0 DUP1 REVERT JUMPDEST POP JUMP JUMPDEST PUSH1 0x0 DUP2 CALLDATALOAD SWAP1 POP PUSH2 0x92A DUP2 PUSH2 0x904 JUMP JUMPDEST SWAP3 SWAP2 POP POP JUMP JUMPDEST PUSH1 0x0 PUSH1 0x20 DUP3 DUP5 SUB SLT ISZERO PUSH2 0x946 JUMPI PUSH2 0x945 PUSH2 0x8FF JUMP JUMPDEST JUMPDEST PUSH1 0x0 PUSH2 0x954 DUP5 DUP3 DUP6 ADD PUSH2 0x91B JUMP JUMPDEST SWAP2 POP POP SWAP3 SWAP2 POP POP JUMP JUMPDEST PUSH1 0x0 DUP2 MLOAD SWAP1 POP SWAP2 SWAP1 POP JUMP JUMPDEST PUSH1 0x0 DUP3 DUP3 MSTORE PUSH1 0x20 DUP3 ADD SWAP1 POP SWAP3 SWAP2 POP POP JUMP JUMPDEST PUSH1 0x0 JUMPDEST DUP4 DUP2 LT ISZERO PUSH2 0x997 JUMPI DUP1 DUP3 ADD MLOAD DUP2 DUP5 ADD MSTORE PUSH1 0x20 DUP2 ADD SWAP1 POP PUSH2 0x97C JUMP JUMPDEST PUSH1 0x0 DUP5 DUP5 ADD MSTORE POP POP POP POP JUMP JUMPDEST PUSH1 0x0 PUSH1 0x1F NOT PUSH1 0x1F DUP4 ADD AND SWAP1 POP SWAP2 SWAP1 POP JUMP JUMPDEST PUSH1 0x0 PUSH2 0x9BF DUP3 PUSH2 0x95D JUMP JUMPDEST PUSH2 0x9C9 DUP2 DUP6 PUSH2 0x968 JUMP JUMPDEST SWAP4 POP PUSH2 0x9D9 DUP2 DUP6 PUSH1 0x20 DUP7 ADD PUSH2 0x979 JUMP JUMPDEST PUSH2 0x9E2 DUP2 PUSH2 0x9A3 JUMP JUMPDEST DUP5 ADD SWAP2 POP POP SWAP3 SWAP2 POP POP JUMP JUMPDEST PUSH1 0x0 PUSH1 0x20 DUP3 ADD SWAP1 POP DUP2 DUP2 SUB PUSH1 0x0 DUP4 ADD MSTORE PUSH2 0xA07 DUP2 DUP5 PUSH2 0x9B4 JUMP JUMPDEST SWAP1 POP SWAP3 SWAP2 POP POP JUMP JUMPDEST PUSH2 0xA18 DUP2 PUSH2 0x8C3 JUMP JUMPDEST DUP2 EQ PUSH2 0xA23 JUMPI PUSH1 0x0 DUP1 REVERT JUMPDEST POP JUMP JUMPDEST PUSH1 0x0 DUP2 CALLDATALOAD SWAP1 POP PUSH2 0xA35 DUP2 PUSH2 0xA0F JUMP JUMPDEST SWAP3 SWAP2 POP POP JUMP JUMPDEST PUSH1 0x0 PUSH1 0x20 DUP3 DUP5 SUB SLT ISZERO PUSH2 0xA51 JUMPI PUSH2 0xA50 PUSH2 0x8FF JUMP JUMPDEST JUMPDEST PUSH1 0x0 PUSH2 0xA5F DUP5 DUP3 DUP6 ADD PUSH2 0xA26 JUMP JUMPDEST SWAP2 POP POP SWAP3 SWAP2 POP POP JUMP JUMPDEST PUSH1 0x0 DUP2 ISZERO ISZERO SWAP1 POP SWAP2 SWAP1 POP JUMP JUMPDEST PUSH2 0xA7D DUP2 PUSH2 0xA68 JUMP JUMPDEST DUP3 MSTORE POP POP JUMP JUMPDEST PUSH1 0x0 PUSH1 0x20 DUP3 ADD SWAP1 POP PUSH2 0xA98 PUSH1 0x0 DUP4 ADD DUP5 PUSH2 0xA74 JUMP JUMPDEST SWAP3 SWAP2 POP POP JUMP JUMPDEST PUSH1 0x0 DUP2 MLOAD SWAP1 POP SWAP2 SWAP1 POP JUMP JUMPDEST PUSH1 0x0 DUP3 DUP3 MSTORE PUSH1 0x20 DUP3 ADD SWAP1 POP SWAP3 SWAP2 POP POP JUMP JUMPDEST PUSH1 0x0 DUP2 SWAP1 POP PUSH1 0x20 DUP3 ADD SWAP1 POP SWAP2 SWAP1 POP JUMP JUMPDEST PUSH2 0xAD3 DUP2 PUSH2 0x8C3 JUMP JUMPDEST DUP3 MSTORE POP POP JUMP JUMPDEST PUSH1 0x0 PUSH2 0xAE5 DUP4 DUP4 PUSH2 0xACA JUMP JUMPDEST PUSH1 0x20 DUP4 ADD SWAP1 POP SWAP3 SWAP2 POP POP JUMP JUMPDEST PUSH1 0x0 PUSH1 0x20 DUP3 ADD SWAP1 POP SWAP2 SWAP1 POP JUMP JUMPDEST PUSH1 0x0 PUSH2 0xB09 DUP3 PUSH2 0xA9E JUMP JUMPDEST PUSH2 0xB13 DUP2 DUP6 PUSH2 0xAA9 JUMP JUMPDEST SWAP4 POP PUSH2 0xB1E DUP4 PUSH2 0xABA JUMP JUMPDEST DUP1 PUSH1 0x0 JUMPDEST DUP4 DUP2 LT ISZERO PUSH2 0xB4F JUMPI DUP2 MLOAD PUSH2 0xB36 DUP9 DUP3 PUSH2 0xAD9 JUMP JUMPDEST SWAP8 POP PUSH2 0xB41 DUP4 PUSH2 0xAF1 JUMP JUMPDEST SWAP3 POP POP PUSH1 0x1 DUP2 ADD SWAP1 POP PUSH2 0xB22 JUMP JUMPDEST POP DUP6 SWAP4 POP POP POP POP SWAP3 SWAP2 POP POP JUMP JUMPDEST PUSH1 0x0 PUSH1 0x20 DUP3 ADD SWAP1 POP DUP2 DUP2 SUB PUSH1 0x0 DUP4 ADD MSTORE PUSH2 0xB76 DUP2 DUP5 PUSH2 0xAFE JUMP JUMPDEST SWAP1 POP SWAP3 SWAP2 POP POP JUMP JUMPDEST PUSH32 0x4E487B7100000000000000000000000000000000000000000000000000000000 PUSH1 0x0 MSTORE PUSH1 0x11 PUSH1 0x4 MSTORE PUSH1 0x24 PUSH1 0x0 REVERT JUMPDEST PUSH1 0x0 PUSH2 0xBB8 DUP3 PUSH2 0x86F JUMP JUMPDEST SWAP2 POP PUSH32 0xFFFFFFFFFFFFFFFFFFFFFFFFFFFFFFFFFFFFFFFFFFFFFFFFFFFFFFFFFFFFFFFF DUP3 SUB PUSH2 0xBEA JUMPI PUSH2 0xBE9 PUSH2 0xB7E JUMP JUMPDEST JUMPDEST PUSH1 0x1 DUP3 ADD SWAP1 POP SWAP2 SWAP1 POP JUMP JUMPDEST PUSH32 0x4E487B7100000000000000000000000000000000000000000000000000000000 PUSH1 0x0 MSTORE PUSH1 0x32 PUSH1 0x4 MSTORE PUSH1 0x24 PUSH1 0x0 REVERT JUMPDEST PUSH32 0x4E487B7100000000000000000000000000000000000000000000000000000000 PUSH1 0x0 MSTORE PUSH1 0x22 PUSH1 0x4 MSTORE PUSH1 0x24 PUSH1 0x0 REVERT JUMPDEST PUSH1 0x0 PUSH1 0x2 DUP3 DIV SWAP1 POP PUSH1 0x1 DUP3 AND DUP1 PUSH2 0xC6B JUMPI PUSH1 0x7F DUP3 AND SWAP2 POP JUMPDEST PUSH1 0x20 DUP3 LT DUP2 SUB PUSH2 0xC7E JUMPI PUSH2 0xC7D PUSH2 0xC24 JUMP JUMPDEST JUMPDEST POP SWAP2 SWAP1 POP JUMP INVALID LOG2 PUSH5 0x6970667358 0x22 SLT KECCAK256 SWAP9 DUP8 DUP9 0xB6 0xCC 0x2C 0x5C PUSH3 0x2B00E2 LOG3 MULMOD 0xD2 0xBD 0xCE PUSH31 0x62B50B034E922AF76DDDE4FDB6CAD064736F6C63430008130033A264697066 PUSH20 0x58221220646A9CD871FBE4D23A646846A79716F5 SWAP2 PUSH31 0x2F4BAEEBED11697590245CB7B2F864736F6C63430008130033000000000000 "},"gasEstimates":{"creation":{"codeDepositCost":"1322000","executionCost":"1376","totalCost":"1323376"},"external":{"createPoll(string)":"infinite","deployedPoll(uint256)":"4934","getDeployedPolls()":"infinite"}},"methodIdentifiers":{"createPoll(string)":"74a9ced9","deployedPoll(uint256)":"336bec97","getDeployedPolls()":"98460be7"}},"storageLayout":{"storage":[{"astId":4,"contract":"Voting.sol:pollFactory","label":"deployedPoll","offset":0,"slot":"0","type":"t_array(t_address_payable)dyn_storage"}],"types":{"t_address_payable":{"encoding":"inplace","label":"address payable","numberOfBytes":"20"},"t_array(t_address_payable)dyn_storage":{"base":"t_address_payable","encoding":"dynamic_array","label":"address payable[]","numberOfBytes":"32"}}},"userdoc":{"kind":"user","methods":{},"version":1}}