{"abi":[{"inputs":[{"internalType":"string","name":"about","type":"string"},{"internalType":"address","name":"creator","type":"address"}],"stateMutability":"nonpayable","type":"constructor"},{"inputs":[],"name":"Register","outputs":[],"stateMutability":"nonpayable","type":"function"},{"inputs":[],"name":"Reset","outputs":[],"stateMutability":"nonpayable","type":"function"},{"inputs":[],"name":"VoteDown","outputs":[],"stateMutability":"nonpayable","type":"function"},{"inputs":[],"name":"VoteUp","outputs":[],"stateMutability":"nonpayable","type":"function"},{"inputs":[],"name":"agreeAbility","outputs":[{"internalType":"uint256","name":"","type":"uint256"}],"stateMutability":"view","type":"function"},{"inputs":[],"name":"getInidviduals","outputs":[{"internalType":"address[]","name":"","type":"address[]"}],"stateMutability":"view","type":"function"},{"inputs":[{"internalType":"uint256","name":"","type":"uint256"}],"name":"individuals","outputs":[{"internalType":"address","name":"","type":"address"}],"stateMutability":"view","type":"function"},{"inputs":[],"name":"manager","outputs":[{"internalType":"address","name":"","type":"address"}],"stateMutability":"view","type":"function"},{"inputs":[],"name":"moto","outputs":[{"internalType":"string","name":"","type":"string"}],"stateMutability":"view","type":"function"},{"inputs":[],"name":"negativeVoteCount","outputs":[{"internalType":"uint256","name":"","type":"uint256"}],"stateMutability":"view","type":"function"},{"inputs":[],"name":"positiveVoteCount","outputs":[{"internalType":"uint256","name":"","type":"uint256"}],"stateMutability":"view","type":"function"},{"inputs":[],"name":"voterCount","outputs":[{"internalType":"uint256","name":"","type":"uint256"}],"stateMutability":"view","type":"function"},{"inputs":[{"internalType":"address","name":"","type":"address"}],"name":"voters","outputs":[{"internalType":"bool","name":"","type":"bool"}],"stateMutability":"view","type":"function"}],"devdoc":{"kind":"dev","methods":{},"version":1},"evm":{"assembly":"    /* \"Voting.sol\":441:2034  contract VotingCampaign{... */\n  mstore(0x40, 0x80)\n    /* \"Voting.sol\":753:770  negativeVoteCount */\n  sload(0x06)\n    /* \"Voting.sol\":733:750  positiveVoteCount */\n  sload(0x05)\n    /* \"Voting.sol\":733:770  positiveVoteCount - negativeVoteCount */\n  tag_1\n  swap2\n  swap1\n  tag_2\n  jump\t// in\ntag_1:\n    /* \"Voting.sol\":706:770  uint public agreeAbility = positiveVoteCount - negativeVoteCount */\n  0x07\n  sstore\n    /* \"Voting.sol\":869:978  constructor(string memory about, address creator) {... */\n  callvalue\n  dup1\n  iszero\n  tag_3\n  jumpi\n  0x00\n  dup1\n  revert\ntag_3:\n  pop\n  mload(0x40)\n  sub(codesize, bytecodeSize)\n  dup1\n  bytecodeSize\n  dup4\n  codecopy\n  dup2\n  dup2\n  add\n  0x40\n  mstore\n  dup2\n  add\n  swap1\n  tag_4\n  swap2\n  swap1\n  tag_5\n  jump\t// in\ntag_4:\n    /* \"Voting.sol\":937:942  about */\n  dup2\n    /* \"Voting.sol\":930:934  moto */\n  0x01\n    /* \"Voting.sol\":930:942  moto = about */\n  swap1\n  dup2\n  tag_8\n  swap2\n  swap1\n  tag_9\n  jump\t// in\ntag_8:\n  pop\n    /* \"Voting.sol\":963:970  creator */\n  dup1\n    /* \"Voting.sol\":953:960  manager */\n  0x00\n  dup1\n    /* \"Voting.sol\":953:970  manager = creator */\n  0x0100\n  exp\n  dup2\n  sload\n  dup2\n  0xffffffffffffffffffffffffffffffffffffffff\n  mul\n  not\n  and\n  swap1\n  dup4\n  0xffffffffffffffffffffffffffffffffffffffff\n  and\n  mul\n  or\n  swap1\n  sstore\n  pop\n    /* \"Voting.sol\":869:978  constructor(string memory about, address creator) {... */\n  pop\n  pop\n    /* \"Voting.sol\":441:2034  contract VotingCampaign{... */\n  jump(tag_10)\n    /* \"#utility.yul\":7:84   */\ntag_11:\n    /* \"#utility.yul\":44:51   */\n  0x00\n    /* \"#utility.yul\":73:78   */\n  dup2\n    /* \"#utility.yul\":62:78   */\n  swap1\n  pop\n    /* \"#utility.yul\":7:84   */\n  swap2\n  swap1\n  pop\n  jump\t// out\n    /* \"#utility.yul\":90:270   */\ntag_12:\n    /* \"#utility.yul\":138:215   */\n  0x4e487b7100000000000000000000000000000000000000000000000000000000\n    /* \"#utility.yul\":135:136   */\n  0x00\n    /* \"#utility.yul\":128:216   */\n  mstore\n    /* \"#utility.yul\":235:239   */\n  0x11\n    /* \"#utility.yul\":232:233   */\n  0x04\n    /* \"#utility.yul\":225:240   */\n  mstore\n    /* \"#utility.yul\":259:263   */\n  0x24\n    /* \"#utility.yul\":256:257   */\n  0x00\n    /* \"#utility.yul\":249:264   */\n  revert\n    /* \"#utility.yul\":276:470   */\ntag_2:\n    /* \"#utility.yul\":316:320   */\n  0x00\n    /* \"#utility.yul\":336:356   */\n  tag_52\n    /* \"#utility.yul\":354:355   */\n  dup3\n    /* \"#utility.yul\":336:356   */\n  tag_11\n  jump\t// in\ntag_52:\n    /* \"#utility.yul\":331:356   */\n  swap2\n  pop\n    /* \"#utility.yul\":370:390   */\n  tag_53\n    /* \"#utility.yul\":388:389   */\n  dup4\n    /* \"#utility.yul\":370:390   */\n  tag_11\n  jump\t// in\ntag_53:\n    /* \"#utility.yul\":365:390   */\n  swap3\n  pop\n    /* \"#utility.yul\":414:415   */\n  dup3\n    /* \"#utility.yul\":411:412   */\n  dup3\n    /* \"#utility.yul\":407:416   */\n  sub\n    /* \"#utility.yul\":399:416   */\n  swap1\n  pop\n    /* \"#utility.yul\":438:439   */\n  dup2\n    /* \"#utility.yul\":432:436   */\n  dup2\n    /* \"#utility.yul\":429:440   */\n  gt\n    /* \"#utility.yul\":426:463   */\n  iszero\n  tag_54\n  jumpi\n    /* \"#utility.yul\":443:461   */\n  tag_55\n  tag_12\n  jump\t// in\ntag_55:\n    /* \"#utility.yul\":426:463   */\ntag_54:\n    /* \"#utility.yul\":276:470   */\n  swap3\n  swap2\n  pop\n  pop\n  jump\t// out\n    /* \"#utility.yul\":476:551   */\ntag_13:\n    /* \"#utility.yul\":509:515   */\n  0x00\n    /* \"#utility.yul\":542:544   */\n  0x40\n    /* \"#utility.yul\":536:545   */\n  mload\n    /* \"#utility.yul\":526:545   */\n  swap1\n  pop\n    /* \"#utility.yul\":476:551   */\n  swap1\n  jump\t// out\n    /* \"#utility.yul\":557:674   */\ntag_14:\n    /* \"#utility.yul\":666:667   */\n  0x00\n    /* \"#utility.yul\":663:664   */\n  dup1\n    /* \"#utility.yul\":656:668   */\n  revert\n    /* \"#utility.yul\":680:797   */\ntag_15:\n    /* \"#utility.yul\":789:790   */\n  0x00\n    /* \"#utility.yul\":786:787   */\n  dup1\n    /* \"#utility.yul\":779:791   */\n  revert\n    /* \"#utility.yul\":803:920   */\ntag_16:\n    /* \"#utility.yul\":912:913   */\n  0x00\n    /* \"#utility.yul\":909:910   */\n  dup1\n    /* \"#utility.yul\":902:914   */\n  revert\n    /* \"#utility.yul\":926:1043   */\ntag_17:\n    /* \"#utility.yul\":1035:1036   */\n  0x00\n    /* \"#utility.yul\":1032:1033   */\n  dup1\n    /* \"#utility.yul\":1025:1037   */\n  revert\n    /* \"#utility.yul\":1049:1151   */\ntag_18:\n    /* \"#utility.yul\":1090:1096   */\n  0x00\n    /* \"#utility.yul\":1141:1143   */\n  0x1f\n    /* \"#utility.yul\":1137:1144   */\n  not\n    /* \"#utility.yul\":1132:1134   */\n  0x1f\n    /* \"#utility.yul\":1125:1130   */\n  dup4\n    /* \"#utility.yul\":1121:1135   */\n  add\n    /* \"#utility.yul\":1117:1145   */\n  and\n    /* \"#utility.yul\":1107:1145   */\n  swap1\n  pop\n    /* \"#utility.yul\":1049:1151   */\n  swap2\n  swap1\n  pop\n  jump\t// out\n    /* \"#utility.yul\":1157:1337   */\ntag_19:\n    /* \"#utility.yul\":1205:1282   */\n  0x4e487b7100000000000000000000000000000000000000000000000000000000\n    /* \"#utility.yul\":1202:1203   */\n  0x00\n    /* \"#utility.yul\":1195:1283   */\n  mstore\n    /* \"#utility.yul\":1302:1306   */\n  0x41\n    /* \"#utility.yul\":1299:1300   */\n  0x04\n    /* \"#utility.yul\":1292:1307   */\n  mstore\n    /* \"#utility.yul\":1326:1330   */\n  0x24\n    /* \"#utility.yul\":1323:1324   */\n  0x00\n    /* \"#utility.yul\":1316:1331   */\n  revert\n    /* \"#utility.yul\":1343:1624   */\ntag_20:\n    /* \"#utility.yul\":1426:1453   */\n  tag_64\n    /* \"#utility.yul\":1448:1452   */\n  dup3\n    /* \"#utility.yul\":1426:1453   */\n  tag_18\n  jump\t// in\ntag_64:\n    /* \"#utility.yul\":1418:1424   */\n  dup2\n    /* \"#utility.yul\":1414:1454   */\n  add\n    /* \"#utility.yul\":1556:1562   */\n  dup2\n    /* \"#utility.yul\":1544:1554   */\n  dup2\n    /* \"#utility.yul\":1541:1563   */\n  lt\n    /* \"#utility.yul\":1520:1538   */\n  0xffffffffffffffff\n    /* \"#utility.yul\":1508:1518   */\n  dup3\n    /* \"#utility.yul\":1505:1539   */\n  gt\n    /* \"#utility.yul\":1502:1564   */\n  or\n    /* \"#utility.yul\":1499:1587   */\n  iszero\n  tag_65\n  jumpi\n    /* \"#utility.yul\":1567:1585   */\n  tag_66\n  tag_19\n  jump\t// in\ntag_66:\n    /* \"#utility.yul\":1499:1587   */\ntag_65:\n    /* \"#utility.yul\":1607:1617   */\n  dup1\n    /* \"#utility.yul\":1603:1605   */\n  0x40\n    /* \"#utility.yul\":1596:1618   */\n  mstore\n    /* \"#utility.yul\":1386:1624   */\n  pop\n    /* \"#utility.yul\":1343:1624   */\n  pop\n  pop\n  jump\t// out\n    /* \"#utility.yul\":1630:1759   */\ntag_21:\n    /* \"#utility.yul\":1664:1670   */\n  0x00\n    /* \"#utility.yul\":1691:1711   */\n  tag_68\n  tag_13\n  jump\t// in\ntag_68:\n    /* \"#utility.yul\":1681:1711   */\n  swap1\n  pop\n    /* \"#utility.yul\":1720:1753   */\n  tag_69\n    /* \"#utility.yul\":1748:1752   */\n  dup3\n    /* \"#utility.yul\":1740:1746   */\n  dup3\n    /* \"#utility.yul\":1720:1753   */\n  tag_20\n  jump\t// in\ntag_69:\n    /* \"#utility.yul\":1630:1759   */\n  swap2\n  swap1\n  pop\n  jump\t// out\n    /* \"#utility.yul\":1765:2073   */\ntag_22:\n    /* \"#utility.yul\":1827:1831   */\n  0x00\n    /* \"#utility.yul\":1917:1935   */\n  0xffffffffffffffff\n    /* \"#utility.yul\":1909:1915   */\n  dup3\n    /* \"#utility.yul\":1906:1936   */\n  gt\n    /* \"#utility.yul\":1903:1959   */\n  iszero\n  tag_71\n  jumpi\n    /* \"#utility.yul\":1939:1957   */\n  tag_72\n  tag_19\n  jump\t// in\ntag_72:\n    /* \"#utility.yul\":1903:1959   */\ntag_71:\n    /* \"#utility.yul\":1977:2006   */\n  tag_73\n    /* \"#utility.yul\":1999:2005   */\n  dup3\n    /* \"#utility.yul\":1977:2006   */\n  tag_18\n  jump\t// in\ntag_73:\n    /* \"#utility.yul\":1969:2006   */\n  swap1\n  pop\n    /* \"#utility.yul\":2061:2065   */\n  0x20\n    /* \"#utility.yul\":2055:2059   */\n  dup2\n    /* \"#utility.yul\":2051:2066   */\n  add\n    /* \"#utility.yul\":2043:2066   */\n  swap1\n  pop\n    /* \"#utility.yul\":1765:2073   */\n  swap2\n  swap1\n  pop\n  jump\t// out\n    /* \"#utility.yul\":2079:2325   */\ntag_23:\n    /* \"#utility.yul\":2160:2161   */\n  0x00\n    /* \"#utility.yul\":2170:2283   */\ntag_75:\n    /* \"#utility.yul\":2184:2190   */\n  dup4\n    /* \"#utility.yul\":2181:2182   */\n  dup2\n    /* \"#utility.yul\":2178:2191   */\n  lt\n    /* \"#utility.yul\":2170:2283   */\n  iszero\n  tag_77\n  jumpi\n    /* \"#utility.yul\":2269:2270   */\n  dup1\n    /* \"#utility.yul\":2264:2267   */\n  dup3\n    /* \"#utility.yul\":2260:2271   */\n  add\n    /* \"#utility.yul\":2254:2272   */\n  mload\n    /* \"#utility.yul\":2250:2251   */\n  dup2\n    /* \"#utility.yul\":2245:2248   */\n  dup5\n    /* \"#utility.yul\":2241:2252   */\n  add\n    /* \"#utility.yul\":2234:2273   */\n  mstore\n    /* \"#utility.yul\":2206:2208   */\n  0x20\n    /* \"#utility.yul\":2203:2204   */\n  dup2\n    /* \"#utility.yul\":2199:2209   */\n  add\n    /* \"#utility.yul\":2194:2209   */\n  swap1\n  pop\n    /* \"#utility.yul\":2170:2283   */\n  jump(tag_75)\ntag_77:\n    /* \"#utility.yul\":2317:2318   */\n  0x00\n    /* \"#utility.yul\":2308:2314   */\n  dup5\n    /* \"#utility.yul\":2303:2306   */\n  dup5\n    /* \"#utility.yul\":2299:2315   */\n  add\n    /* \"#utility.yul\":2292:2319   */\n  mstore\n    /* \"#utility.yul\":2141:2325   */\n  pop\n    /* \"#utility.yul\":2079:2325   */\n  pop\n  pop\n  pop\n  jump\t// out\n    /* \"#utility.yul\":2331:2765   */\ntag_24:\n    /* \"#utility.yul\":2420:2425   */\n  0x00\n    /* \"#utility.yul\":2445:2511   */\n  tag_79\n    /* \"#utility.yul\":2461:2510   */\n  tag_80\n    /* \"#utility.yul\":2503:2509   */\n  dup5\n    /* \"#utility.yul\":2461:2510   */\n  tag_22\n  jump\t// in\ntag_80:\n    /* \"#utility.yul\":2445:2511   */\n  tag_21\n  jump\t// in\ntag_79:\n    /* \"#utility.yul\":2436:2511   */\n  swap1\n  pop\n    /* \"#utility.yul\":2534:2540   */\n  dup3\n    /* \"#utility.yul\":2527:2532   */\n  dup2\n    /* \"#utility.yul\":2520:2541   */\n  mstore\n    /* \"#utility.yul\":2572:2576   */\n  0x20\n    /* \"#utility.yul\":2565:2570   */\n  dup2\n    /* \"#utility.yul\":2561:2577   */\n  add\n    /* \"#utility.yul\":2610:2613   */\n  dup5\n    /* \"#utility.yul\":2601:2607   */\n  dup5\n    /* \"#utility.yul\":2596:2599   */\n  dup5\n    /* \"#utility.yul\":2592:2608   */\n  add\n    /* \"#utility.yul\":2589:2614   */\n  gt\n    /* \"#utility.yul\":2586:2698   */\n  iszero\n  tag_81\n  jumpi\n    /* \"#utility.yul\":2617:2696   */\n  tag_82\n  tag_17\n  jump\t// in\ntag_82:\n    /* \"#utility.yul\":2586:2698   */\ntag_81:\n    /* \"#utility.yul\":2707:2759   */\n  tag_83\n    /* \"#utility.yul\":2752:2758   */\n  dup5\n    /* \"#utility.yul\":2747:2750   */\n  dup3\n    /* \"#utility.yul\":2742:2745   */\n  dup6\n    /* \"#utility.yul\":2707:2759   */\n  tag_23\n  jump\t// in\ntag_83:\n    /* \"#utility.yul\":2426:2765   */\n  pop\n    /* \"#utility.yul\":2331:2765   */\n  swap4\n  swap3\n  pop\n  pop\n  pop\n  jump\t// out\n    /* \"#utility.yul\":2785:3140   */\ntag_25:\n    /* \"#utility.yul\":2852:2857   */\n  0x00\n    /* \"#utility.yul\":2901:2904   */\n  dup3\n    /* \"#utility.yul\":2894:2898   */\n  0x1f\n    /* \"#utility.yul\":2886:2892   */\n  dup4\n    /* \"#utility.yul\":2882:2899   */\n  add\n    /* \"#utility.yul\":2878:2905   */\n  slt\n    /* \"#utility.yul\":2868:2990   */\n  tag_85\n  jumpi\n    /* \"#utility.yul\":2909:2988   */\n  tag_86\n  tag_16\n  jump\t// in\ntag_86:\n    /* \"#utility.yul\":2868:2990   */\ntag_85:\n    /* \"#utility.yul\":3019:3025   */\n  dup2\n    /* \"#utility.yul\":3013:3026   */\n  mload\n    /* \"#utility.yul\":3044:3134   */\n  tag_87\n    /* \"#utility.yul\":3130:3133   */\n  dup5\n    /* \"#utility.yul\":3122:3128   */\n  dup3\n    /* \"#utility.yul\":3115:3119   */\n  0x20\n    /* \"#utility.yul\":3107:3113   */\n  dup7\n    /* \"#utility.yul\":3103:3120   */\n  add\n    /* \"#utility.yul\":3044:3134   */\n  tag_24\n  jump\t// in\ntag_87:\n    /* \"#utility.yul\":3035:3134   */\n  swap2\n  pop\n    /* \"#utility.yul\":2858:3140   */\n  pop\n    /* \"#utility.yul\":2785:3140   */\n  swap3\n  swap2\n  pop\n  pop\n  jump\t// out\n    /* \"#utility.yul\":3146:3272   */\ntag_26:\n    /* \"#utility.yul\":3183:3190   */\n  0x00\n    /* \"#utility.yul\":3223:3265   */\n  0xffffffffffffffffffffffffffffffffffffffff\n    /* \"#utility.yul\":3216:3221   */\n  dup3\n    /* \"#utility.yul\":3212:3266   */\n  and\n    /* \"#utility.yul\":3201:3266   */\n  swap1\n  pop\n    /* \"#utility.yul\":3146:3272   */\n  swap2\n  swap1\n  pop\n  jump\t// out\n    /* \"#utility.yul\":3278:3374   */\ntag_27:\n    /* \"#utility.yul\":3315:3322   */\n  0x00\n    /* \"#utility.yul\":3344:3368   */\n  tag_90\n    /* \"#utility.yul\":3362:3367   */\n  dup3\n    /* \"#utility.yul\":3344:3368   */\n  tag_26\n  jump\t// in\ntag_90:\n    /* \"#utility.yul\":3333:3368   */\n  swap1\n  pop\n    /* \"#utility.yul\":3278:3374   */\n  swap2\n  swap1\n  pop\n  jump\t// out\n    /* \"#utility.yul\":3380:3502   */\ntag_28:\n    /* \"#utility.yul\":3453:3477   */\n  tag_92\n    /* \"#utility.yul\":3471:3476   */\n  dup2\n    /* \"#utility.yul\":3453:3477   */\n  tag_27\n  jump\t// in\ntag_92:\n    /* \"#utility.yul\":3446:3451   */\n  dup2\n    /* \"#utility.yul\":3443:3478   */\n  eq\n    /* \"#utility.yul\":3433:3496   */\n  tag_93\n  jumpi\n    /* \"#utility.yul\":3492:3493   */\n  0x00\n    /* \"#utility.yul\":3489:3490   */\n  dup1\n    /* \"#utility.yul\":3482:3494   */\n  revert\n    /* \"#utility.yul\":3433:3496   */\ntag_93:\n    /* \"#utility.yul\":3380:3502   */\n  pop\n  jump\t// out\n    /* \"#utility.yul\":3508:3651   */\ntag_29:\n    /* \"#utility.yul\":3565:3570   */\n  0x00\n    /* \"#utility.yul\":3596:3602   */\n  dup2\n    /* \"#utility.yul\":3590:3603   */\n  mload\n    /* \"#utility.yul\":3581:3603   */\n  swap1\n  pop\n    /* \"#utility.yul\":3612:3645   */\n  tag_95\n    /* \"#utility.yul\":3639:3644   */\n  dup2\n    /* \"#utility.yul\":3612:3645   */\n  tag_28\n  jump\t// in\ntag_95:\n    /* \"#utility.yul\":3508:3651   */\n  swap3\n  swap2\n  pop\n  pop\n  jump\t// out\n    /* \"#utility.yul\":3657:4337   */\ntag_5:\n    /* \"#utility.yul\":3746:3752   */\n  0x00\n    /* \"#utility.yul\":3754:3760   */\n  dup1\n    /* \"#utility.yul\":3803:3805   */\n  0x40\n    /* \"#utility.yul\":3791:3800   */\n  dup4\n    /* \"#utility.yul\":3782:3789   */\n  dup6\n    /* \"#utility.yul\":3778:3801   */\n  sub\n    /* \"#utility.yul\":3774:3806   */\n  slt\n    /* \"#utility.yul\":3771:3890   */\n  iszero\n  tag_97\n  jumpi\n    /* \"#utility.yul\":3809:3888   */\n  tag_98\n  tag_14\n  jump\t// in\ntag_98:\n    /* \"#utility.yul\":3771:3890   */\ntag_97:\n    /* \"#utility.yul\":3950:3951   */\n  0x00\n    /* \"#utility.yul\":3939:3948   */\n  dup4\n    /* \"#utility.yul\":3935:3952   */\n  add\n    /* \"#utility.yul\":3929:3953   */\n  mload\n    /* \"#utility.yul\":3980:3998   */\n  0xffffffffffffffff\n    /* \"#utility.yul\":3972:3978   */\n  dup2\n    /* \"#utility.yul\":3969:3999   */\n  gt\n    /* \"#utility.yul\":3966:4083   */\n  iszero\n  tag_99\n  jumpi\n    /* \"#utility.yul\":4002:4081   */\n  tag_100\n  tag_15\n  jump\t// in\ntag_100:\n    /* \"#utility.yul\":3966:4083   */\ntag_99:\n    /* \"#utility.yul\":4107:4181   */\n  tag_101\n    /* \"#utility.yul\":4173:4180   */\n  dup6\n    /* \"#utility.yul\":4164:4170   */\n  dup3\n    /* \"#utility.yul\":4153:4162   */\n  dup7\n    /* \"#utility.yul\":4149:4171   */\n  add\n    /* \"#utility.yul\":4107:4181   */\n  tag_25\n  jump\t// in\ntag_101:\n    /* \"#utility.yul\":4097:4181   */\n  swap3\n  pop\n    /* \"#utility.yul\":3900:4191   */\n  pop\n    /* \"#utility.yul\":4230:4232   */\n  0x20\n    /* \"#utility.yul\":4256:4320   */\n  tag_102\n    /* \"#utility.yul\":4312:4319   */\n  dup6\n    /* \"#utility.yul\":4303:4309   */\n  dup3\n    /* \"#utility.yul\":4292:4301   */\n  dup7\n    /* \"#utility.yul\":4288:4310   */\n  add\n    /* \"#utility.yul\":4256:4320   */\n  tag_29\n  jump\t// in\ntag_102:\n    /* \"#utility.yul\":4246:4320   */\n  swap2\n  pop\n    /* \"#utility.yul\":4201:4330   */\n  pop\n    /* \"#utility.yul\":3657:4337   */\n  swap3\n  pop\n  swap3\n  swap1\n  pop\n  jump\t// out\n    /* \"#utility.yul\":4343:4442   */\ntag_30:\n    /* \"#utility.yul\":4395:4401   */\n  0x00\n    /* \"#utility.yul\":4429:4434   */\n  dup2\n    /* \"#utility.yul\":4423:4435   */\n  mload\n    /* \"#utility.yul\":4413:4435   */\n  swap1\n  pop\n    /* \"#utility.yul\":4343:4442   */\n  swap2\n  swap1\n  pop\n  jump\t// out\n    /* \"#utility.yul\":4448:4628   */\ntag_31:\n    /* \"#utility.yul\":4496:4573   */\n  0x4e487b7100000000000000000000000000000000000000000000000000000000\n    /* \"#utility.yul\":4493:4494   */\n  0x00\n    /* \"#utility.yul\":4486:4574   */\n  mstore\n    /* \"#utility.yul\":4593:4597   */\n  0x22\n    /* \"#utility.yul\":4590:4591   */\n  0x04\n    /* \"#utility.yul\":4583:4598   */\n  mstore\n    /* \"#utility.yul\":4617:4621   */\n  0x24\n    /* \"#utility.yul\":4614:4615   */\n  0x00\n    /* \"#utility.yul\":4607:4622   */\n  revert\n    /* \"#utility.yul\":4634:4954   */\ntag_32:\n    /* \"#utility.yul\":4678:4684   */\n  0x00\n    /* \"#utility.yul\":4715:4716   */\n  0x02\n    /* \"#utility.yul\":4709:4713   */\n  dup3\n    /* \"#utility.yul\":4705:4717   */\n  div\n    /* \"#utility.yul\":4695:4717   */\n  swap1\n  pop\n    /* \"#utility.yul\":4762:4763   */\n  0x01\n    /* \"#utility.yul\":4756:4760   */\n  dup3\n    /* \"#utility.yul\":4752:4764   */\n  and\n    /* \"#utility.yul\":4783:4801   */\n  dup1\n    /* \"#utility.yul\":4773:4854   */\n  tag_106\n  jumpi\n    /* \"#utility.yul\":4839:4843   */\n  0x7f\n    /* \"#utility.yul\":4831:4837   */\n  dup3\n    /* \"#utility.yul\":4827:4844   */\n  and\n    /* \"#utility.yul\":4817:4844   */\n  swap2\n  pop\n    /* \"#utility.yul\":4773:4854   */\ntag_106:\n    /* \"#utility.yul\":4901:4903   */\n  0x20\n    /* \"#utility.yul\":4893:4899   */\n  dup3\n    /* \"#utility.yul\":4890:4904   */\n  lt\n    /* \"#utility.yul\":4870:4888   */\n  dup2\n    /* \"#utility.yul\":4867:4905   */\n  sub\n    /* \"#utility.yul\":4864:4948   */\n  tag_107\n  jumpi\n    /* \"#utility.yul\":4920:4938   */\n  tag_108\n  tag_31\n  jump\t// in\ntag_108:\n    /* \"#utility.yul\":4864:4948   */\ntag_107:\n    /* \"#utility.yul\":4685:4954   */\n  pop\n    /* \"#utility.yul\":4634:4954   */\n  swap2\n  swap1\n  pop\n  jump\t// out\n    /* \"#utility.yul\":4960:5101   */\ntag_33:\n    /* \"#utility.yul\":5009:5013   */\n  0x00\n    /* \"#utility.yul\":5032:5035   */\n  dup2\n    /* \"#utility.yul\":5024:5035   */\n  swap1\n  pop\n    /* \"#utility.yul\":5055:5058   */\n  dup2\n    /* \"#utility.yul\":5052:5053   */\n  0x00\n    /* \"#utility.yul\":5045:5059   */\n  mstore\n    /* \"#utility.yul\":5089:5093   */\n  0x20\n    /* \"#utility.yul\":5086:5087   */\n  0x00\n    /* \"#utility.yul\":5076:5094   */\n  keccak256\n    /* \"#utility.yul\":5068:5094   */\n  swap1\n  pop\n    /* \"#utility.yul\":4960:5101   */\n  swap2\n  swap1\n  pop\n  jump\t// out\n    /* \"#utility.yul\":5107:5200   */\ntag_34:\n    /* \"#utility.yul\":5144:5150   */\n  0x00\n    /* \"#utility.yul\":5191:5193   */\n  0x20\n    /* \"#utility.yul\":5186:5188   */\n  0x1f\n    /* \"#utility.yul\":5179:5184   */\n  dup4\n    /* \"#utility.yul\":5175:5189   */\n  add\n    /* \"#utility.yul\":5171:5194   */\n  div\n    /* \"#utility.yul\":5161:5194   */\n  swap1\n  pop\n    /* \"#utility.yul\":5107:5200   */\n  swap2\n  swap1\n  pop\n  jump\t// out\n    /* \"#utility.yul\":5206:5313   */\ntag_35:\n    /* \"#utility.yul\":5250:5258   */\n  0x00\n    /* \"#utility.yul\":5300:5305   */\n  dup3\n    /* \"#utility.yul\":5294:5298   */\n  dup3\n    /* \"#utility.yul\":5290:5306   */\n  shl\n    /* \"#utility.yul\":5269:5306   */\n  swap1\n  pop\n    /* \"#utility.yul\":5206:5313   */\n  swap3\n  swap2\n  pop\n  pop\n  jump\t// out\n    /* \"#utility.yul\":5319:5712   */\ntag_36:\n    /* \"#utility.yul\":5388:5394   */\n  0x00\n    /* \"#utility.yul\":5438:5439   */\n  0x08\n    /* \"#utility.yul\":5426:5436   */\n  dup4\n    /* \"#utility.yul\":5422:5440   */\n  mul\n    /* \"#utility.yul\":5461:5558   */\n  tag_113\n    /* \"#utility.yul\":5491:5557   */\n  0xffffffffffffffffffffffffffffffffffffffffffffffffffffffffffffffff\n    /* \"#utility.yul\":5480:5489   */\n  dup3\n    /* \"#utility.yul\":5461:5558   */\n  tag_35\n  jump\t// in\ntag_113:\n    /* \"#utility.yul\":5579:5618   */\n  tag_114\n    /* \"#utility.yul\":5609:5617   */\n  dup7\n    /* \"#utility.yul\":5598:5607   */\n  dup4\n    /* \"#utility.yul\":5579:5618   */\n  tag_35\n  jump\t// in\ntag_114:\n    /* \"#utility.yul\":5567:5618   */\n  swap6\n  pop\n    /* \"#utility.yul\":5651:5655   */\n  dup1\n    /* \"#utility.yul\":5647:5656   */\n  not\n    /* \"#utility.yul\":5640:5645   */\n  dup5\n    /* \"#utility.yul\":5636:5657   */\n  and\n    /* \"#utility.yul\":5627:5657   */\n  swap4\n  pop\n    /* \"#utility.yul\":5700:5704   */\n  dup1\n    /* \"#utility.yul\":5690:5698   */\n  dup7\n    /* \"#utility.yul\":5686:5705   */\n  and\n    /* \"#utility.yul\":5679:5684   */\n  dup5\n    /* \"#utility.yul\":5676:5706   */\n  or\n    /* \"#utility.yul\":5666:5706   */\n  swap3\n  pop\n    /* \"#utility.yul\":5395:5712   */\n  pop\n  pop\n    /* \"#utility.yul\":5319:5712   */\n  swap4\n  swap3\n  pop\n  pop\n  pop\n  jump\t// out\n    /* \"#utility.yul\":5718:5778   */\ntag_37:\n    /* \"#utility.yul\":5746:5749   */\n  0x00\n    /* \"#utility.yul\":5767:5772   */\n  dup2\n    /* \"#utility.yul\":5760:5772   */\n  swap1\n  pop\n    /* \"#utility.yul\":5718:5778   */\n  swap2\n  swap1\n  pop\n  jump\t// out\n    /* \"#utility.yul\":5784:5926   */\ntag_38:\n    /* \"#utility.yul\":5834:5843   */\n  0x00\n    /* \"#utility.yul\":5867:5920   */\n  tag_117\n    /* \"#utility.yul\":5885:5919   */\n  tag_118\n    /* \"#utility.yul\":5894:5918   */\n  tag_119\n    /* \"#utility.yul\":5912:5917   */\n  dup5\n    /* \"#utility.yul\":5894:5918   */\n  tag_11\n  jump\t// in\ntag_119:\n    /* \"#utility.yul\":5885:5919   */\n  tag_37\n  jump\t// in\ntag_118:\n    /* \"#utility.yul\":5867:5920   */\n  tag_11\n  jump\t// in\ntag_117:\n    /* \"#utility.yul\":5854:5920   */\n  swap1\n  pop\n    /* \"#utility.yul\":5784:5926   */\n  swap2\n  swap1\n  pop\n  jump\t// out\n    /* \"#utility.yul\":5932:6007   */\ntag_39:\n    /* \"#utility.yul\":5975:5978   */\n  0x00\n    /* \"#utility.yul\":5996:6001   */\n  dup2\n    /* \"#utility.yul\":5989:6001   */\n  swap1\n  pop\n    /* \"#utility.yul\":5932:6007   */\n  swap2\n  swap1\n  pop\n  jump\t// out\n    /* \"#utility.yul\":6013:6282   */\ntag_40:\n    /* \"#utility.yul\":6123:6162   */\n  tag_122\n    /* \"#utility.yul\":6154:6161   */\n  dup4\n    /* \"#utility.yul\":6123:6162   */\n  tag_38\n  jump\t// in\ntag_122:\n    /* \"#utility.yul\":6184:6275   */\n  tag_123\n    /* \"#utility.yul\":6233:6274   */\n  tag_124\n    /* \"#utility.yul\":6257:6273   */\n  dup3\n    /* \"#utility.yul\":6233:6274   */\n  tag_39\n  jump\t// in\ntag_124:\n    /* \"#utility.yul\":6225:6231   */\n  dup5\n    /* \"#utility.yul\":6218:6222   */\n  dup5\n    /* \"#utility.yul\":6212:6223   */\n  sload\n    /* \"#utility.yul\":6184:6275   */\n  tag_36\n  jump\t// in\ntag_123:\n    /* \"#utility.yul\":6178:6182   */\n  dup3\n    /* \"#utility.yul\":6171:6276   */\n  sstore\n    /* \"#utility.yul\":6089:6282   */\n  pop\n    /* \"#utility.yul\":6013:6282   */\n  pop\n  pop\n  pop\n  jump\t// out\n    /* \"#utility.yul\":6288:6361   */\ntag_41:\n    /* \"#utility.yul\":6333:6336   */\n  0x00\n    /* \"#utility.yul\":6288:6361   */\n  swap1\n  jump\t// out\n    /* \"#utility.yul\":6367:6556   */\ntag_42:\n    /* \"#utility.yul\":6444:6476   */\n  tag_127\n  tag_41\n  jump\t// in\ntag_127:\n    /* \"#utility.yul\":6485:6550   */\n  tag_128\n    /* \"#utility.yul\":6543:6549   */\n  dup2\n    /* \"#utility.yul\":6535:6541   */\n  dup5\n    /* \"#utility.yul\":6529:6533   */\n  dup5\n    /* \"#utility.yul\":6485:6550   */\n  tag_40\n  jump\t// in\ntag_128:\n    /* \"#utility.yul\":6420:6556   */\n  pop\n    /* \"#utility.yul\":6367:6556   */\n  pop\n  pop\n  jump\t// out\n    /* \"#utility.yul\":6562:6748   */\ntag_43:\n    /* \"#utility.yul\":6622:6742   */\ntag_130:\n    /* \"#utility.yul\":6639:6642   */\n  dup2\n    /* \"#utility.yul\":6632:6637   */\n  dup2\n    /* \"#utility.yul\":6629:6643   */\n  lt\n    /* \"#utility.yul\":6622:6742   */\n  iszero\n  tag_132\n  jumpi\n    /* \"#utility.yul\":6693:6732   */\n  tag_133\n    /* \"#utility.yul\":6730:6731   */\n  0x00\n    /* \"#utility.yul\":6723:6728   */\n  dup3\n    /* \"#utility.yul\":6693:6732   */\n  tag_42\n  jump\t// in\ntag_133:\n    /* \"#utility.yul\":6666:6667   */\n  0x01\n    /* \"#utility.yul\":6659:6664   */\n  dup2\n    /* \"#utility.yul\":6655:6668   */\n  add\n    /* \"#utility.yul\":6646:6668   */\n  swap1\n  pop\n    /* \"#utility.yul\":6622:6742   */\n  jump(tag_130)\ntag_132:\n    /* \"#utility.yul\":6562:6748   */\n  pop\n  pop\n  jump\t// out\n    /* \"#utility.yul\":6754:7297   */\ntag_44:\n    /* \"#utility.yul\":6855:6857   */\n  0x1f\n    /* \"#utility.yul\":6850:6853   */\n  dup3\n    /* \"#utility.yul\":6847:6858   */\n  gt\n    /* \"#utility.yul\":6844:7290   */\n  iszero\n  tag_135\n  jumpi\n    /* \"#utility.yul\":6889:6927   */\n  tag_136\n    /* \"#utility.yul\":6921:6926   */\n  dup2\n    /* \"#utility.yul\":6889:6927   */\n  tag_33\n  jump\t// in\ntag_136:\n    /* \"#utility.yul\":6973:7002   */\n  tag_137\n    /* \"#utility.yul\":6991:7001   */\n  dup5\n    /* \"#utility.yul\":6973:7002   */\n  tag_34\n  jump\t// in\ntag_137:\n    /* \"#utility.yul\":6963:6971   */\n  dup2\n    /* \"#utility.yul\":6959:7003   */\n  add\n    /* \"#utility.yul\":7156:7158   */\n  0x20\n    /* \"#utility.yul\":7144:7154   */\n  dup6\n    /* \"#utility.yul\":7141:7159   */\n  lt\n    /* \"#utility.yul\":7138:7187   */\n  iszero\n  tag_138\n  jumpi\n    /* \"#utility.yul\":7177:7185   */\n  dup2\n    /* \"#utility.yul\":7162:7185   */\n  swap1\n  pop\n    /* \"#utility.yul\":7138:7187   */\ntag_138:\n    /* \"#utility.yul\":7200:7280   */\n  tag_139\n    /* \"#utility.yul\":7256:7278   */\n  tag_140\n    /* \"#utility.yul\":7274:7277   */\n  dup6\n    /* \"#utility.yul\":7256:7278   */\n  tag_34\n  jump\t// in\ntag_140:\n    /* \"#utility.yul\":7246:7254   */\n  dup4\n    /* \"#utility.yul\":7242:7279   */\n  add\n    /* \"#utility.yul\":7229:7240   */\n  dup3\n    /* \"#utility.yul\":7200:7280   */\n  tag_43\n  jump\t// in\ntag_139:\n    /* \"#utility.yul\":6859:7290   */\n  pop\n  pop\n    /* \"#utility.yul\":6844:7290   */\ntag_135:\n    /* \"#utility.yul\":6754:7297   */\n  pop\n  pop\n  pop\n  jump\t// out\n    /* \"#utility.yul\":7303:7420   */\ntag_45:\n    /* \"#utility.yul\":7357:7365   */\n  0x00\n    /* \"#utility.yul\":7407:7412   */\n  dup3\n    /* \"#utility.yul\":7401:7405   */\n  dup3\n    /* \"#utility.yul\":7397:7413   */\n  shr\n    /* \"#utility.yul\":7376:7413   */\n  swap1\n  pop\n    /* \"#utility.yul\":7303:7420   */\n  swap3\n  swap2\n  pop\n  pop\n  jump\t// out\n    /* \"#utility.yul\":7426:7595   */\ntag_46:\n    /* \"#utility.yul\":7470:7476   */\n  0x00\n    /* \"#utility.yul\":7503:7554   */\n  tag_143\n    /* \"#utility.yul\":7551:7552   */\n  0x00\n    /* \"#utility.yul\":7547:7553   */\n  not\n    /* \"#utility.yul\":7539:7544   */\n  dup5\n    /* \"#utility.yul\":7536:7537   */\n  0x08\n    /* \"#utility.yul\":7532:7545   */\n  mul\n    /* \"#utility.yul\":7503:7554   */\n  tag_45\n  jump\t// in\ntag_143:\n    /* \"#utility.yul\":7499:7555   */\n  not\n    /* \"#utility.yul\":7584:7588   */\n  dup1\n    /* \"#utility.yul\":7578:7582   */\n  dup4\n    /* \"#utility.yul\":7574:7589   */\n  and\n    /* \"#utility.yul\":7564:7589   */\n  swap2\n  pop\n    /* \"#utility.yul\":7477:7595   */\n  pop\n    /* \"#utility.yul\":7426:7595   */\n  swap3\n  swap2\n  pop\n  pop\n  jump\t// out\n    /* \"#utility.yul\":7600:7895   */\ntag_47:\n    /* \"#utility.yul\":7676:7680   */\n  0x00\n    /* \"#utility.yul\":7822:7851   */\n  tag_145\n    /* \"#utility.yul\":7847:7850   */\n  dup4\n    /* \"#utility.yul\":7841:7845   */\n  dup4\n    /* \"#utility.yul\":7822:7851   */\n  tag_46\n  jump\t// in\ntag_145:\n    /* \"#utility.yul\":7814:7851   */\n  swap2\n  pop\n    /* \"#utility.yul\":7884:7887   */\n  dup3\n    /* \"#utility.yul\":7881:7882   */\n  0x02\n    /* \"#utility.yul\":7877:7888   */\n  mul\n    /* \"#utility.yul\":7871:7875   */\n  dup3\n    /* \"#utility.yul\":7868:7889   */\n  or\n    /* \"#utility.yul\":7860:7889   */\n  swap1\n  pop\n    /* \"#utility.yul\":7600:7895   */\n  swap3\n  swap2\n  pop\n  pop\n  jump\t// out\n    /* \"#utility.yul\":7900:9295   */\ntag_9:\n    /* \"#utility.yul\":8017:8054   */\n  tag_147\n    /* \"#utility.yul\":8050:8053   */\n  dup3\n    /* \"#utility.yul\":8017:8054   */\n  tag_30\n  jump\t// in\ntag_147:\n    /* \"#utility.yul\":8119:8137   */\n  0xffffffffffffffff\n    /* \"#utility.yul\":8111:8117   */\n  dup2\n    /* \"#utility.yul\":8108:8138   */\n  gt\n    /* \"#utility.yul\":8105:8161   */\n  iszero\n  tag_148\n  jumpi\n    /* \"#utility.yul\":8141:8159   */\n  tag_149\n  tag_19\n  jump\t// in\ntag_149:\n    /* \"#utility.yul\":8105:8161   */\ntag_148:\n    /* \"#utility.yul\":8185:8223   */\n  tag_150\n    /* \"#utility.yul\":8217:8221   */\n  dup3\n    /* \"#utility.yul\":8211:8222   */\n  sload\n    /* \"#utility.yul\":8185:8223   */\n  tag_32\n  jump\t// in\ntag_150:\n    /* \"#utility.yul\":8270:8337   */\n  tag_151\n    /* \"#utility.yul\":8330:8336   */\n  dup3\n    /* \"#utility.yul\":8322:8328   */\n  dup3\n    /* \"#utility.yul\":8316:8320   */\n  dup6\n    /* \"#utility.yul\":8270:8337   */\n  tag_44\n  jump\t// in\ntag_151:\n    /* \"#utility.yul\":8364:8365   */\n  0x00\n    /* \"#utility.yul\":8388:8392   */\n  0x20\n    /* \"#utility.yul\":8375:8392   */\n  swap1\n  pop\n    /* \"#utility.yul\":8420:8422   */\n  0x1f\n    /* \"#utility.yul\":8412:8418   */\n  dup4\n    /* \"#utility.yul\":8409:8423   */\n  gt\n    /* \"#utility.yul\":8437:8438   */\n  0x01\n    /* \"#utility.yul\":8432:9050   */\n  dup2\n  eq\n  tag_153\n  jumpi\n    /* \"#utility.yul\":9094:9095   */\n  0x00\n    /* \"#utility.yul\":9111:9117   */\n  dup5\n    /* \"#utility.yul\":9108:9185   */\n  iszero\n  tag_154\n  jumpi\n    /* \"#utility.yul\":9160:9169   */\n  dup3\n    /* \"#utility.yul\":9155:9158   */\n  dup8\n    /* \"#utility.yul\":9151:9170   */\n  add\n    /* \"#utility.yul\":9145:9171   */\n  mload\n    /* \"#utility.yul\":9136:9171   */\n  swap1\n  pop\n    /* \"#utility.yul\":9108:9185   */\ntag_154:\n    /* \"#utility.yul\":9211:9278   */\n  tag_155\n    /* \"#utility.yul\":9271:9277   */\n  dup6\n    /* \"#utility.yul\":9264:9269   */\n  dup3\n    /* \"#utility.yul\":9211:9278   */\n  tag_47\n  jump\t// in\ntag_155:\n    /* \"#utility.yul\":9205:9209   */\n  dup7\n    /* \"#utility.yul\":9198:9279   */\n  sstore\n    /* \"#utility.yul\":9067:9289   */\n  pop\n    /* \"#utility.yul\":8402:9289   */\n  jump(tag_152)\n    /* \"#utility.yul\":8432:9050   */\ntag_153:\n    /* \"#utility.yul\":8484:8488   */\n  0x1f\n    /* \"#utility.yul\":8480:8489   */\n  not\n    /* \"#utility.yul\":8472:8478   */\n  dup5\n    /* \"#utility.yul\":8468:8490   */\n  and\n    /* \"#utility.yul\":8518:8555   */\n  tag_156\n    /* \"#utility.yul\":8550:8554   */\n  dup7\n    /* \"#utility.yul\":8518:8555   */\n  tag_33\n  jump\t// in\ntag_156:\n    /* \"#utility.yul\":8577:8578   */\n  0x00\n    /* \"#utility.yul\":8591:8799   */\ntag_157:\n    /* \"#utility.yul\":8605:8612   */\n  dup3\n    /* \"#utility.yul\":8602:8603   */\n  dup2\n    /* \"#utility.yul\":8599:8613   */\n  lt\n    /* \"#utility.yul\":8591:8799   */\n  iszero\n  tag_159\n  jumpi\n    /* \"#utility.yul\":8684:8693   */\n  dup5\n    /* \"#utility.yul\":8679:8682   */\n  dup10\n    /* \"#utility.yul\":8675:8694   */\n  add\n    /* \"#utility.yul\":8669:8695   */\n  mload\n    /* \"#utility.yul\":8661:8667   */\n  dup3\n    /* \"#utility.yul\":8654:8696   */\n  sstore\n    /* \"#utility.yul\":8735:8736   */\n  0x01\n    /* \"#utility.yul\":8727:8733   */\n  dup3\n    /* \"#utility.yul\":8723:8737   */\n  add\n    /* \"#utility.yul\":8713:8737   */\n  swap2\n  pop\n    /* \"#utility.yul\":8782:8784   */\n  0x20\n    /* \"#utility.yul\":8771:8780   */\n  dup6\n    /* \"#utility.yul\":8767:8785   */\n  add\n    /* \"#utility.yul\":8754:8785   */\n  swap5\n  pop\n    /* \"#utility.yul\":8628:8632   */\n  0x20\n    /* \"#utility.yul\":8625:8626   */\n  dup2\n    /* \"#utility.yul\":8621:8633   */\n  add\n    /* \"#utility.yul\":8616:8633   */\n  swap1\n  pop\n    /* \"#utility.yul\":8591:8799   */\n  jump(tag_157)\ntag_159:\n    /* \"#utility.yul\":8827:8833   */\n  dup7\n    /* \"#utility.yul\":8818:8825   */\n  dup4\n    /* \"#utility.yul\":8815:8834   */\n  lt\n    /* \"#utility.yul\":8812:8991   */\n  iszero\n  tag_160\n  jumpi\n    /* \"#utility.yul\":8885:8894   */\n  dup5\n    /* \"#utility.yul\":8880:8883   */\n  dup10\n    /* \"#utility.yul\":8876:8895   */\n  add\n    /* \"#utility.yul\":8870:8896   */\n  mload\n    /* \"#utility.yul\":8928:8976   */\n  tag_161\n    /* \"#utility.yul\":8970:8974   */\n  0x1f\n    /* \"#utility.yul\":8962:8968   */\n  dup10\n    /* \"#utility.yul\":8958:8975   */\n  and\n    /* \"#utility.yul\":8947:8956   */\n  dup3\n    /* \"#utility.yul\":8928:8976   */\n  tag_46\n  jump\t// in\ntag_161:\n    /* \"#utility.yul\":8920:8926   */\n  dup4\n    /* \"#utility.yul\":8913:8977   */\n  sstore\n    /* \"#utility.yul\":8835:8991   */\n  pop\n    /* \"#utility.yul\":8812:8991   */\ntag_160:\n    /* \"#utility.yul\":9037:9038   */\n  0x01\n    /* \"#utility.yul\":9033:9034   */\n  0x02\n    /* \"#utility.yul\":9025:9031   */\n  dup9\n    /* \"#utility.yul\":9021:9035   */\n  mul\n    /* \"#utility.yul\":9017:9039   */\n  add\n    /* \"#utility.yul\":9011:9015   */\n  dup9\n    /* \"#utility.yul\":9004:9040   */\n  sstore\n    /* \"#utility.yul\":8439:9050   */\n  pop\n  pop\n  pop\n    /* \"#utility.yul\":8402:9289   */\ntag_152:\n  pop\n    /* \"#utility.yul\":7992:9295   */\n  pop\n  pop\n  pop\n    /* \"#utility.yul\":7900:9295   */\n  pop\n  pop\n  jump\t// out\n    /* \"Voting.sol\":441:2034  contract VotingCampaign{... */\ntag_10:\n  dataSize(sub_0)\n  dup1\n  dataOffset(sub_0)\n  0x00\n  codecopy\n  0x00\n  return\nstop\n\nsub_0: assembly {\n        /* \"Voting.sol\":441:2034  contract VotingCampaign{... */\n      mstore(0x40, 0x80)\n      callvalue\n      dup1\n      iszero\n      tag_1\n      jumpi\n      0x00\n      dup1\n      revert\n    tag_1:\n      pop\n      jumpi(tag_2, lt(calldatasize, 0x04))\n      shr(0xe0, calldataload(0x00))\n      dup1\n      0x68e2a8e4\n      gt\n      tag_16\n      jumpi\n      dup1\n      0xa7acbb2b\n      gt\n      tag_17\n      jumpi\n      dup1\n      0xa7acbb2b\n      eq\n      tag_12\n      jumpi\n      dup1\n      0xb78662e7\n      eq\n      tag_13\n      jumpi\n      dup1\n      0xe3f7db6e\n      eq\n      tag_14\n      jumpi\n      dup1\n      0xfc3cf018\n      eq\n      tag_15\n      jumpi\n      jump(tag_2)\n    tag_17:\n      dup1\n      0x68e2a8e4\n      eq\n      tag_9\n      jumpi\n      dup1\n      0x7317ea29\n      eq\n      tag_10\n      jumpi\n      dup1\n      0xa3ec138d\n      eq\n      tag_11\n      jumpi\n      jump(tag_2)\n    tag_16:\n      dup1\n      0x05684b80\n      eq\n      tag_3\n      jumpi\n      dup1\n      0x19e5bf3a\n      eq\n      tag_4\n      jumpi\n      dup1\n      0x42169e48\n      eq\n      tag_5\n      jumpi\n      dup1\n      0x481c6a75\n      eq\n      tag_6\n      jumpi\n      dup1\n      0x6423db34\n      eq\n      tag_7\n      jumpi\n      dup1\n      0x66542aa7\n      eq\n      tag_8\n      jumpi\n    tag_2:\n      0x00\n      dup1\n      revert\n        /* \"Voting.sol\":706:770  uint public agreeAbility = positiveVoteCount - negativeVoteCount */\n    tag_3:\n      tag_18\n      tag_19\n      jump\t// in\n    tag_18:\n      mload(0x40)\n      tag_20\n      swap2\n      swap1\n      tag_21\n      jump\t// in\n    tag_20:\n      mload(0x40)\n      dup1\n      swap2\n      sub\n      swap1\n      return\n        /* \"Voting.sol\":986:1167  function Register() public {... */\n    tag_4:\n      tag_22\n      tag_23\n      jump\t// in\n    tag_22:\n      stop\n        /* \"Voting.sol\":605:627  uint public voterCount */\n    tag_5:\n      tag_24\n      tag_25\n      jump\t// in\n    tag_24:\n      mload(0x40)\n      tag_26\n      swap2\n      swap1\n      tag_21\n      jump\t// in\n    tag_26:\n      mload(0x40)\n      dup1\n      swap2\n      sub\n      swap1\n      return\n        /* \"Voting.sol\":471:493  address public manager */\n    tag_6:\n      tag_27\n      tag_28\n      jump\t// in\n    tag_27:\n      mload(0x40)\n      tag_29\n      swap2\n      swap1\n      tag_30\n      jump\t// in\n    tag_29:\n      mload(0x40)\n      dup1\n      swap2\n      sub\n      swap1\n      return\n        /* \"Voting.sol\":1487:1868  function Reset() public{... */\n    tag_7:\n      tag_31\n      tag_32\n      jump\t// in\n    tag_31:\n      stop\n        /* \"Voting.sol\":570:598  address[] public individuals */\n    tag_8:\n      tag_33\n      0x04\n      dup1\n      calldatasize\n      sub\n      dup2\n      add\n      swap1\n      tag_34\n      swap2\n      swap1\n      tag_35\n      jump\t// in\n    tag_34:\n      tag_36\n      jump\t// in\n    tag_33:\n      mload(0x40)\n      tag_37\n      swap2\n      swap1\n      tag_30\n      jump\t// in\n    tag_37:\n      mload(0x40)\n      dup1\n      swap2\n      sub\n      swap1\n      return\n        /* \"Voting.sol\":500:518  string public moto */\n    tag_9:\n      tag_38\n      tag_39\n      jump\t// in\n    tag_38:\n      mload(0x40)\n      tag_40\n      swap2\n      swap1\n      tag_41\n      jump\t// in\n    tag_40:\n      mload(0x40)\n      dup1\n      swap2\n      sub\n      swap1\n      return\n        /* \"Voting.sol\":1175:1283  function VoteUp() public Required{... */\n    tag_10:\n      tag_42\n      tag_43\n      jump\t// in\n    tag_42:\n      stop\n        /* \"Voting.sol\":525:563  mapping(address => bool) public voters */\n    tag_11:\n      tag_44\n      0x04\n      dup1\n      calldatasize\n      sub\n      dup2\n      add\n      swap1\n      tag_45\n      swap2\n      swap1\n      tag_46\n      jump\t// in\n    tag_45:\n      tag_47\n      jump\t// in\n    tag_44:\n      mload(0x40)\n      tag_48\n      swap2\n      swap1\n      tag_49\n      jump\t// in\n    tag_48:\n      mload(0x40)\n      dup1\n      swap2\n      sub\n      swap1\n      return\n        /* \"Voting.sol\":670:699  uint public negativeVoteCount */\n    tag_12:\n      tag_50\n      tag_51\n      jump\t// in\n    tag_50:\n      mload(0x40)\n      tag_52\n      swap2\n      swap1\n      tag_21\n      jump\t// in\n    tag_52:\n      mload(0x40)\n      dup1\n      swap2\n      sub\n      swap1\n      return\n        /* \"Voting.sol\":1330:1440  function VoteDown() public Required{... */\n    tag_13:\n      tag_53\n      tag_54\n      jump\t// in\n    tag_53:\n      stop\n        /* \"Voting.sol\":634:663  uint public positiveVoteCount */\n    tag_14:\n      tag_55\n      tag_56\n      jump\t// in\n    tag_55:\n      mload(0x40)\n      tag_57\n      swap2\n      swap1\n      tag_21\n      jump\t// in\n    tag_57:\n      mload(0x40)\n      dup1\n      swap2\n      sub\n      swap1\n      return\n        /* \"Voting.sol\":1929:2029  function getInidviduals() public view returns(address[] memory){... */\n    tag_15:\n      tag_58\n      tag_59\n      jump\t// in\n    tag_58:\n      mload(0x40)\n      tag_60\n      swap2\n      swap1\n      tag_61\n      jump\t// in\n    tag_60:\n      mload(0x40)\n      dup1\n      swap2\n      sub\n      swap1\n      return\n        /* \"Voting.sol\":706:770  uint public agreeAbility = positiveVoteCount - negativeVoteCount */\n    tag_19:\n      sload(0x07)\n      dup2\n      jump\t// out\n        /* \"Voting.sol\":986:1167  function Register() public {... */\n    tag_23:\n        /* \"Voting.sol\":1033:1039  voters */\n      0x02\n        /* \"Voting.sol\":1033:1051  voters[msg.sender] */\n      0x00\n        /* \"Voting.sol\":1040:1050  msg.sender */\n      caller\n        /* \"Voting.sol\":1033:1051  voters[msg.sender] */\n      0xffffffffffffffffffffffffffffffffffffffff\n      and\n      0xffffffffffffffffffffffffffffffffffffffff\n      and\n      dup2\n      mstore\n      0x20\n      add\n      swap1\n      dup2\n      mstore\n      0x20\n      add\n      0x00\n      keccak256\n      0x00\n      swap1\n      sload\n      swap1\n      0x0100\n      exp\n      swap1\n      div\n      0xff\n      and\n        /* \"Voting.sol\":1032:1051  !voters[msg.sender] */\n      iszero\n        /* \"Voting.sol\":1024:1052  require(!voters[msg.sender]) */\n      tag_63\n      jumpi\n      0x00\n      dup1\n      revert\n    tag_63:\n        /* \"Voting.sol\":1072:1083  individuals */\n      0x03\n        /* \"Voting.sol\":1089:1099  msg.sender */\n      caller\n        /* \"Voting.sol\":1072:1100  individuals.push(msg.sender) */\n      swap1\n      dup1\n      0x01\n      dup2\n      sload\n      add\n      dup1\n      dup3\n      sstore\n      dup1\n      swap2\n      pop\n      pop\n      0x01\n      swap1\n      sub\n      swap1\n      0x00\n      mstore\n      keccak256(0x00, 0x20)\n      add\n      0x00\n      swap1\n      swap2\n      swap1\n      swap2\n      swap1\n      swap2\n      0x0100\n      exp\n      dup2\n      sload\n      dup2\n      0xffffffffffffffffffffffffffffffffffffffff\n      mul\n      not\n      and\n      swap1\n      dup4\n      0xffffffffffffffffffffffffffffffffffffffff\n      and\n      mul\n      or\n      swap1\n      sstore\n      pop\n        /* \"Voting.sol\":1132:1136  true */\n      0x01\n        /* \"Voting.sol\":1111:1117  voters */\n      0x02\n        /* \"Voting.sol\":1111:1129  voters[msg.sender] */\n      0x00\n        /* \"Voting.sol\":1118:1128  msg.sender */\n      caller\n        /* \"Voting.sol\":1111:1129  voters[msg.sender] */\n      0xffffffffffffffffffffffffffffffffffffffff\n      and\n      0xffffffffffffffffffffffffffffffffffffffff\n      and\n      dup2\n      mstore\n      0x20\n      add\n      swap1\n      dup2\n      mstore\n      0x20\n      add\n      0x00\n      keccak256\n      0x00\n        /* \"Voting.sol\":1111:1136  voters[msg.sender] = true */\n      0x0100\n      exp\n      dup2\n      sload\n      dup2\n      0xff\n      mul\n      not\n      and\n      swap1\n      dup4\n      iszero\n      iszero\n      mul\n      or\n      swap1\n      sstore\n      pop\n        /* \"Voting.sol\":1147:1157  voterCount */\n      0x04\n      0x00\n        /* \"Voting.sol\":1147:1159  voterCount++ */\n      dup2\n      sload\n      dup1\n      swap3\n      swap2\n      swap1\n      tag_65\n      swap1\n      tag_66\n      jump\t// in\n    tag_65:\n      swap2\n      swap1\n      pop\n      sstore\n      pop\n        /* \"Voting.sol\":986:1167  function Register() public {... */\n      jump\t// out\n        /* \"Voting.sol\":605:627  uint public voterCount */\n    tag_25:\n      sload(0x04)\n      dup2\n      jump\t// out\n        /* \"Voting.sol\":471:493  address public manager */\n    tag_28:\n      0x00\n      dup1\n      sload\n      swap1\n      0x0100\n      exp\n      swap1\n      div\n      0xffffffffffffffffffffffffffffffffffffffff\n      and\n      dup2\n      jump\t// out\n        /* \"Voting.sol\":1487:1868  function Reset() public{... */\n    tag_32:\n        /* \"Voting.sol\":1543:1550  manager */\n      0x00\n      dup1\n      sload\n      swap1\n      0x0100\n      exp\n      swap1\n      div\n      0xffffffffffffffffffffffffffffffffffffffff\n      and\n        /* \"Voting.sol\":1529:1550  msg.sender == manager */\n      0xffffffffffffffffffffffffffffffffffffffff\n      and\n        /* \"Voting.sol\":1529:1539  msg.sender */\n      caller\n        /* \"Voting.sol\":1529:1550  msg.sender == manager */\n      0xffffffffffffffffffffffffffffffffffffffff\n      and\n      eq\n        /* \"Voting.sol\":1521:1551  require(msg.sender == manager) */\n      tag_68\n      jumpi\n      0x00\n      dup1\n      revert\n    tag_68:\n        /* \"Voting.sol\":1571:1588  positiveVoteCount */\n      0x05\n        /* \"Voting.sol\":1564:1588  delete positiveVoteCount */\n      0x00\n      swap1\n      sstore\n        /* \"Voting.sol\":1606:1623  negativeVoteCount */\n      0x06\n        /* \"Voting.sol\":1599:1623  delete negativeVoteCount */\n      0x00\n      swap1\n      sstore\n        /* \"Voting.sol\":1641:1651  voterCount */\n      0x04\n        /* \"Voting.sol\":1634:1651  delete voterCount */\n      0x00\n      swap1\n      sstore\n        /* \"Voting.sol\":1668:1674  uint i */\n      0x00\n        /* \"Voting.sol\":1664:1830  for(uint i = 0; i<individuals.length; i++){... */\n    tag_69:\n        /* \"Voting.sol\":1682:1693  individuals */\n      0x03\n        /* \"Voting.sol\":1682:1700  individuals.length */\n      dup1\n      sload\n      swap1\n      pop\n        /* \"Voting.sol\":1680:1681  i */\n      dup2\n        /* \"Voting.sol\":1680:1700  i<individuals.length */\n      lt\n        /* \"Voting.sol\":1664:1830  for(uint i = 0; i<individuals.length; i++){... */\n      iszero\n      tag_70\n      jumpi\n        /* \"Voting.sol\":1749:1753  true */\n      0x01\n        /* \"Voting.sol\":1724:1730  voters */\n      0x02\n        /* \"Voting.sol\":1724:1746  voters[individuals[i]] */\n      0x00\n        /* \"Voting.sol\":1731:1742  individuals */\n      0x03\n        /* \"Voting.sol\":1743:1744  i */\n      dup5\n        /* \"Voting.sol\":1731:1745  individuals[i] */\n      dup2\n      sload\n      dup2\n      lt\n      tag_72\n      jumpi\n      tag_73\n      tag_74\n      jump\t// in\n    tag_73:\n    tag_72:\n      swap1\n      0x00\n      mstore\n      keccak256(0x00, 0x20)\n      add\n      0x00\n      swap1\n      sload\n      swap1\n      0x0100\n      exp\n      swap1\n      div\n      0xffffffffffffffffffffffffffffffffffffffff\n      and\n        /* \"Voting.sol\":1724:1746  voters[individuals[i]] */\n      0xffffffffffffffffffffffffffffffffffffffff\n      and\n      0xffffffffffffffffffffffffffffffffffffffff\n      and\n      dup2\n      mstore\n      0x20\n      add\n      swap1\n      dup2\n      mstore\n      0x20\n      add\n      0x00\n      keccak256\n      0x00\n        /* \"Voting.sol\":1724:1753  voters[individuals[i]] = true */\n      0x0100\n      exp\n      dup2\n      sload\n      dup2\n      0xff\n      mul\n      not\n      and\n      swap1\n      dup4\n      iszero\n      iszero\n      mul\n      or\n      swap1\n      sstore\n        /* \"Voting.sol\":1721:1819  if(voters[individuals[i]] = true){... */\n      iszero\n      tag_76\n      jumpi\n        /* \"Voting.sol\":1798:1803  false */\n      0x00\n        /* \"Voting.sol\":1773:1779  voters */\n      0x02\n        /* \"Voting.sol\":1773:1795  voters[individuals[i]] */\n      0x00\n        /* \"Voting.sol\":1780:1791  individuals */\n      0x03\n        /* \"Voting.sol\":1792:1793  i */\n      dup5\n        /* \"Voting.sol\":1780:1794  individuals[i] */\n      dup2\n      sload\n      dup2\n      lt\n      tag_77\n      jumpi\n      tag_78\n      tag_74\n      jump\t// in\n    tag_78:\n    tag_77:\n      swap1\n      0x00\n      mstore\n      keccak256(0x00, 0x20)\n      add\n      0x00\n      swap1\n      sload\n      swap1\n      0x0100\n      exp\n      swap1\n      div\n      0xffffffffffffffffffffffffffffffffffffffff\n      and\n        /* \"Voting.sol\":1773:1795  voters[individuals[i]] */\n      0xffffffffffffffffffffffffffffffffffffffff\n      and\n      0xffffffffffffffffffffffffffffffffffffffff\n      and\n      dup2\n      mstore\n      0x20\n      add\n      swap1\n      dup2\n      mstore\n      0x20\n      add\n      0x00\n      keccak256\n      0x00\n        /* \"Voting.sol\":1773:1803  voters[individuals[i]] = false */\n      0x0100\n      exp\n      dup2\n      sload\n      dup2\n      0xff\n      mul\n      not\n      and\n      swap1\n      dup4\n      iszero\n      iszero\n      mul\n      or\n      swap1\n      sstore\n      pop\n        /* \"Voting.sol\":1721:1819  if(voters[individuals[i]] = true){... */\n    tag_76:\n        /* \"Voting.sol\":1702:1705  i++ */\n      dup1\n      dup1\n      tag_80\n      swap1\n      tag_66\n      jump\t// in\n    tag_80:\n      swap2\n      pop\n      pop\n        /* \"Voting.sol\":1664:1830  for(uint i = 0; i<individuals.length; i++){... */\n      jump(tag_69)\n    tag_70:\n      pop\n        /* \"Voting.sol\":1847:1858  individuals */\n      0x03\n      0x00\n        /* \"Voting.sol\":1840:1858  delete individuals */\n      tag_81\n      swap2\n      swap1\n      tag_82\n      jump\t// in\n    tag_81:\n        /* \"Voting.sol\":1487:1868  function Reset() public{... */\n      jump\t// out\n        /* \"Voting.sol\":570:598  address[] public individuals */\n    tag_36:\n      0x03\n      dup2\n      dup2\n      sload\n      dup2\n      lt\n      tag_83\n      jumpi\n      0x00\n      dup1\n      revert\n    tag_83:\n      swap1\n      0x00\n      mstore\n      keccak256(0x00, 0x20)\n      add\n      0x00\n      swap2\n      pop\n      sload\n      swap1\n      0x0100\n      exp\n      swap1\n      div\n      0xffffffffffffffffffffffffffffffffffffffff\n      and\n      dup2\n      jump\t// out\n        /* \"Voting.sol\":500:518  string public moto */\n    tag_39:\n      0x01\n      dup1\n      sload\n      tag_85\n      swap1\n      tag_86\n      jump\t// in\n    tag_85:\n      dup1\n      0x1f\n      add\n      0x20\n      dup1\n      swap2\n      div\n      mul\n      0x20\n      add\n      mload(0x40)\n      swap1\n      dup2\n      add\n      0x40\n      mstore\n      dup1\n      swap3\n      swap2\n      swap1\n      dup2\n      dup2\n      mstore\n      0x20\n      add\n      dup3\n      dup1\n      sload\n      tag_87\n      swap1\n      tag_86\n      jump\t// in\n    tag_87:\n      dup1\n      iszero\n      tag_88\n      jumpi\n      dup1\n      0x1f\n      lt\n      tag_89\n      jumpi\n      0x0100\n      dup1\n      dup4\n      sload\n      div\n      mul\n      dup4\n      mstore\n      swap2\n      0x20\n      add\n      swap2\n      jump(tag_88)\n    tag_89:\n      dup3\n      add\n      swap2\n      swap1\n      0x00\n      mstore\n      keccak256(0x00, 0x20)\n      swap1\n    tag_90:\n      dup2\n      sload\n      dup2\n      mstore\n      swap1\n      0x01\n      add\n      swap1\n      0x20\n      add\n      dup1\n      dup4\n      gt\n      tag_90\n      jumpi\n      dup3\n      swap1\n      sub\n      0x1f\n      and\n      dup3\n      add\n      swap2\n    tag_88:\n      pop\n      pop\n      pop\n      pop\n      pop\n      dup2\n      jump\t// out\n        /* \"Voting.sol\":1175:1283  function VoteUp() public Required{... */\n    tag_43:\n        /* \"Voting.sol\":818:824  voters */\n      0x02\n        /* \"Voting.sol\":818:836  voters[msg.sender] */\n      0x00\n        /* \"Voting.sol\":825:835  msg.sender */\n      caller\n        /* \"Voting.sol\":818:836  voters[msg.sender] */\n      0xffffffffffffffffffffffffffffffffffffffff\n      and\n      0xffffffffffffffffffffffffffffffffffffffff\n      and\n      dup2\n      mstore\n      0x20\n      add\n      swap1\n      dup2\n      mstore\n      0x20\n      add\n      0x00\n      keccak256\n      0x00\n      swap1\n      sload\n      swap1\n      0x0100\n      exp\n      swap1\n      div\n      0xff\n      and\n        /* \"Voting.sol\":809:837  require (voters[msg.sender]) */\n      tag_92\n      jumpi\n      0x00\n      dup1\n      revert\n    tag_92:\n        /* \"Voting.sol\":1219:1236  positiveVoteCount */\n      0x05\n      0x00\n        /* \"Voting.sol\":1219:1238  positiveVoteCount++ */\n      dup2\n      sload\n      dup1\n      swap3\n      swap2\n      swap1\n      tag_94\n      swap1\n      tag_66\n      jump\t// in\n    tag_94:\n      swap2\n      swap1\n      pop\n      sstore\n      pop\n        /* \"Voting.sol\":1270:1275  false */\n      0x00\n        /* \"Voting.sol\":1249:1255  voters */\n      0x02\n        /* \"Voting.sol\":1249:1267  voters[msg.sender] */\n      0x00\n        /* \"Voting.sol\":1256:1266  msg.sender */\n      caller\n        /* \"Voting.sol\":1249:1267  voters[msg.sender] */\n      0xffffffffffffffffffffffffffffffffffffffff\n      and\n      0xffffffffffffffffffffffffffffffffffffffff\n      and\n      dup2\n      mstore\n      0x20\n      add\n      swap1\n      dup2\n      mstore\n      0x20\n      add\n      0x00\n      keccak256\n      0x00\n        /* \"Voting.sol\":1249:1275  voters[msg.sender] = false */\n      0x0100\n      exp\n      dup2\n      sload\n      dup2\n      0xff\n      mul\n      not\n      and\n      swap1\n      dup4\n      iszero\n      iszero\n      mul\n      or\n      swap1\n      sstore\n      pop\n        /* \"Voting.sol\":1175:1283  function VoteUp() public Required{... */\n      jump\t// out\n        /* \"Voting.sol\":525:563  mapping(address => bool) public voters */\n    tag_47:\n      mstore(0x20, 0x02)\n      dup1\n      0x00\n      mstore\n      keccak256(0x00, 0x40)\n      0x00\n      swap2\n      pop\n      sload\n      swap1\n      0x0100\n      exp\n      swap1\n      div\n      0xff\n      and\n      dup2\n      jump\t// out\n        /* \"Voting.sol\":670:699  uint public negativeVoteCount */\n    tag_51:\n      sload(0x06)\n      dup2\n      jump\t// out\n        /* \"Voting.sol\":1330:1440  function VoteDown() public Required{... */\n    tag_54:\n        /* \"Voting.sol\":818:824  voters */\n      0x02\n        /* \"Voting.sol\":818:836  voters[msg.sender] */\n      0x00\n        /* \"Voting.sol\":825:835  msg.sender */\n      caller\n        /* \"Voting.sol\":818:836  voters[msg.sender] */\n      0xffffffffffffffffffffffffffffffffffffffff\n      and\n      0xffffffffffffffffffffffffffffffffffffffff\n      and\n      dup2\n      mstore\n      0x20\n      add\n      swap1\n      dup2\n      mstore\n      0x20\n      add\n      0x00\n      keccak256\n      0x00\n      swap1\n      sload\n      swap1\n      0x0100\n      exp\n      swap1\n      div\n      0xff\n      and\n        /* \"Voting.sol\":809:837  require (voters[msg.sender]) */\n      tag_96\n      jumpi\n      0x00\n      dup1\n      revert\n    tag_96:\n        /* \"Voting.sol\":1376:1393  negativeVoteCount */\n      0x06\n      0x00\n        /* \"Voting.sol\":1376:1395  negativeVoteCount++ */\n      dup2\n      sload\n      dup1\n      swap3\n      swap2\n      swap1\n      tag_98\n      swap1\n      tag_66\n      jump\t// in\n    tag_98:\n      swap2\n      swap1\n      pop\n      sstore\n      pop\n        /* \"Voting.sol\":1427:1432  false */\n      0x00\n        /* \"Voting.sol\":1406:1412  voters */\n      0x02\n        /* \"Voting.sol\":1406:1424  voters[msg.sender] */\n      0x00\n        /* \"Voting.sol\":1413:1423  msg.sender */\n      caller\n        /* \"Voting.sol\":1406:1424  voters[msg.sender] */\n      0xffffffffffffffffffffffffffffffffffffffff\n      and\n      0xffffffffffffffffffffffffffffffffffffffff\n      and\n      dup2\n      mstore\n      0x20\n      add\n      swap1\n      dup2\n      mstore\n      0x20\n      add\n      0x00\n      keccak256\n      0x00\n        /* \"Voting.sol\":1406:1432  voters[msg.sender] = false */\n      0x0100\n      exp\n      dup2\n      sload\n      dup2\n      0xff\n      mul\n      not\n      and\n      swap1\n      dup4\n      iszero\n      iszero\n      mul\n      or\n      swap1\n      sstore\n      pop\n        /* \"Voting.sol\":1330:1440  function VoteDown() public Required{... */\n      jump\t// out\n        /* \"Voting.sol\":634:663  uint public positiveVoteCount */\n    tag_56:\n      sload(0x05)\n      dup2\n      jump\t// out\n        /* \"Voting.sol\":1929:2029  function getInidviduals() public view returns(address[] memory){... */\n    tag_59:\n        /* \"Voting.sol\":1975:1991  address[] memory */\n      0x60\n        /* \"Voting.sol\":2010:2021  individuals */\n      0x03\n        /* \"Voting.sol\":2003:2021  return individuals */\n      dup1\n      sload\n      dup1\n      0x20\n      mul\n      0x20\n      add\n      mload(0x40)\n      swap1\n      dup2\n      add\n      0x40\n      mstore\n      dup1\n      swap3\n      swap2\n      swap1\n      dup2\n      dup2\n      mstore\n      0x20\n      add\n      dup3\n      dup1\n      sload\n      dup1\n      iszero\n      tag_100\n      jumpi\n      0x20\n      mul\n      dup3\n      add\n      swap2\n      swap1\n      0x00\n      mstore\n      keccak256(0x00, 0x20)\n      swap1\n    tag_101:\n      dup2\n      0x00\n      swap1\n      sload\n      swap1\n      0x0100\n      exp\n      swap1\n      div\n      0xffffffffffffffffffffffffffffffffffffffff\n      and\n      0xffffffffffffffffffffffffffffffffffffffff\n      and\n      dup2\n      mstore\n      0x20\n      add\n      swap1\n      0x01\n      add\n      swap1\n      dup1\n      dup4\n      gt\n      tag_101\n      jumpi\n    tag_100:\n      pop\n      pop\n      pop\n      pop\n      pop\n      swap1\n      pop\n        /* \"Voting.sol\":1929:2029  function getInidviduals() public view returns(address[] memory){... */\n      swap1\n      jump\t// out\n    tag_82:\n      pop\n      dup1\n      sload\n      0x00\n      dup3\n      sstore\n      swap1\n      0x00\n      mstore\n      keccak256(0x00, 0x20)\n      swap1\n      dup2\n      add\n      swap1\n      tag_103\n      swap2\n      swap1\n      tag_104\n      jump\t// in\n    tag_103:\n      pop\n      jump\t// out\n    tag_104:\n    tag_105:\n      dup1\n      dup3\n      gt\n      iszero\n      tag_106\n      jumpi\n      0x00\n      dup2\n      0x00\n      swap1\n      sstore\n      pop\n      0x01\n      add\n      jump(tag_105)\n    tag_106:\n      pop\n      swap1\n      jump\t// out\n        /* \"#utility.yul\":7:84   */\n    tag_107:\n        /* \"#utility.yul\":44:51   */\n      0x00\n        /* \"#utility.yul\":73:78   */\n      dup2\n        /* \"#utility.yul\":62:78   */\n      swap1\n      pop\n        /* \"#utility.yul\":7:84   */\n      swap2\n      swap1\n      pop\n      jump\t// out\n        /* \"#utility.yul\":90:208   */\n    tag_108:\n        /* \"#utility.yul\":177:201   */\n      tag_138\n        /* \"#utility.yul\":195:200   */\n      dup2\n        /* \"#utility.yul\":177:201   */\n      tag_107\n      jump\t// in\n    tag_138:\n        /* \"#utility.yul\":172:175   */\n      dup3\n        /* \"#utility.yul\":165:202   */\n      mstore\n        /* \"#utility.yul\":90:208   */\n      pop\n      pop\n      jump\t// out\n        /* \"#utility.yul\":214:436   */\n    tag_21:\n        /* \"#utility.yul\":307:311   */\n      0x00\n        /* \"#utility.yul\":345:347   */\n      0x20\n        /* \"#utility.yul\":334:343   */\n      dup3\n        /* \"#utility.yul\":330:348   */\n      add\n        /* \"#utility.yul\":322:348   */\n      swap1\n      pop\n        /* \"#utility.yul\":358:429   */\n      tag_140\n        /* \"#utility.yul\":426:427   */\n      0x00\n        /* \"#utility.yul\":415:424   */\n      dup4\n        /* \"#utility.yul\":411:428   */\n      add\n        /* \"#utility.yul\":402:408   */\n      dup5\n        /* \"#utility.yul\":358:429   */\n      tag_108\n      jump\t// in\n    tag_140:\n        /* \"#utility.yul\":214:436   */\n      swap3\n      swap2\n      pop\n      pop\n      jump\t// out\n        /* \"#utility.yul\":442:568   */\n    tag_109:\n        /* \"#utility.yul\":479:486   */\n      0x00\n        /* \"#utility.yul\":519:561   */\n      0xffffffffffffffffffffffffffffffffffffffff\n        /* \"#utility.yul\":512:517   */\n      dup3\n        /* \"#utility.yul\":508:562   */\n      and\n        /* \"#utility.yul\":497:562   */\n      swap1\n      pop\n        /* \"#utility.yul\":442:568   */\n      swap2\n      swap1\n      pop\n      jump\t// out\n        /* \"#utility.yul\":574:670   */\n    tag_110:\n        /* \"#utility.yul\":611:618   */\n      0x00\n        /* \"#utility.yul\":640:664   */\n      tag_143\n        /* \"#utility.yul\":658:663   */\n      dup3\n        /* \"#utility.yul\":640:664   */\n      tag_109\n      jump\t// in\n    tag_143:\n        /* \"#utility.yul\":629:664   */\n      swap1\n      pop\n        /* \"#utility.yul\":574:670   */\n      swap2\n      swap1\n      pop\n      jump\t// out\n        /* \"#utility.yul\":676:794   */\n    tag_111:\n        /* \"#utility.yul\":763:787   */\n      tag_145\n        /* \"#utility.yul\":781:786   */\n      dup2\n        /* \"#utility.yul\":763:787   */\n      tag_110\n      jump\t// in\n    tag_145:\n        /* \"#utility.yul\":758:761   */\n      dup3\n        /* \"#utility.yul\":751:788   */\n      mstore\n        /* \"#utility.yul\":676:794   */\n      pop\n      pop\n      jump\t// out\n        /* \"#utility.yul\":800:1022   */\n    tag_30:\n        /* \"#utility.yul\":893:897   */\n      0x00\n        /* \"#utility.yul\":931:933   */\n      0x20\n        /* \"#utility.yul\":920:929   */\n      dup3\n        /* \"#utility.yul\":916:934   */\n      add\n        /* \"#utility.yul\":908:934   */\n      swap1\n      pop\n        /* \"#utility.yul\":944:1015   */\n      tag_147\n        /* \"#utility.yul\":1012:1013   */\n      0x00\n        /* \"#utility.yul\":1001:1010   */\n      dup4\n        /* \"#utility.yul\":997:1014   */\n      add\n        /* \"#utility.yul\":988:994   */\n      dup5\n        /* \"#utility.yul\":944:1015   */\n      tag_111\n      jump\t// in\n    tag_147:\n        /* \"#utility.yul\":800:1022   */\n      swap3\n      swap2\n      pop\n      pop\n      jump\t// out\n        /* \"#utility.yul\":1109:1226   */\n    tag_113:\n        /* \"#utility.yul\":1218:1219   */\n      0x00\n        /* \"#utility.yul\":1215:1216   */\n      dup1\n        /* \"#utility.yul\":1208:1220   */\n      revert\n        /* \"#utility.yul\":1355:1477   */\n    tag_115:\n        /* \"#utility.yul\":1428:1452   */\n      tag_152\n        /* \"#utility.yul\":1446:1451   */\n      dup2\n        /* \"#utility.yul\":1428:1452   */\n      tag_107\n      jump\t// in\n    tag_152:\n        /* \"#utility.yul\":1421:1426   */\n      dup2\n        /* \"#utility.yul\":1418:1453   */\n      eq\n        /* \"#utility.yul\":1408:1471   */\n      tag_153\n      jumpi\n        /* \"#utility.yul\":1467:1468   */\n      0x00\n        /* \"#utility.yul\":1464:1465   */\n      dup1\n        /* \"#utility.yul\":1457:1469   */\n      revert\n        /* \"#utility.yul\":1408:1471   */\n    tag_153:\n        /* \"#utility.yul\":1355:1477   */\n      pop\n      jump\t// out\n        /* \"#utility.yul\":1483:1622   */\n    tag_116:\n        /* \"#utility.yul\":1529:1534   */\n      0x00\n        /* \"#utility.yul\":1567:1573   */\n      dup2\n        /* \"#utility.yul\":1554:1574   */\n      calldataload\n        /* \"#utility.yul\":1545:1574   */\n      swap1\n      pop\n        /* \"#utility.yul\":1583:1616   */\n      tag_155\n        /* \"#utility.yul\":1610:1615   */\n      dup2\n        /* \"#utility.yul\":1583:1616   */\n      tag_115\n      jump\t// in\n    tag_155:\n        /* \"#utility.yul\":1483:1622   */\n      swap3\n      swap2\n      pop\n      pop\n      jump\t// out\n        /* \"#utility.yul\":1628:1957   */\n    tag_35:\n        /* \"#utility.yul\":1687:1693   */\n      0x00\n        /* \"#utility.yul\":1736:1738   */\n      0x20\n        /* \"#utility.yul\":1724:1733   */\n      dup3\n        /* \"#utility.yul\":1715:1722   */\n      dup5\n        /* \"#utility.yul\":1711:1734   */\n      sub\n        /* \"#utility.yul\":1707:1739   */\n      slt\n        /* \"#utility.yul\":1704:1823   */\n      iszero\n      tag_157\n      jumpi\n        /* \"#utility.yul\":1742:1821   */\n      tag_158\n      tag_113\n      jump\t// in\n    tag_158:\n        /* \"#utility.yul\":1704:1823   */\n    tag_157:\n        /* \"#utility.yul\":1862:1863   */\n      0x00\n        /* \"#utility.yul\":1887:1940   */\n      tag_159\n        /* \"#utility.yul\":1932:1939   */\n      dup5\n        /* \"#utility.yul\":1923:1929   */\n      dup3\n        /* \"#utility.yul\":1912:1921   */\n      dup6\n        /* \"#utility.yul\":1908:1930   */\n      add\n        /* \"#utility.yul\":1887:1940   */\n      tag_116\n      jump\t// in\n    tag_159:\n        /* \"#utility.yul\":1877:1940   */\n      swap2\n      pop\n        /* \"#utility.yul\":1833:1950   */\n      pop\n        /* \"#utility.yul\":1628:1957   */\n      swap3\n      swap2\n      pop\n      pop\n      jump\t// out\n        /* \"#utility.yul\":1963:2062   */\n    tag_117:\n        /* \"#utility.yul\":2015:2021   */\n      0x00\n        /* \"#utility.yul\":2049:2054   */\n      dup2\n        /* \"#utility.yul\":2043:2055   */\n      mload\n        /* \"#utility.yul\":2033:2055   */\n      swap1\n      pop\n        /* \"#utility.yul\":1963:2062   */\n      swap2\n      swap1\n      pop\n      jump\t// out\n        /* \"#utility.yul\":2068:2237   */\n    tag_118:\n        /* \"#utility.yul\":2152:2163   */\n      0x00\n        /* \"#utility.yul\":2186:2192   */\n      dup3\n        /* \"#utility.yul\":2181:2184   */\n      dup3\n        /* \"#utility.yul\":2174:2193   */\n      mstore\n        /* \"#utility.yul\":2226:2230   */\n      0x20\n        /* \"#utility.yul\":2221:2224   */\n      dup3\n        /* \"#utility.yul\":2217:2231   */\n      add\n        /* \"#utility.yul\":2202:2231   */\n      swap1\n      pop\n        /* \"#utility.yul\":2068:2237   */\n      swap3\n      swap2\n      pop\n      pop\n      jump\t// out\n        /* \"#utility.yul\":2243:2489   */\n    tag_119:\n        /* \"#utility.yul\":2324:2325   */\n      0x00\n        /* \"#utility.yul\":2334:2447   */\n    tag_163:\n        /* \"#utility.yul\":2348:2354   */\n      dup4\n        /* \"#utility.yul\":2345:2346   */\n      dup2\n        /* \"#utility.yul\":2342:2355   */\n      lt\n        /* \"#utility.yul\":2334:2447   */\n      iszero\n      tag_165\n      jumpi\n        /* \"#utility.yul\":2433:2434   */\n      dup1\n        /* \"#utility.yul\":2428:2431   */\n      dup3\n        /* \"#utility.yul\":2424:2435   */\n      add\n        /* \"#utility.yul\":2418:2436   */\n      mload\n        /* \"#utility.yul\":2414:2415   */\n      dup2\n        /* \"#utility.yul\":2409:2412   */\n      dup5\n        /* \"#utility.yul\":2405:2416   */\n      add\n        /* \"#utility.yul\":2398:2437   */\n      mstore\n        /* \"#utility.yul\":2370:2372   */\n      0x20\n        /* \"#utility.yul\":2367:2368   */\n      dup2\n        /* \"#utility.yul\":2363:2373   */\n      add\n        /* \"#utility.yul\":2358:2373   */\n      swap1\n      pop\n        /* \"#utility.yul\":2334:2447   */\n      jump(tag_163)\n    tag_165:\n        /* \"#utility.yul\":2481:2482   */\n      0x00\n        /* \"#utility.yul\":2472:2478   */\n      dup5\n        /* \"#utility.yul\":2467:2470   */\n      dup5\n        /* \"#utility.yul\":2463:2479   */\n      add\n        /* \"#utility.yul\":2456:2483   */\n      mstore\n        /* \"#utility.yul\":2305:2489   */\n      pop\n        /* \"#utility.yul\":2243:2489   */\n      pop\n      pop\n      pop\n      jump\t// out\n        /* \"#utility.yul\":2495:2597   */\n    tag_120:\n        /* \"#utility.yul\":2536:2542   */\n      0x00\n        /* \"#utility.yul\":2587:2589   */\n      0x1f\n        /* \"#utility.yul\":2583:2590   */\n      not\n        /* \"#utility.yul\":2578:2580   */\n      0x1f\n        /* \"#utility.yul\":2571:2576   */\n      dup4\n        /* \"#utility.yul\":2567:2581   */\n      add\n        /* \"#utility.yul\":2563:2591   */\n      and\n        /* \"#utility.yul\":2553:2591   */\n      swap1\n      pop\n        /* \"#utility.yul\":2495:2597   */\n      swap2\n      swap1\n      pop\n      jump\t// out\n        /* \"#utility.yul\":2603:2980   */\n    tag_121:\n        /* \"#utility.yul\":2691:2694   */\n      0x00\n        /* \"#utility.yul\":2719:2758   */\n      tag_168\n        /* \"#utility.yul\":2752:2757   */\n      dup3\n        /* \"#utility.yul\":2719:2758   */\n      tag_117\n      jump\t// in\n    tag_168:\n        /* \"#utility.yul\":2774:2845   */\n      tag_169\n        /* \"#utility.yul\":2838:2844   */\n      dup2\n        /* \"#utility.yul\":2833:2836   */\n      dup6\n        /* \"#utility.yul\":2774:2845   */\n      tag_118\n      jump\t// in\n    tag_169:\n        /* \"#utility.yul\":2767:2845   */\n      swap4\n      pop\n        /* \"#utility.yul\":2854:2919   */\n      tag_170\n        /* \"#utility.yul\":2912:2918   */\n      dup2\n        /* \"#utility.yul\":2907:2910   */\n      dup6\n        /* \"#utility.yul\":2900:2904   */\n      0x20\n        /* \"#utility.yul\":2893:2898   */\n      dup7\n        /* \"#utility.yul\":2889:2905   */\n      add\n        /* \"#utility.yul\":2854:2919   */\n      tag_119\n      jump\t// in\n    tag_170:\n        /* \"#utility.yul\":2944:2973   */\n      tag_171\n        /* \"#utility.yul\":2966:2972   */\n      dup2\n        /* \"#utility.yul\":2944:2973   */\n      tag_120\n      jump\t// in\n    tag_171:\n        /* \"#utility.yul\":2939:2942   */\n      dup5\n        /* \"#utility.yul\":2935:2974   */\n      add\n        /* \"#utility.yul\":2928:2974   */\n      swap2\n      pop\n        /* \"#utility.yul\":2695:2980   */\n      pop\n        /* \"#utility.yul\":2603:2980   */\n      swap3\n      swap2\n      pop\n      pop\n      jump\t// out\n        /* \"#utility.yul\":2986:3299   */\n    tag_41:\n        /* \"#utility.yul\":3099:3103   */\n      0x00\n        /* \"#utility.yul\":3137:3139   */\n      0x20\n        /* \"#utility.yul\":3126:3135   */\n      dup3\n        /* \"#utility.yul\":3122:3140   */\n      add\n        /* \"#utility.yul\":3114:3140   */\n      swap1\n      pop\n        /* \"#utility.yul\":3186:3195   */\n      dup2\n        /* \"#utility.yul\":3180:3184   */\n      dup2\n        /* \"#utility.yul\":3176:3196   */\n      sub\n        /* \"#utility.yul\":3172:3173   */\n      0x00\n        /* \"#utility.yul\":3161:3170   */\n      dup4\n        /* \"#utility.yul\":3157:3174   */\n      add\n        /* \"#utility.yul\":3150:3197   */\n      mstore\n        /* \"#utility.yul\":3214:3292   */\n      tag_173\n        /* \"#utility.yul\":3287:3291   */\n      dup2\n        /* \"#utility.yul\":3278:3284   */\n      dup5\n        /* \"#utility.yul\":3214:3292   */\n      tag_121\n      jump\t// in\n    tag_173:\n        /* \"#utility.yul\":3206:3292   */\n      swap1\n      pop\n        /* \"#utility.yul\":2986:3299   */\n      swap3\n      swap2\n      pop\n      pop\n      jump\t// out\n        /* \"#utility.yul\":3305:3427   */\n    tag_122:\n        /* \"#utility.yul\":3378:3402   */\n      tag_175\n        /* \"#utility.yul\":3396:3401   */\n      dup2\n        /* \"#utility.yul\":3378:3402   */\n      tag_110\n      jump\t// in\n    tag_175:\n        /* \"#utility.yul\":3371:3376   */\n      dup2\n        /* \"#utility.yul\":3368:3403   */\n      eq\n        /* \"#utility.yul\":3358:3421   */\n      tag_176\n      jumpi\n        /* \"#utility.yul\":3417:3418   */\n      0x00\n        /* \"#utility.yul\":3414:3415   */\n      dup1\n        /* \"#utility.yul\":3407:3419   */\n      revert\n        /* \"#utility.yul\":3358:3421   */\n    tag_176:\n        /* \"#utility.yul\":3305:3427   */\n      pop\n      jump\t// out\n        /* \"#utility.yul\":3433:3572   */\n    tag_123:\n        /* \"#utility.yul\":3479:3484   */\n      0x00\n        /* \"#utility.yul\":3517:3523   */\n      dup2\n        /* \"#utility.yul\":3504:3524   */\n      calldataload\n        /* \"#utility.yul\":3495:3524   */\n      swap1\n      pop\n        /* \"#utility.yul\":3533:3566   */\n      tag_178\n        /* \"#utility.yul\":3560:3565   */\n      dup2\n        /* \"#utility.yul\":3533:3566   */\n      tag_122\n      jump\t// in\n    tag_178:\n        /* \"#utility.yul\":3433:3572   */\n      swap3\n      swap2\n      pop\n      pop\n      jump\t// out\n        /* \"#utility.yul\":3578:3907   */\n    tag_46:\n        /* \"#utility.yul\":3637:3643   */\n      0x00\n        /* \"#utility.yul\":3686:3688   */\n      0x20\n        /* \"#utility.yul\":3674:3683   */\n      dup3\n        /* \"#utility.yul\":3665:3672   */\n      dup5\n        /* \"#utility.yul\":3661:3684   */\n      sub\n        /* \"#utility.yul\":3657:3689   */\n      slt\n        /* \"#utility.yul\":3654:3773   */\n      iszero\n      tag_180\n      jumpi\n        /* \"#utility.yul\":3692:3771   */\n      tag_181\n      tag_113\n      jump\t// in\n    tag_181:\n        /* \"#utility.yul\":3654:3773   */\n    tag_180:\n        /* \"#utility.yul\":3812:3813   */\n      0x00\n        /* \"#utility.yul\":3837:3890   */\n      tag_182\n        /* \"#utility.yul\":3882:3889   */\n      dup5\n        /* \"#utility.yul\":3873:3879   */\n      dup3\n        /* \"#utility.yul\":3862:3871   */\n      dup6\n        /* \"#utility.yul\":3858:3880   */\n      add\n        /* \"#utility.yul\":3837:3890   */\n      tag_123\n      jump\t// in\n    tag_182:\n        /* \"#utility.yul\":3827:3890   */\n      swap2\n      pop\n        /* \"#utility.yul\":3783:3900   */\n      pop\n        /* \"#utility.yul\":3578:3907   */\n      swap3\n      swap2\n      pop\n      pop\n      jump\t// out\n        /* \"#utility.yul\":3913:4003   */\n    tag_124:\n        /* \"#utility.yul\":3947:3954   */\n      0x00\n        /* \"#utility.yul\":3990:3995   */\n      dup2\n        /* \"#utility.yul\":3983:3996   */\n      iszero\n        /* \"#utility.yul\":3976:3997   */\n      iszero\n        /* \"#utility.yul\":3965:3997   */\n      swap1\n      pop\n        /* \"#utility.yul\":3913:4003   */\n      swap2\n      swap1\n      pop\n      jump\t// out\n        /* \"#utility.yul\":4009:4118   */\n    tag_125:\n        /* \"#utility.yul\":4090:4111   */\n      tag_185\n        /* \"#utility.yul\":4105:4110   */\n      dup2\n        /* \"#utility.yul\":4090:4111   */\n      tag_124\n      jump\t// in\n    tag_185:\n        /* \"#utility.yul\":4085:4088   */\n      dup3\n        /* \"#utility.yul\":4078:4112   */\n      mstore\n        /* \"#utility.yul\":4009:4118   */\n      pop\n      pop\n      jump\t// out\n        /* \"#utility.yul\":4124:4334   */\n    tag_49:\n        /* \"#utility.yul\":4211:4215   */\n      0x00\n        /* \"#utility.yul\":4249:4251   */\n      0x20\n        /* \"#utility.yul\":4238:4247   */\n      dup3\n        /* \"#utility.yul\":4234:4252   */\n      add\n        /* \"#utility.yul\":4226:4252   */\n      swap1\n      pop\n        /* \"#utility.yul\":4262:4327   */\n      tag_187\n        /* \"#utility.yul\":4324:4325   */\n      0x00\n        /* \"#utility.yul\":4313:4322   */\n      dup4\n        /* \"#utility.yul\":4309:4326   */\n      add\n        /* \"#utility.yul\":4300:4306   */\n      dup5\n        /* \"#utility.yul\":4262:4327   */\n      tag_125\n      jump\t// in\n    tag_187:\n        /* \"#utility.yul\":4124:4334   */\n      swap3\n      swap2\n      pop\n      pop\n      jump\t// out\n        /* \"#utility.yul\":4340:4454   */\n    tag_126:\n        /* \"#utility.yul\":4407:4413   */\n      0x00\n        /* \"#utility.yul\":4441:4446   */\n      dup2\n        /* \"#utility.yul\":4435:4447   */\n      mload\n        /* \"#utility.yul\":4425:4447   */\n      swap1\n      pop\n        /* \"#utility.yul\":4340:4454   */\n      swap2\n      swap1\n      pop\n      jump\t// out\n        /* \"#utility.yul\":4460:4644   */\n    tag_127:\n        /* \"#utility.yul\":4559:4570   */\n      0x00\n        /* \"#utility.yul\":4593:4599   */\n      dup3\n        /* \"#utility.yul\":4588:4591   */\n      dup3\n        /* \"#utility.yul\":4581:4600   */\n      mstore\n        /* \"#utility.yul\":4633:4637   */\n      0x20\n        /* \"#utility.yul\":4628:4631   */\n      dup3\n        /* \"#utility.yul\":4624:4638   */\n      add\n        /* \"#utility.yul\":4609:4638   */\n      swap1\n      pop\n        /* \"#utility.yul\":4460:4644   */\n      swap3\n      swap2\n      pop\n      pop\n      jump\t// out\n        /* \"#utility.yul\":4650:4782   */\n    tag_128:\n        /* \"#utility.yul\":4717:4721   */\n      0x00\n        /* \"#utility.yul\":4740:4743   */\n      dup2\n        /* \"#utility.yul\":4732:4743   */\n      swap1\n      pop\n        /* \"#utility.yul\":4770:4774   */\n      0x20\n        /* \"#utility.yul\":4765:4768   */\n      dup3\n        /* \"#utility.yul\":4761:4775   */\n      add\n        /* \"#utility.yul\":4753:4775   */\n      swap1\n      pop\n        /* \"#utility.yul\":4650:4782   */\n      swap2\n      swap1\n      pop\n      jump\t// out\n        /* \"#utility.yul\":4788:4896   */\n    tag_129:\n        /* \"#utility.yul\":4865:4889   */\n      tag_192\n        /* \"#utility.yul\":4883:4888   */\n      dup2\n        /* \"#utility.yul\":4865:4889   */\n      tag_110\n      jump\t// in\n    tag_192:\n        /* \"#utility.yul\":4860:4863   */\n      dup3\n        /* \"#utility.yul\":4853:4890   */\n      mstore\n        /* \"#utility.yul\":4788:4896   */\n      pop\n      pop\n      jump\t// out\n        /* \"#utility.yul\":4902:5081   */\n    tag_130:\n        /* \"#utility.yul\":4971:4981   */\n      0x00\n        /* \"#utility.yul\":4992:5038   */\n      tag_194\n        /* \"#utility.yul\":5034:5037   */\n      dup4\n        /* \"#utility.yul\":5026:5032   */\n      dup4\n        /* \"#utility.yul\":4992:5038   */\n      tag_129\n      jump\t// in\n    tag_194:\n        /* \"#utility.yul\":5070:5074   */\n      0x20\n        /* \"#utility.yul\":5065:5068   */\n      dup4\n        /* \"#utility.yul\":5061:5075   */\n      add\n        /* \"#utility.yul\":5047:5075   */\n      swap1\n      pop\n        /* \"#utility.yul\":4902:5081   */\n      swap3\n      swap2\n      pop\n      pop\n      jump\t// out\n        /* \"#utility.yul\":5087:5200   */\n    tag_131:\n        /* \"#utility.yul\":5157:5161   */\n      0x00\n        /* \"#utility.yul\":5189:5193   */\n      0x20\n        /* \"#utility.yul\":5184:5187   */\n      dup3\n        /* \"#utility.yul\":5180:5194   */\n      add\n        /* \"#utility.yul\":5172:5194   */\n      swap1\n      pop\n        /* \"#utility.yul\":5087:5200   */\n      swap2\n      swap1\n      pop\n      jump\t// out\n        /* \"#utility.yul\":5236:5968   */\n    tag_132:\n        /* \"#utility.yul\":5355:5358   */\n      0x00\n        /* \"#utility.yul\":5384:5438   */\n      tag_197\n        /* \"#utility.yul\":5432:5437   */\n      dup3\n        /* \"#utility.yul\":5384:5438   */\n      tag_126\n      jump\t// in\n    tag_197:\n        /* \"#utility.yul\":5454:5540   */\n      tag_198\n        /* \"#utility.yul\":5533:5539   */\n      dup2\n        /* \"#utility.yul\":5528:5531   */\n      dup6\n        /* \"#utility.yul\":5454:5540   */\n      tag_127\n      jump\t// in\n    tag_198:\n        /* \"#utility.yul\":5447:5540   */\n      swap4\n      pop\n        /* \"#utility.yul\":5564:5620   */\n      tag_199\n        /* \"#utility.yul\":5614:5619   */\n      dup4\n        /* \"#utility.yul\":5564:5620   */\n      tag_128\n      jump\t// in\n    tag_199:\n        /* \"#utility.yul\":5643:5650   */\n      dup1\n        /* \"#utility.yul\":5674:5675   */\n      0x00\n        /* \"#utility.yul\":5659:5943   */\n    tag_200:\n        /* \"#utility.yul\":5684:5690   */\n      dup4\n        /* \"#utility.yul\":5681:5682   */\n      dup2\n        /* \"#utility.yul\":5678:5691   */\n      lt\n        /* \"#utility.yul\":5659:5943   */\n      iszero\n      tag_202\n      jumpi\n        /* \"#utility.yul\":5760:5766   */\n      dup2\n        /* \"#utility.yul\":5754:5767   */\n      mload\n        /* \"#utility.yul\":5787:5850   */\n      tag_203\n        /* \"#utility.yul\":5846:5849   */\n      dup9\n        /* \"#utility.yul\":5831:5844   */\n      dup3\n        /* \"#utility.yul\":5787:5850   */\n      tag_130\n      jump\t// in\n    tag_203:\n        /* \"#utility.yul\":5780:5850   */\n      swap8\n      pop\n        /* \"#utility.yul\":5873:5933   */\n      tag_204\n        /* \"#utility.yul\":5926:5932   */\n      dup4\n        /* \"#utility.yul\":5873:5933   */\n      tag_131\n      jump\t// in\n    tag_204:\n        /* \"#utility.yul\":5863:5933   */\n      swap3\n      pop\n        /* \"#utility.yul\":5719:5943   */\n      pop\n        /* \"#utility.yul\":5706:5707   */\n      0x01\n        /* \"#utility.yul\":5703:5704   */\n      dup2\n        /* \"#utility.yul\":5699:5708   */\n      add\n        /* \"#utility.yul\":5694:5708   */\n      swap1\n      pop\n        /* \"#utility.yul\":5659:5943   */\n      jump(tag_200)\n    tag_202:\n        /* \"#utility.yul\":5663:5677   */\n      pop\n        /* \"#utility.yul\":5959:5962   */\n      dup6\n        /* \"#utility.yul\":5952:5962   */\n      swap4\n      pop\n        /* \"#utility.yul\":5360:5968   */\n      pop\n      pop\n      pop\n        /* \"#utility.yul\":5236:5968   */\n      swap3\n      swap2\n      pop\n      pop\n      jump\t// out\n        /* \"#utility.yul\":5974:6347   */\n    tag_61:\n        /* \"#utility.yul\":6117:6121   */\n      0x00\n        /* \"#utility.yul\":6155:6157   */\n      0x20\n        /* \"#utility.yul\":6144:6153   */\n      dup3\n        /* \"#utility.yul\":6140:6158   */\n      add\n        /* \"#utility.yul\":6132:6158   */\n      swap1\n      pop\n        /* \"#utility.yul\":6204:6213   */\n      dup2\n        /* \"#utility.yul\":6198:6202   */\n      dup2\n        /* \"#utility.yul\":6194:6214   */\n      sub\n        /* \"#utility.yul\":6190:6191   */\n      0x00\n        /* \"#utility.yul\":6179:6188   */\n      dup4\n        /* \"#utility.yul\":6175:6192   */\n      add\n        /* \"#utility.yul\":6168:6215   */\n      mstore\n        /* \"#utility.yul\":6232:6340   */\n      tag_206\n        /* \"#utility.yul\":6335:6339   */\n      dup2\n        /* \"#utility.yul\":6326:6332   */\n      dup5\n        /* \"#utility.yul\":6232:6340   */\n      tag_132\n      jump\t// in\n    tag_206:\n        /* \"#utility.yul\":6224:6340   */\n      swap1\n      pop\n        /* \"#utility.yul\":5974:6347   */\n      swap3\n      swap2\n      pop\n      pop\n      jump\t// out\n        /* \"#utility.yul\":6353:6533   */\n    tag_133:\n        /* \"#utility.yul\":6401:6478   */\n      0x4e487b7100000000000000000000000000000000000000000000000000000000\n        /* \"#utility.yul\":6398:6399   */\n      0x00\n        /* \"#utility.yul\":6391:6479   */\n      mstore\n        /* \"#utility.yul\":6498:6502   */\n      0x11\n        /* \"#utility.yul\":6495:6496   */\n      0x04\n        /* \"#utility.yul\":6488:6503   */\n      mstore\n        /* \"#utility.yul\":6522:6526   */\n      0x24\n        /* \"#utility.yul\":6519:6520   */\n      0x00\n        /* \"#utility.yul\":6512:6527   */\n      revert\n        /* \"#utility.yul\":6539:6772   */\n    tag_66:\n        /* \"#utility.yul\":6578:6581   */\n      0x00\n        /* \"#utility.yul\":6601:6625   */\n      tag_209\n        /* \"#utility.yul\":6619:6624   */\n      dup3\n        /* \"#utility.yul\":6601:6625   */\n      tag_107\n      jump\t// in\n    tag_209:\n        /* \"#utility.yul\":6592:6625   */\n      swap2\n      pop\n        /* \"#utility.yul\":6647:6713   */\n      0xffffffffffffffffffffffffffffffffffffffffffffffffffffffffffffffff\n        /* \"#utility.yul\":6640:6645   */\n      dup3\n        /* \"#utility.yul\":6637:6714   */\n      sub\n        /* \"#utility.yul\":6634:6737   */\n      tag_210\n      jumpi\n        /* \"#utility.yul\":6717:6735   */\n      tag_211\n      tag_133\n      jump\t// in\n    tag_211:\n        /* \"#utility.yul\":6634:6737   */\n    tag_210:\n        /* \"#utility.yul\":6764:6765   */\n      0x01\n        /* \"#utility.yul\":6757:6762   */\n      dup3\n        /* \"#utility.yul\":6753:6766   */\n      add\n        /* \"#utility.yul\":6746:6766   */\n      swap1\n      pop\n        /* \"#utility.yul\":6539:6772   */\n      swap2\n      swap1\n      pop\n      jump\t// out\n        /* \"#utility.yul\":6778:6958   */\n    tag_74:\n        /* \"#utility.yul\":6826:6903   */\n      0x4e487b7100000000000000000000000000000000000000000000000000000000\n        /* \"#utility.yul\":6823:6824   */\n      0x00\n        /* \"#utility.yul\":6816:6904   */\n      mstore\n        /* \"#utility.yul\":6923:6927   */\n      0x32\n        /* \"#utility.yul\":6920:6921   */\n      0x04\n        /* \"#utility.yul\":6913:6928   */\n      mstore\n        /* \"#utility.yul\":6947:6951   */\n      0x24\n        /* \"#utility.yul\":6944:6945   */\n      0x00\n        /* \"#utility.yul\":6937:6952   */\n      revert\n        /* \"#utility.yul\":6964:7144   */\n    tag_134:\n        /* \"#utility.yul\":7012:7089   */\n      0x4e487b7100000000000000000000000000000000000000000000000000000000\n        /* \"#utility.yul\":7009:7010   */\n      0x00\n        /* \"#utility.yul\":7002:7090   */\n      mstore\n        /* \"#utility.yul\":7109:7113   */\n      0x22\n        /* \"#utility.yul\":7106:7107   */\n      0x04\n        /* \"#utility.yul\":7099:7114   */\n      mstore\n        /* \"#utility.yul\":7133:7137   */\n      0x24\n        /* \"#utility.yul\":7130:7131   */\n      0x00\n        /* \"#utility.yul\":7123:7138   */\n      revert\n        /* \"#utility.yul\":7150:7470   */\n    tag_86:\n        /* \"#utility.yul\":7194:7200   */\n      0x00\n        /* \"#utility.yul\":7231:7232   */\n      0x02\n        /* \"#utility.yul\":7225:7229   */\n      dup3\n        /* \"#utility.yul\":7221:7233   */\n      div\n        /* \"#utility.yul\":7211:7233   */\n      swap1\n      pop\n        /* \"#utility.yul\":7278:7279   */\n      0x01\n        /* \"#utility.yul\":7272:7276   */\n      dup3\n        /* \"#utility.yul\":7268:7280   */\n      and\n        /* \"#utility.yul\":7299:7317   */\n      dup1\n        /* \"#utility.yul\":7289:7370   */\n      tag_215\n      jumpi\n        /* \"#utility.yul\":7355:7359   */\n      0x7f\n        /* \"#utility.yul\":7347:7353   */\n      dup3\n        /* \"#utility.yul\":7343:7360   */\n      and\n        /* \"#utility.yul\":7333:7360   */\n      swap2\n      pop\n        /* \"#utility.yul\":7289:7370   */\n    tag_215:\n        /* \"#utility.yul\":7417:7419   */\n      0x20\n        /* \"#utility.yul\":7409:7415   */\n      dup3\n        /* \"#utility.yul\":7406:7420   */\n      lt\n        /* \"#utility.yul\":7386:7404   */\n      dup2\n        /* \"#utility.yul\":7383:7421   */\n      sub\n        /* \"#utility.yul\":7380:7464   */\n      tag_216\n      jumpi\n        /* \"#utility.yul\":7436:7454   */\n      tag_217\n      tag_134\n      jump\t// in\n    tag_217:\n        /* \"#utility.yul\":7380:7464   */\n    tag_216:\n        /* \"#utility.yul\":7201:7470   */\n      pop\n        /* \"#utility.yul\":7150:7470   */\n      swap2\n      swap1\n      pop\n      jump\t// out\n\n    auxdata: 0xa26469706673582212205ea8b7035e37a660b4cf5a117f4f1b904f359ad44d43ebd572e10f48a03a3b4864736f6c63430008130033\n}\n","bytecode":{"linkReferences":{},"object":"6080604052600654600554620000169190620000df565b6007553480156200002657600080fd5b50604051620013a9380380620013a983398181016040528101906200004c919062000312565b81600190816200005d9190620005b9565b50806000806101000a81548173ffffffffffffffffffffffffffffffffffffffff021916908373ffffffffffffffffffffffffffffffffffffffff1602179055505050620006a0565b6000819050919050565b7f4e487b7100000000000000000000000000000000000000000000000000000000600052601160045260246000fd5b6000620000ec82620000a6565b9150620000f983620000a6565b9250828203905081811115620001145762000113620000b0565b5b92915050565b6000604051905090565b600080fd5b600080fd5b600080fd5b600080fd5b6000601f19601f8301169050919050565b7f4e487b7100000000000000000000000000000000000000000000000000000000600052604160045260246000fd5b620001838262000138565b810181811067ffffffffffffffff82111715620001a557620001a462000149565b5b80604052505050565b6000620001ba6200011a565b9050620001c8828262000178565b919050565b600067ffffffffffffffff821115620001eb57620001ea62000149565b5b620001f68262000138565b9050602081019050919050565b60005b838110156200022357808201518184015260208101905062000206565b60008484015250505050565b6000620002466200024084620001cd565b620001ae565b90508281526020810184848401111562000265576200026462000133565b5b6200027284828562000203565b509392505050565b600082601f8301126200029257620002916200012e565b5b8151620002a48482602086016200022f565b91505092915050565b600073ffffffffffffffffffffffffffffffffffffffff82169050919050565b6000620002da82620002ad565b9050919050565b620002ec81620002cd565b8114620002f857600080fd5b50565b6000815190506200030c81620002e1565b92915050565b600080604083850312156200032c576200032b62000124565b5b600083015167ffffffffffffffff8111156200034d576200034c62000129565b5b6200035b858286016200027a565b92505060206200036e85828601620002fb565b9150509250929050565b600081519050919050565b7f4e487b7100000000000000000000000000000000000000000000000000000000600052602260045260246000fd5b60006002820490506001821680620003cb57607f821691505b602082108103620003e157620003e062000383565b5b50919050565b60008190508160005260206000209050919050565b60006020601f8301049050919050565b600082821b905092915050565b6000600883026200044b7fffffffffffffffffffffffffffffffffffffffffffffffffffffffffffffffff826200040c565b6200045786836200040c565b95508019841693508086168417925050509392505050565b6000819050919050565b60006200049a620004946200048e84620000a6565b6200046f565b620000a6565b9050919050565b6000819050919050565b620004b68362000479565b620004ce620004c582620004a1565b84845462000419565b825550505050565b600090565b620004e5620004d6565b620004f2818484620004ab565b505050565b5b818110156200051a576200050e600082620004db565b600181019050620004f8565b5050565b601f82111562000569576200053381620003e7565b6200053e84620003fc565b810160208510156200054e578190505b620005666200055d85620003fc565b830182620004f7565b50505b505050565b600082821c905092915050565b60006200058e600019846008026200056e565b1980831691505092915050565b6000620005a983836200057b565b9150826002028217905092915050565b620005c48262000378565b67ffffffffffffffff811115620005e057620005df62000149565b5b620005ec8254620003b2565b620005f98282856200051e565b600060209050601f8311600181146200063157600084156200061c578287015190505b6200062885826200059b565b86555062000698565b601f1984166200064186620003e7565b60005b828110156200066b5784890151825560018201915060208501945060208101905062000644565b868310156200068b578489015162000687601f8916826200057b565b8355505b6001600288020188555050505b505050505050565b610cf980620006b06000396000f3fe608060405234801561001057600080fd5b50600436106100cf5760003560e01c806368e2a8e41161008c578063a7acbb2b11610066578063a7acbb2b146101ca578063b78662e7146101e8578063e3f7db6e146101f2578063fc3cf01814610210576100cf565b806368e2a8e4146101725780637317ea2914610190578063a3ec138d1461019a576100cf565b806305684b80146100d457806319e5bf3a146100f257806342169e48146100fc578063481c6a751461011a5780636423db341461013857806366542aa714610142575b600080fd5b6100dc61022e565b6040516100e991906108c7565b60405180910390f35b6100fa610234565b005b610104610360565b60405161011191906108c7565b60405180910390f35b610122610366565b60405161012f9190610923565b60405180910390f35b61014061038a565b005b61015c6004803603810190610157919061096f565b610559565b6040516101699190610923565b60405180910390f35b61017a610598565b6040516101879190610a2c565b60405180910390f35b610198610626565b005b6101b460048036038101906101af9190610a7a565b6106ee565b6040516101c19190610ac2565b60405180910390f35b6101d261070e565b6040516101df91906108c7565b60405180910390f35b6101f0610714565b005b6101fa6107dc565b60405161020791906108c7565b60405180910390f35b6102186107e2565b6040516102259190610b9b565b60405180910390f35b60075481565b600260003373ffffffffffffffffffffffffffffffffffffffff1673ffffffffffffffffffffffffffffffffffffffff16815260200190815260200160002060009054906101000a900460ff161561028b57600080fd5b6003339080600181540180825580915050600190039060005260206000200160009091909190916101000a81548173ffffffffffffffffffffffffffffffffffffffff021916908373ffffffffffffffffffffffffffffffffffffffff1602179055506001600260003373ffffffffffffffffffffffffffffffffffffffff1673ffffffffffffffffffffffffffffffffffffffff16815260200190815260200160002060006101000a81548160ff0219169083151502179055506004600081548092919061035990610bec565b9190505550565b60045481565b60008054906101000a900473ffffffffffffffffffffffffffffffffffffffff1681565b60008054906101000a900473ffffffffffffffffffffffffffffffffffffffff1673ffffffffffffffffffffffffffffffffffffffff163373ffffffffffffffffffffffffffffffffffffffff16146103e257600080fd5b60056000905560066000905560046000905560005b600380549050811015610548576001600260006003848154811061041e5761041d610c34565b5b9060005260206000200160009054906101000a900473ffffffffffffffffffffffffffffffffffffffff1673ffffffffffffffffffffffffffffffffffffffff1673ffffffffffffffffffffffffffffffffffffffff16815260200190815260200160002060006101000a81548160ff02191690831515021790551561053557600060026000600384815481106104b8576104b7610c34565b5b9060005260206000200160009054906101000a900473ffffffffffffffffffffffffffffffffffffffff1673ffffffffffffffffffffffffffffffffffffffff1673ffffffffffffffffffffffffffffffffffffffff16815260200190815260200160002060006101000a81548160ff0219169083151502179055505b808061054090610bec565b9150506103f7565b50600360006105579190610870565b565b6003818154811061056957600080fd5b906000526020600020016000915054906101000a900473ffffffffffffffffffffffffffffffffffffffff1681565b600180546105a590610c92565b80601f01602080910402602001604051908101604052809291908181526020018280546105d190610c92565b801561061e5780601f106105f35761010080835404028352916020019161061e565b820191906000526020600020905b81548152906001019060200180831161060157829003601f168201915b505050505081565b600260003373ffffffffffffffffffffffffffffffffffffffff1673ffffffffffffffffffffffffffffffffffffffff16815260200190815260200160002060009054906101000a900460ff1661067c57600080fd5b6005600081548092919061068f90610bec565b91905055506000600260003373ffffffffffffffffffffffffffffffffffffffff1673ffffffffffffffffffffffffffffffffffffffff16815260200190815260200160002060006101000a81548160ff021916908315150217905550565b60026020528060005260406000206000915054906101000a900460ff1681565b60065481565b600260003373ffffffffffffffffffffffffffffffffffffffff1673ffffffffffffffffffffffffffffffffffffffff16815260200190815260200160002060009054906101000a900460ff1661076a57600080fd5b6006600081548092919061077d90610bec565b91905055506000600260003373ffffffffffffffffffffffffffffffffffffffff1673ffffffffffffffffffffffffffffffffffffffff16815260200190815260200160002060006101000a81548160ff021916908315150217905550565b60055481565b6060600380548060200260200160405190810160405280929190818152602001828054801561086657602002820191906000526020600020905b8160009054906101000a900473ffffffffffffffffffffffffffffffffffffffff1673ffffffffffffffffffffffffffffffffffffffff168152602001906001019080831161081c575b5050505050905090565b508054600082559060005260206000209081019061088e9190610891565b50565b5b808211156108aa576000816000905550600101610892565b5090565b6000819050919050565b6108c1816108ae565b82525050565b60006020820190506108dc60008301846108b8565b92915050565b600073ffffffffffffffffffffffffffffffffffffffff82169050919050565b600061090d826108e2565b9050919050565b61091d81610902565b82525050565b60006020820190506109386000830184610914565b92915050565b600080fd5b61094c816108ae565b811461095757600080fd5b50565b60008135905061096981610943565b92915050565b6000602082840312156109855761098461093e565b5b60006109938482850161095a565b91505092915050565b600081519050919050565b600082825260208201905092915050565b60005b838110156109d65780820151818401526020810190506109bb565b60008484015250505050565b6000601f19601f8301169050919050565b60006109fe8261099c565b610a0881856109a7565b9350610a188185602086016109b8565b610a21816109e2565b840191505092915050565b60006020820190508181036000830152610a4681846109f3565b905092915050565b610a5781610902565b8114610a6257600080fd5b50565b600081359050610a7481610a4e565b92915050565b600060208284031215610a9057610a8f61093e565b5b6000610a9e84828501610a65565b91505092915050565b60008115159050919050565b610abc81610aa7565b82525050565b6000602082019050610ad76000830184610ab3565b92915050565b600081519050919050565b600082825260208201905092915050565b6000819050602082019050919050565b610b1281610902565b82525050565b6000610b248383610b09565b60208301905092915050565b6000602082019050919050565b6000610b4882610add565b610b528185610ae8565b9350610b5d83610af9565b8060005b83811015610b8e578151610b758882610b18565b9750610b8083610b30565b925050600181019050610b61565b5085935050505092915050565b60006020820190508181036000830152610bb58184610b3d565b905092915050565b7f4e487b7100000000000000000000000000000000000000000000000000000000600052601160045260246000fd5b6000610bf7826108ae565b91507fffffffffffffffffffffffffffffffffffffffffffffffffffffffffffffffff8203610c2957610c28610bbd565b5b600182019050919050565b7f4e487b7100000000000000000000000000000000000000000000000000000000600052603260045260246000fd5b7f4e487b7100000000000000000000000000000000000000000000000000000000600052602260045260246000fd5b60006002820490506001821680610caa57607f821691505b602082108103610cbd57610cbc610c63565b5b5091905056fea26469706673582212205ea8b7035e37a660b4cf5a117f4f1b904f359ad44d43ebd572e10f48a03a3b4864736f6c63430008130033","opcodes":"PUSH1 0x80 PUSH1 0x40 MSTORE PUSH1 0x6 SLOAD PUSH1 0x5 SLOAD PUSH3 0x16 SWAP2 SWAP1 PUSH3 0xDF JUMP JUMPDEST PUSH1 0x7 SSTORE CALLVALUE DUP1 ISZERO PUSH3 0x26 JUMPI PUSH1 0x0 DUP1 REVERT JUMPDEST POP PUSH1 0x40 MLOAD PUSH3 0x13A9 CODESIZE SUB DUP1 PUSH3 0x13A9 DUP4 CODECOPY DUP2 DUP2 ADD PUSH1 0x40 MSTORE DUP2 ADD SWAP1 PUSH3 0x4C SWAP2 SWAP1 PUSH3 0x312 JUMP JUMPDEST DUP2 PUSH1 0x1 SWAP1 DUP2 PUSH3 0x5D SWAP2 SWAP1 PUSH3 0x5B9 JUMP JUMPDEST POP DUP1 PUSH1 0x0 DUP1 PUSH2 0x100 EXP DUP2 SLOAD DUP2 PUSH20 0xFFFFFFFFFFFFFFFFFFFFFFFFFFFFFFFFFFFFFFFF MUL NOT AND SWAP1 DUP4 PUSH20 0xFFFFFFFFFFFFFFFFFFFFFFFFFFFFFFFFFFFFFFFF AND MUL OR SWAP1 SSTORE POP POP POP PUSH3 0x6A0 JUMP JUMPDEST PUSH1 0x0 DUP2 SWAP1 POP SWAP2 SWAP1 POP JUMP JUMPDEST PUSH32 0x4E487B7100000000000000000000000000000000000000000000000000000000 PUSH1 0x0 MSTORE PUSH1 0x11 PUSH1 0x4 MSTORE PUSH1 0x24 PUSH1 0x0 REVERT JUMPDEST PUSH1 0x0 PUSH3 0xEC DUP3 PUSH3 0xA6 JUMP JUMPDEST SWAP2 POP PUSH3 0xF9 DUP4 PUSH3 0xA6 JUMP JUMPDEST SWAP3 POP DUP3 DUP3 SUB SWAP1 POP DUP2 DUP2 GT ISZERO PUSH3 0x114 JUMPI PUSH3 0x113 PUSH3 0xB0 JUMP JUMPDEST JUMPDEST SWAP3 SWAP2 POP POP JUMP JUMPDEST PUSH1 0x0 PUSH1 0x40 MLOAD SWAP1 POP SWAP1 JUMP JUMPDEST PUSH1 0x0 DUP1 REVERT JUMPDEST PUSH1 0x0 DUP1 REVERT JUMPDEST PUSH1 0x0 DUP1 REVERT JUMPDEST PUSH1 0x0 DUP1 REVERT JUMPDEST PUSH1 0x0 PUSH1 0x1F NOT PUSH1 0x1F DUP4 ADD AND SWAP1 POP SWAP2 SWAP1 POP JUMP JUMPDEST PUSH32 0x4E487B7100000000000000000000000000000000000000000000000000000000 PUSH1 0x0 MSTORE PUSH1 0x41 PUSH1 0x4 MSTORE PUSH1 0x24 PUSH1 0x0 REVERT JUMPDEST PUSH3 0x183 DUP3 PUSH3 0x138 JUMP JUMPDEST DUP2 ADD DUP2 DUP2 LT PUSH8 0xFFFFFFFFFFFFFFFF DUP3 GT OR ISZERO PUSH3 0x1A5 JUMPI PUSH3 0x1A4 PUSH3 0x149 JUMP JUMPDEST JUMPDEST DUP1 PUSH1 0x40 MSTORE POP POP POP JUMP JUMPDEST PUSH1 0x0 PUSH3 0x1BA PUSH3 0x11A JUMP JUMPDEST SWAP1 POP PUSH3 0x1C8 DUP3 DUP3 PUSH3 0x178 JUMP JUMPDEST SWAP2 SWAP1 POP JUMP JUMPDEST PUSH1 0x0 PUSH8 0xFFFFFFFFFFFFFFFF DUP3 GT ISZERO PUSH3 0x1EB JUMPI PUSH3 0x1EA PUSH3 0x149 JUMP JUMPDEST JUMPDEST PUSH3 0x1F6 DUP3 PUSH3 0x138 JUMP JUMPDEST SWAP1 POP PUSH1 0x20 DUP2 ADD SWAP1 POP SWAP2 SWAP1 POP JUMP JUMPDEST PUSH1 0x0 JUMPDEST DUP4 DUP2 LT ISZERO PUSH3 0x223 JUMPI DUP1 DUP3 ADD MLOAD DUP2 DUP5 ADD MSTORE PUSH1 0x20 DUP2 ADD SWAP1 POP PUSH3 0x206 JUMP JUMPDEST PUSH1 0x0 DUP5 DUP5 ADD MSTORE POP POP POP POP JUMP JUMPDEST PUSH1 0x0 PUSH3 0x246 PUSH3 0x240 DUP5 PUSH3 0x1CD JUMP JUMPDEST PUSH3 0x1AE JUMP JUMPDEST SWAP1 POP DUP3 DUP2 MSTORE PUSH1 0x20 DUP2 ADD DUP5 DUP5 DUP5 ADD GT ISZERO PUSH3 0x265 JUMPI PUSH3 0x264 PUSH3 0x133 JUMP JUMPDEST JUMPDEST PUSH3 0x272 DUP5 DUP3 DUP6 PUSH3 0x203 JUMP JUMPDEST POP SWAP4 SWAP3 POP POP POP JUMP JUMPDEST PUSH1 0x0 DUP3 PUSH1 0x1F DUP4 ADD SLT PUSH3 0x292 JUMPI PUSH3 0x291 PUSH3 0x12E JUMP JUMPDEST JUMPDEST DUP2 MLOAD PUSH3 0x2A4 DUP5 DUP3 PUSH1 0x20 DUP7 ADD PUSH3 0x22F JUMP JUMPDEST SWAP2 POP POP SWAP3 SWAP2 POP POP JUMP JUMPDEST PUSH1 0x0 PUSH20 0xFFFFFFFFFFFFFFFFFFFFFFFFFFFFFFFFFFFFFFFF DUP3 AND SWAP1 POP SWAP2 SWAP1 POP JUMP JUMPDEST PUSH1 0x0 PUSH3 0x2DA DUP3 PUSH3 0x2AD JUMP JUMPDEST SWAP1 POP SWAP2 SWAP1 POP JUMP JUMPDEST PUSH3 0x2EC DUP2 PUSH3 0x2CD JUMP JUMPDEST DUP2 EQ PUSH3 0x2F8 JUMPI PUSH1 0x0 DUP1 REVERT JUMPDEST POP JUMP JUMPDEST PUSH1 0x0 DUP2 MLOAD SWAP1 POP PUSH3 0x30C DUP2 PUSH3 0x2E1 JUMP JUMPDEST SWAP3 SWAP2 POP POP JUMP JUMPDEST PUSH1 0x0 DUP1 PUSH1 0x40 DUP4 DUP6 SUB SLT ISZERO PUSH3 0x32C JUMPI PUSH3 0x32B PUSH3 0x124 JUMP JUMPDEST JUMPDEST PUSH1 0x0 DUP4 ADD MLOAD PUSH8 0xFFFFFFFFFFFFFFFF DUP2 GT ISZERO PUSH3 0x34D JUMPI PUSH3 0x34C PUSH3 0x129 JUMP JUMPDEST JUMPDEST PUSH3 0x35B DUP6 DUP3 DUP7 ADD PUSH3 0x27A JUMP JUMPDEST SWAP3 POP POP PUSH1 0x20 PUSH3 0x36E DUP6 DUP3 DUP7 ADD PUSH3 0x2FB JUMP JUMPDEST SWAP2 POP POP SWAP3 POP SWAP3 SWAP1 POP JUMP JUMPDEST PUSH1 0x0 DUP2 MLOAD SWAP1 POP SWAP2 SWAP1 POP JUMP JUMPDEST PUSH32 0x4E487B7100000000000000000000000000000000000000000000000000000000 PUSH1 0x0 MSTORE PUSH1 0x22 PUSH1 0x4 MSTORE PUSH1 0x24 PUSH1 0x0 REVERT JUMPDEST PUSH1 0x0 PUSH1 0x2 DUP3 DIV SWAP1 POP PUSH1 0x1 DUP3 AND DUP1 PUSH3 0x3CB JUMPI PUSH1 0x7F DUP3 AND SWAP2 POP JUMPDEST PUSH1 0x20 DUP3 LT DUP2 SUB PUSH3 0x3E1 JUMPI PUSH3 0x3E0 PUSH3 0x383 JUMP JUMPDEST JUMPDEST POP SWAP2 SWAP1 POP JUMP JUMPDEST PUSH1 0x0 DUP2 SWAP1 POP DUP2 PUSH1 0x0 MSTORE PUSH1 0x20 PUSH1 0x0 KECCAK256 SWAP1 POP SWAP2 SWAP1 POP JUMP JUMPDEST PUSH1 0x0 PUSH1 0x20 PUSH1 0x1F DUP4 ADD DIV SWAP1 POP SWAP2 SWAP1 POP JUMP JUMPDEST PUSH1 0x0 DUP3 DUP3 SHL SWAP1 POP SWAP3 SWAP2 POP POP JUMP JUMPDEST PUSH1 0x0 PUSH1 0x8 DUP4 MUL PUSH3 0x44B PUSH32 0xFFFFFFFFFFFFFFFFFFFFFFFFFFFFFFFFFFFFFFFFFFFFFFFFFFFFFFFFFFFFFFFF DUP3 PUSH3 0x40C JUMP JUMPDEST PUSH3 0x457 DUP7 DUP4 PUSH3 0x40C JUMP JUMPDEST SWAP6 POP DUP1 NOT DUP5 AND SWAP4 POP DUP1 DUP7 AND DUP5 OR SWAP3 POP POP POP SWAP4 SWAP3 POP POP POP JUMP JUMPDEST PUSH1 0x0 DUP2 SWAP1 POP SWAP2 SWAP1 POP JUMP JUMPDEST PUSH1 0x0 PUSH3 0x49A PUSH3 0x494 PUSH3 0x48E DUP5 PUSH3 0xA6 JUMP JUMPDEST PUSH3 0x46F JUMP JUMPDEST PUSH3 0xA6 JUMP JUMPDEST SWAP1 POP SWAP2 SWAP1 POP JUMP JUMPDEST PUSH1 0x0 DUP2 SWAP1 POP SWAP2 SWAP1 POP JUMP JUMPDEST PUSH3 0x4B6 DUP4 PUSH3 0x479 JUMP JUMPDEST PUSH3 0x4CE PUSH3 0x4C5 DUP3 PUSH3 0x4A1 JUMP JUMPDEST DUP5 DUP5 SLOAD PUSH3 0x419 JUMP JUMPDEST DUP3 SSTORE POP POP POP POP JUMP JUMPDEST PUSH1 0x0 SWAP1 JUMP JUMPDEST PUSH3 0x4E5 PUSH3 0x4D6 JUMP JUMPDEST PUSH3 0x4F2 DUP2 DUP5 DUP5 PUSH3 0x4AB JUMP JUMPDEST POP POP POP JUMP JUMPDEST JUMPDEST DUP2 DUP2 LT ISZERO PUSH3 0x51A JUMPI PUSH3 0x50E PUSH1 0x0 DUP3 PUSH3 0x4DB JUMP JUMPDEST PUSH1 0x1 DUP2 ADD SWAP1 POP PUSH3 0x4F8 JUMP JUMPDEST POP POP JUMP JUMPDEST PUSH1 0x1F DUP3 GT ISZERO PUSH3 0x569 JUMPI PUSH3 0x533 DUP2 PUSH3 0x3E7 JUMP JUMPDEST PUSH3 0x53E DUP5 PUSH3 0x3FC JUMP JUMPDEST DUP2 ADD PUSH1 0x20 DUP6 LT ISZERO PUSH3 0x54E JUMPI DUP2 SWAP1 POP JUMPDEST PUSH3 0x566 PUSH3 0x55D DUP6 PUSH3 0x3FC JUMP JUMPDEST DUP4 ADD DUP3 PUSH3 0x4F7 JUMP JUMPDEST POP POP JUMPDEST POP POP POP JUMP JUMPDEST PUSH1 0x0 DUP3 DUP3 SHR SWAP1 POP SWAP3 SWAP2 POP POP JUMP JUMPDEST PUSH1 0x0 PUSH3 0x58E PUSH1 0x0 NOT DUP5 PUSH1 0x8 MUL PUSH3 0x56E JUMP JUMPDEST NOT DUP1 DUP4 AND SWAP2 POP POP SWAP3 SWAP2 POP POP JUMP JUMPDEST PUSH1 0x0 PUSH3 0x5A9 DUP4 DUP4 PUSH3 0x57B JUMP JUMPDEST SWAP2 POP DUP3 PUSH1 0x2 MUL DUP3 OR SWAP1 POP SWAP3 SWAP2 POP POP JUMP JUMPDEST PUSH3 0x5C4 DUP3 PUSH3 0x378 JUMP JUMPDEST PUSH8 0xFFFFFFFFFFFFFFFF DUP2 GT ISZERO PUSH3 0x5E0 JUMPI PUSH3 0x5DF PUSH3 0x149 JUMP JUMPDEST JUMPDEST PUSH3 0x5EC DUP3 SLOAD PUSH3 0x3B2 JUMP JUMPDEST PUSH3 0x5F9 DUP3 DUP3 DUP6 PUSH3 0x51E JUMP JUMPDEST PUSH1 0x0 PUSH1 0x20 SWAP1 POP PUSH1 0x1F DUP4 GT PUSH1 0x1 DUP2 EQ PUSH3 0x631 JUMPI PUSH1 0x0 DUP5 ISZERO PUSH3 0x61C JUMPI DUP3 DUP8 ADD MLOAD SWAP1 POP JUMPDEST PUSH3 0x628 DUP6 DUP3 PUSH3 0x59B JUMP JUMPDEST DUP7 SSTORE POP PUSH3 0x698 JUMP JUMPDEST PUSH1 0x1F NOT DUP5 AND PUSH3 0x641 DUP7 PUSH3 0x3E7 JUMP JUMPDEST PUSH1 0x0 JUMPDEST DUP3 DUP2 LT ISZERO PUSH3 0x66B JUMPI DUP5 DUP10 ADD MLOAD DUP3 SSTORE PUSH1 0x1 DUP3 ADD SWAP2 POP PUSH1 0x20 DUP6 ADD SWAP5 POP PUSH1 0x20 DUP2 ADD SWAP1 POP PUSH3 0x644 JUMP JUMPDEST DUP7 DUP4 LT ISZERO PUSH3 0x68B JUMPI DUP5 DUP10 ADD MLOAD PUSH3 0x687 PUSH1 0x1F DUP10 AND DUP3 PUSH3 0x57B JUMP JUMPDEST DUP4 SSTORE POP JUMPDEST PUSH1 0x1 PUSH1 0x2 DUP9 MUL ADD DUP9 SSTORE POP POP POP JUMPDEST POP POP POP POP POP POP JUMP JUMPDEST PUSH2 0xCF9 DUP1 PUSH3 0x6B0 PUSH1 0x0 CODECOPY PUSH1 0x0 RETURN INVALID PUSH1 0x80 PUSH1 0x40 MSTORE CALLVALUE DUP1 ISZERO PUSH2 0x10 JUMPI PUSH1 0x0 DUP1 REVERT JUMPDEST POP PUSH1 0x4 CALLDATASIZE LT PUSH2 0xCF JUMPI PUSH1 0x0 CALLDATALOAD PUSH1 0xE0 SHR DUP1 PUSH4 0x68E2A8E4 GT PUSH2 0x8C JUMPI DUP1 PUSH4 0xA7ACBB2B GT PUSH2 0x66 JUMPI DUP1 PUSH4 0xA7ACBB2B EQ PUSH2 0x1CA JUMPI DUP1 PUSH4 0xB78662E7 EQ PUSH2 0x1E8 JUMPI DUP1 PUSH4 0xE3F7DB6E EQ PUSH2 0x1F2 JUMPI DUP1 PUSH4 0xFC3CF018 EQ PUSH2 0x210 JUMPI PUSH2 0xCF JUMP JUMPDEST DUP1 PUSH4 0x68E2A8E4 EQ PUSH2 0x172 JUMPI DUP1 PUSH4 0x7317EA29 EQ PUSH2 0x190 JUMPI DUP1 PUSH4 0xA3EC138D EQ PUSH2 0x19A JUMPI PUSH2 0xCF JUMP JUMPDEST DUP1 PUSH4 0x5684B80 EQ PUSH2 0xD4 JUMPI DUP1 PUSH4 0x19E5BF3A EQ PUSH2 0xF2 JUMPI DUP1 PUSH4 0x42169E48 EQ PUSH2 0xFC JUMPI DUP1 PUSH4 0x481C6A75 EQ PUSH2 0x11A JUMPI DUP1 PUSH4 0x6423DB34 EQ PUSH2 0x138 JUMPI DUP1 PUSH4 0x66542AA7 EQ PUSH2 0x142 JUMPI JUMPDEST PUSH1 0x0 DUP1 REVERT JUMPDEST PUSH2 0xDC PUSH2 0x22E JUMP JUMPDEST PUSH1 0x40 MLOAD PUSH2 0xE9 SWAP2 SWAP1 PUSH2 0x8C7 JUMP JUMPDEST PUSH1 0x40 MLOAD DUP1 SWAP2 SUB SWAP1 RETURN JUMPDEST PUSH2 0xFA PUSH2 0x234 JUMP JUMPDEST STOP JUMPDEST PUSH2 0x104 PUSH2 0x360 JUMP JUMPDEST PUSH1 0x40 MLOAD PUSH2 0x111 SWAP2 SWAP1 PUSH2 0x8C7 JUMP JUMPDEST PUSH1 0x40 MLOAD DUP1 SWAP2 SUB SWAP1 RETURN JUMPDEST PUSH2 0x122 PUSH2 0x366 JUMP JUMPDEST PUSH1 0x40 MLOAD PUSH2 0x12F SWAP2 SWAP1 PUSH2 0x923 JUMP JUMPDEST PUSH1 0x40 MLOAD DUP1 SWAP2 SUB SWAP1 RETURN JUMPDEST PUSH2 0x140 PUSH2 0x38A JUMP JUMPDEST STOP JUMPDEST PUSH2 0x15C PUSH1 0x4 DUP1 CALLDATASIZE SUB DUP2 ADD SWAP1 PUSH2 0x157 SWAP2 SWAP1 PUSH2 0x96F JUMP JUMPDEST PUSH2 0x559 JUMP JUMPDEST PUSH1 0x40 MLOAD PUSH2 0x169 SWAP2 SWAP1 PUSH2 0x923 JUMP JUMPDEST PUSH1 0x40 MLOAD DUP1 SWAP2 SUB SWAP1 RETURN JUMPDEST PUSH2 0x17A PUSH2 0x598 JUMP JUMPDEST PUSH1 0x40 MLOAD PUSH2 0x187 SWAP2 SWAP1 PUSH2 0xA2C JUMP JUMPDEST PUSH1 0x40 MLOAD DUP1 SWAP2 SUB SWAP1 RETURN JUMPDEST PUSH2 0x198 PUSH2 0x626 JUMP JUMPDEST STOP JUMPDEST PUSH2 0x1B4 PUSH1 0x4 DUP1 CALLDATASIZE SUB DUP2 ADD SWAP1 PUSH2 0x1AF SWAP2 SWAP1 PUSH2 0xA7A JUMP JUMPDEST PUSH2 0x6EE JUMP JUMPDEST PUSH1 0x40 MLOAD PUSH2 0x1C1 SWAP2 SWAP1 PUSH2 0xAC2 JUMP JUMPDEST PUSH1 0x40 MLOAD DUP1 SWAP2 SUB SWAP1 RETURN JUMPDEST PUSH2 0x1D2 PUSH2 0x70E JUMP JUMPDEST PUSH1 0x40 MLOAD PUSH2 0x1DF SWAP2 SWAP1 PUSH2 0x8C7 JUMP JUMPDEST PUSH1 0x40 MLOAD DUP1 SWAP2 SUB SWAP1 RETURN JUMPDEST PUSH2 0x1F0 PUSH2 0x714 JUMP JUMPDEST STOP JUMPDEST PUSH2 0x1FA PUSH2 0x7DC JUMP JUMPDEST PUSH1 0x40 MLOAD PUSH2 0x207 SWAP2 SWAP1 PUSH2 0x8C7 JUMP JUMPDEST PUSH1 0x40 MLOAD DUP1 SWAP2 SUB SWAP1 RETURN JUMPDEST PUSH2 0x218 PUSH2 0x7E2 JUMP JUMPDEST PUSH1 0x40 MLOAD PUSH2 0x225 SWAP2 SWAP1 PUSH2 0xB9B JUMP JUMPDEST PUSH1 0x40 MLOAD DUP1 SWAP2 SUB SWAP1 RETURN JUMPDEST PUSH1 0x7 SLOAD DUP2 JUMP JUMPDEST PUSH1 0x2 PUSH1 0x0 CALLER PUSH20 0xFFFFFFFFFFFFFFFFFFFFFFFFFFFFFFFFFFFFFFFF AND PUSH20 0xFFFFFFFFFFFFFFFFFFFFFFFFFFFFFFFFFFFFFFFF AND DUP2 MSTORE PUSH1 0x20 ADD SWAP1 DUP2 MSTORE PUSH1 0x20 ADD PUSH1 0x0 KECCAK256 PUSH1 0x0 SWAP1 SLOAD SWAP1 PUSH2 0x100 EXP SWAP1 DIV PUSH1 0xFF AND ISZERO PUSH2 0x28B JUMPI PUSH1 0x0 DUP1 REVERT JUMPDEST PUSH1 0x3 CALLER SWAP1 DUP1 PUSH1 0x1 DUP2 SLOAD ADD DUP1 DUP3 SSTORE DUP1 SWAP2 POP POP PUSH1 0x1 SWAP1 SUB SWAP1 PUSH1 0x0 MSTORE PUSH1 0x20 PUSH1 0x0 KECCAK256 ADD PUSH1 0x0 SWAP1 SWAP2 SWAP1 SWAP2 SWAP1 SWAP2 PUSH2 0x100 EXP DUP2 SLOAD DUP2 PUSH20 0xFFFFFFFFFFFFFFFFFFFFFFFFFFFFFFFFFFFFFFFF MUL NOT AND SWAP1 DUP4 PUSH20 0xFFFFFFFFFFFFFFFFFFFFFFFFFFFFFFFFFFFFFFFF AND MUL OR SWAP1 SSTORE POP PUSH1 0x1 PUSH1 0x2 PUSH1 0x0 CALLER PUSH20 0xFFFFFFFFFFFFFFFFFFFFFFFFFFFFFFFFFFFFFFFF AND PUSH20 0xFFFFFFFFFFFFFFFFFFFFFFFFFFFFFFFFFFFFFFFF AND DUP2 MSTORE PUSH1 0x20 ADD SWAP1 DUP2 MSTORE PUSH1 0x20 ADD PUSH1 0x0 KECCAK256 PUSH1 0x0 PUSH2 0x100 EXP DUP2 SLOAD DUP2 PUSH1 0xFF MUL NOT AND SWAP1 DUP4 ISZERO ISZERO MUL OR SWAP1 SSTORE POP PUSH1 0x4 PUSH1 0x0 DUP2 SLOAD DUP1 SWAP3 SWAP2 SWAP1 PUSH2 0x359 SWAP1 PUSH2 0xBEC JUMP JUMPDEST SWAP2 SWAP1 POP SSTORE POP JUMP JUMPDEST PUSH1 0x4 SLOAD DUP2 JUMP JUMPDEST PUSH1 0x0 DUP1 SLOAD SWAP1 PUSH2 0x100 EXP SWAP1 DIV PUSH20 0xFFFFFFFFFFFFFFFFFFFFFFFFFFFFFFFFFFFFFFFF AND DUP2 JUMP JUMPDEST PUSH1 0x0 DUP1 SLOAD SWAP1 PUSH2 0x100 EXP SWAP1 DIV PUSH20 0xFFFFFFFFFFFFFFFFFFFFFFFFFFFFFFFFFFFFFFFF AND PUSH20 0xFFFFFFFFFFFFFFFFFFFFFFFFFFFFFFFFFFFFFFFF AND CALLER PUSH20 0xFFFFFFFFFFFFFFFFFFFFFFFFFFFFFFFFFFFFFFFF AND EQ PUSH2 0x3E2 JUMPI PUSH1 0x0 DUP1 REVERT JUMPDEST PUSH1 0x5 PUSH1 0x0 SWAP1 SSTORE PUSH1 0x6 PUSH1 0x0 SWAP1 SSTORE PUSH1 0x4 PUSH1 0x0 SWAP1 SSTORE PUSH1 0x0 JUMPDEST PUSH1 0x3 DUP1 SLOAD SWAP1 POP DUP2 LT ISZERO PUSH2 0x548 JUMPI PUSH1 0x1 PUSH1 0x2 PUSH1 0x0 PUSH1 0x3 DUP5 DUP2 SLOAD DUP2 LT PUSH2 0x41E JUMPI PUSH2 0x41D PUSH2 0xC34 JUMP JUMPDEST JUMPDEST SWAP1 PUSH1 0x0 MSTORE PUSH1 0x20 PUSH1 0x0 KECCAK256 ADD PUSH1 0x0 SWAP1 SLOAD SWAP1 PUSH2 0x100 EXP SWAP1 DIV PUSH20 0xFFFFFFFFFFFFFFFFFFFFFFFFFFFFFFFFFFFFFFFF AND PUSH20 0xFFFFFFFFFFFFFFFFFFFFFFFFFFFFFFFFFFFFFFFF AND PUSH20 0xFFFFFFFFFFFFFFFFFFFFFFFFFFFFFFFFFFFFFFFF AND DUP2 MSTORE PUSH1 0x20 ADD SWAP1 DUP2 MSTORE PUSH1 0x20 ADD PUSH1 0x0 KECCAK256 PUSH1 0x0 PUSH2 0x100 EXP DUP2 SLOAD DUP2 PUSH1 0xFF MUL NOT AND SWAP1 DUP4 ISZERO ISZERO MUL OR SWAP1 SSTORE ISZERO PUSH2 0x535 JUMPI PUSH1 0x0 PUSH1 0x2 PUSH1 0x0 PUSH1 0x3 DUP5 DUP2 SLOAD DUP2 LT PUSH2 0x4B8 JUMPI PUSH2 0x4B7 PUSH2 0xC34 JUMP JUMPDEST JUMPDEST SWAP1 PUSH1 0x0 MSTORE PUSH1 0x20 PUSH1 0x0 KECCAK256 ADD PUSH1 0x0 SWAP1 SLOAD SWAP1 PUSH2 0x100 EXP SWAP1 DIV PUSH20 0xFFFFFFFFFFFFFFFFFFFFFFFFFFFFFFFFFFFFFFFF AND PUSH20 0xFFFFFFFFFFFFFFFFFFFFFFFFFFFFFFFFFFFFFFFF AND PUSH20 0xFFFFFFFFFFFFFFFFFFFFFFFFFFFFFFFFFFFFFFFF AND DUP2 MSTORE PUSH1 0x20 ADD SWAP1 DUP2 MSTORE PUSH1 0x20 ADD PUSH1 0x0 KECCAK256 PUSH1 0x0 PUSH2 0x100 EXP DUP2 SLOAD DUP2 PUSH1 0xFF MUL NOT AND SWAP1 DUP4 ISZERO ISZERO MUL OR SWAP1 SSTORE POP JUMPDEST DUP1 DUP1 PUSH2 0x540 SWAP1 PUSH2 0xBEC JUMP JUMPDEST SWAP2 POP POP PUSH2 0x3F7 JUMP JUMPDEST POP PUSH1 0x3 PUSH1 0x0 PUSH2 0x557 SWAP2 SWAP1 PUSH2 0x870 JUMP JUMPDEST JUMP JUMPDEST PUSH1 0x3 DUP2 DUP2 SLOAD DUP2 LT PUSH2 0x569 JUMPI PUSH1 0x0 DUP1 REVERT JUMPDEST SWAP1 PUSH1 0x0 MSTORE PUSH1 0x20 PUSH1 0x0 KECCAK256 ADD PUSH1 0x0 SWAP2 POP SLOAD SWAP1 PUSH2 0x100 EXP SWAP1 DIV PUSH20 0xFFFFFFFFFFFFFFFFFFFFFFFFFFFFFFFFFFFFFFFF AND DUP2 JUMP JUMPDEST PUSH1 0x1 DUP1 SLOAD PUSH2 0x5A5 SWAP1 PUSH2 0xC92 JUMP JUMPDEST DUP1 PUSH1 0x1F ADD PUSH1 0x20 DUP1 SWAP2 DIV MUL PUSH1 0x20 ADD PUSH1 0x40 MLOAD SWAP1 DUP2 ADD PUSH1 0x40 MSTORE DUP1 SWAP3 SWAP2 SWAP1 DUP2 DUP2 MSTORE PUSH1 0x20 ADD DUP3 DUP1 SLOAD PUSH2 0x5D1 SWAP1 PUSH2 0xC92 JUMP JUMPDEST DUP1 ISZERO PUSH2 0x61E JUMPI DUP1 PUSH1 0x1F LT PUSH2 0x5F3 JUMPI PUSH2 0x100 DUP1 DUP4 SLOAD DIV MUL DUP4 MSTORE SWAP2 PUSH1 0x20 ADD SWAP2 PUSH2 0x61E JUMP JUMPDEST DUP3 ADD SWAP2 SWAP1 PUSH1 0x0 MSTORE PUSH1 0x20 PUSH1 0x0 KECCAK256 SWAP1 JUMPDEST DUP2 SLOAD DUP2 MSTORE SWAP1 PUSH1 0x1 ADD SWAP1 PUSH1 0x20 ADD DUP1 DUP4 GT PUSH2 0x601 JUMPI DUP3 SWAP1 SUB PUSH1 0x1F AND DUP3 ADD SWAP2 JUMPDEST POP POP POP POP POP DUP2 JUMP JUMPDEST PUSH1 0x2 PUSH1 0x0 CALLER PUSH20 0xFFFFFFFFFFFFFFFFFFFFFFFFFFFFFFFFFFFFFFFF AND PUSH20 0xFFFFFFFFFFFFFFFFFFFFFFFFFFFFFFFFFFFFFFFF AND DUP2 MSTORE PUSH1 0x20 ADD SWAP1 DUP2 MSTORE PUSH1 0x20 ADD PUSH1 0x0 KECCAK256 PUSH1 0x0 SWAP1 SLOAD SWAP1 PUSH2 0x100 EXP SWAP1 DIV PUSH1 0xFF AND PUSH2 0x67C JUMPI PUSH1 0x0 DUP1 REVERT JUMPDEST PUSH1 0x5 PUSH1 0x0 DUP2 SLOAD DUP1 SWAP3 SWAP2 SWAP1 PUSH2 0x68F SWAP1 PUSH2 0xBEC JUMP JUMPDEST SWAP2 SWAP1 POP SSTORE POP PUSH1 0x0 PUSH1 0x2 PUSH1 0x0 CALLER PUSH20 0xFFFFFFFFFFFFFFFFFFFFFFFFFFFFFFFFFFFFFFFF AND PUSH20 0xFFFFFFFFFFFFFFFFFFFFFFFFFFFFFFFFFFFFFFFF AND DUP2 MSTORE PUSH1 0x20 ADD SWAP1 DUP2 MSTORE PUSH1 0x20 ADD PUSH1 0x0 KECCAK256 PUSH1 0x0 PUSH2 0x100 EXP DUP2 SLOAD DUP2 PUSH1 0xFF MUL NOT AND SWAP1 DUP4 ISZERO ISZERO MUL OR SWAP1 SSTORE POP JUMP JUMPDEST PUSH1 0x2 PUSH1 0x20 MSTORE DUP1 PUSH1 0x0 MSTORE PUSH1 0x40 PUSH1 0x0 KECCAK256 PUSH1 0x0 SWAP2 POP SLOAD SWAP1 PUSH2 0x100 EXP SWAP1 DIV PUSH1 0xFF AND DUP2 JUMP JUMPDEST PUSH1 0x6 SLOAD DUP2 JUMP JUMPDEST PUSH1 0x2 PUSH1 0x0 CALLER PUSH20 0xFFFFFFFFFFFFFFFFFFFFFFFFFFFFFFFFFFFFFFFF AND PUSH20 0xFFFFFFFFFFFFFFFFFFFFFFFFFFFFFFFFFFFFFFFF AND DUP2 MSTORE PUSH1 0x20 ADD SWAP1 DUP2 MSTORE PUSH1 0x20 ADD PUSH1 0x0 KECCAK256 PUSH1 0x0 SWAP1 SLOAD SWAP1 PUSH2 0x100 EXP SWAP1 DIV PUSH1 0xFF AND PUSH2 0x76A JUMPI PUSH1 0x0 DUP1 REVERT JUMPDEST PUSH1 0x6 PUSH1 0x0 DUP2 SLOAD DUP1 SWAP3 SWAP2 SWAP1 PUSH2 0x77D SWAP1 PUSH2 0xBEC JUMP JUMPDEST SWAP2 SWAP1 POP SSTORE POP PUSH1 0x0 PUSH1 0x2 PUSH1 0x0 CALLER PUSH20 0xFFFFFFFFFFFFFFFFFFFFFFFFFFFFFFFFFFFFFFFF AND PUSH20 0xFFFFFFFFFFFFFFFFFFFFFFFFFFFFFFFFFFFFFFFF AND DUP2 MSTORE PUSH1 0x20 ADD SWAP1 DUP2 MSTORE PUSH1 0x20 ADD PUSH1 0x0 KECCAK256 PUSH1 0x0 PUSH2 0x100 EXP DUP2 SLOAD DUP2 PUSH1 0xFF MUL NOT AND SWAP1 DUP4 ISZERO ISZERO MUL OR SWAP1 SSTORE POP JUMP JUMPDEST PUSH1 0x5 SLOAD DUP2 JUMP JUMPDEST PUSH1 0x60 PUSH1 0x3 DUP1 SLOAD DUP1 PUSH1 0x20 MUL PUSH1 0x20 ADD PUSH1 0x40 MLOAD SWAP1 DUP2 ADD PUSH1 0x40 MSTORE DUP1 SWAP3 SWAP2 SWAP1 DUP2 DUP2 MSTORE PUSH1 0x20 ADD DUP3 DUP1 SLOAD DUP1 ISZERO PUSH2 0x866 JUMPI PUSH1 0x20 MUL DUP3 ADD SWAP2 SWAP1 PUSH1 0x0 MSTORE PUSH1 0x20 PUSH1 0x0 KECCAK256 SWAP1 JUMPDEST DUP2 PUSH1 0x0 SWAP1 SLOAD SWAP1 PUSH2 0x100 EXP SWAP1 DIV PUSH20 0xFFFFFFFFFFFFFFFFFFFFFFFFFFFFFFFFFFFFFFFF AND PUSH20 0xFFFFFFFFFFFFFFFFFFFFFFFFFFFFFFFFFFFFFFFF AND DUP2 MSTORE PUSH1 0x20 ADD SWAP1 PUSH1 0x1 ADD SWAP1 DUP1 DUP4 GT PUSH2 0x81C JUMPI JUMPDEST POP POP POP POP POP SWAP1 POP SWAP1 JUMP JUMPDEST POP DUP1 SLOAD PUSH1 0x0 DUP3 SSTORE SWAP1 PUSH1 0x0 MSTORE PUSH1 0x20 PUSH1 0x0 KECCAK256 SWAP1 DUP2 ADD SWAP1 PUSH2 0x88E SWAP2 SWAP1 PUSH2 0x891 JUMP JUMPDEST POP JUMP JUMPDEST JUMPDEST DUP1 DUP3 GT ISZERO PUSH2 0x8AA JUMPI PUSH1 0x0 DUP2 PUSH1 0x0 SWAP1 SSTORE POP PUSH1 0x1 ADD PUSH2 0x892 JUMP JUMPDEST POP SWAP1 JUMP JUMPDEST PUSH1 0x0 DUP2 SWAP1 POP SWAP2 SWAP1 POP JUMP JUMPDEST PUSH2 0x8C1 DUP2 PUSH2 0x8AE JUMP JUMPDEST DUP3 MSTORE POP POP JUMP JUMPDEST PUSH1 0x0 PUSH1 0x20 DUP3 ADD SWAP1 POP PUSH2 0x8DC PUSH1 0x0 DUP4 ADD DUP5 PUSH2 0x8B8 JUMP JUMPDEST SWAP3 SWAP2 POP POP JUMP JUMPDEST PUSH1 0x0 PUSH20 0xFFFFFFFFFFFFFFFFFFFFFFFFFFFFFFFFFFFFFFFF DUP3 AND SWAP1 POP SWAP2 SWAP1 POP JUMP JUMPDEST PUSH1 0x0 PUSH2 0x90D DUP3 PUSH2 0x8E2 JUMP JUMPDEST SWAP1 POP SWAP2 SWAP1 POP JUMP JUMPDEST PUSH2 0x91D DUP2 PUSH2 0x902 JUMP JUMPDEST DUP3 MSTORE POP POP JUMP JUMPDEST PUSH1 0x0 PUSH1 0x20 DUP3 ADD SWAP1 POP PUSH2 0x938 PUSH1 0x0 DUP4 ADD DUP5 PUSH2 0x914 JUMP JUMPDEST SWAP3 SWAP2 POP POP JUMP JUMPDEST PUSH1 0x0 DUP1 REVERT JUMPDEST PUSH2 0x94C DUP2 PUSH2 0x8AE JUMP JUMPDEST DUP2 EQ PUSH2 0x957 JUMPI PUSH1 0x0 DUP1 REVERT JUMPDEST POP JUMP JUMPDEST PUSH1 0x0 DUP2 CALLDATALOAD SWAP1 POP PUSH2 0x969 DUP2 PUSH2 0x943 JUMP JUMPDEST SWAP3 SWAP2 POP POP JUMP JUMPDEST PUSH1 0x0 PUSH1 0x20 DUP3 DUP5 SUB SLT ISZERO PUSH2 0x985 JUMPI PUSH2 0x984 PUSH2 0x93E JUMP JUMPDEST JUMPDEST PUSH1 0x0 PUSH2 0x993 DUP5 DUP3 DUP6 ADD PUSH2 0x95A JUMP JUMPDEST SWAP2 POP POP SWAP3 SWAP2 POP POP JUMP JUMPDEST PUSH1 0x0 DUP2 MLOAD SWAP1 POP SWAP2 SWAP1 POP JUMP JUMPDEST PUSH1 0x0 DUP3 DUP3 MSTORE PUSH1 0x20 DUP3 ADD SWAP1 POP SWAP3 SWAP2 POP POP JUMP JUMPDEST PUSH1 0x0 JUMPDEST DUP4 DUP2 LT ISZERO PUSH2 0x9D6 JUMPI DUP1 DUP3 ADD MLOAD DUP2 DUP5 ADD MSTORE PUSH1 0x20 DUP2 ADD SWAP1 POP PUSH2 0x9BB JUMP JUMPDEST PUSH1 0x0 DUP5 DUP5 ADD MSTORE POP POP POP POP JUMP JUMPDEST PUSH1 0x0 PUSH1 0x1F NOT PUSH1 0x1F DUP4 ADD AND SWAP1 POP SWAP2 SWAP1 POP JUMP JUMPDEST PUSH1 0x0 PUSH2 0x9FE DUP3 PUSH2 0x99C JUMP JUMPDEST PUSH2 0xA08 DUP2 DUP6 PUSH2 0x9A7 JUMP JUMPDEST SWAP4 POP PUSH2 0xA18 DUP2 DUP6 PUSH1 0x20 DUP7 ADD PUSH2 0x9B8 JUMP JUMPDEST PUSH2 0xA21 DUP2 PUSH2 0x9E2 JUMP JUMPDEST DUP5 ADD SWAP2 POP POP SWAP3 SWAP2 POP POP JUMP JUMPDEST PUSH1 0x0 PUSH1 0x20 DUP3 ADD SWAP1 POP DUP2 DUP2 SUB PUSH1 0x0 DUP4 ADD MSTORE PUSH2 0xA46 DUP2 DUP5 PUSH2 0x9F3 JUMP JUMPDEST SWAP1 POP SWAP3 SWAP2 POP POP JUMP JUMPDEST PUSH2 0xA57 DUP2 PUSH2 0x902 JUMP JUMPDEST DUP2 EQ PUSH2 0xA62 JUMPI PUSH1 0x0 DUP1 REVERT JUMPDEST POP JUMP JUMPDEST PUSH1 0x0 DUP2 CALLDATALOAD SWAP1 POP PUSH2 0xA74 DUP2 PUSH2 0xA4E JUMP JUMPDEST SWAP3 SWAP2 POP POP JUMP JUMPDEST PUSH1 0x0 PUSH1 0x20 DUP3 DUP5 SUB SLT ISZERO PUSH2 0xA90 JUMPI PUSH2 0xA8F PUSH2 0x93E JUMP JUMPDEST JUMPDEST PUSH1 0x0 PUSH2 0xA9E DUP5 DUP3 DUP6 ADD PUSH2 0xA65 JUMP JUMPDEST SWAP2 POP POP SWAP3 SWAP2 POP POP JUMP JUMPDEST PUSH1 0x0 DUP2 ISZERO ISZERO SWAP1 POP SWAP2 SWAP1 POP JUMP JUMPDEST PUSH2 0xABC DUP2 PUSH2 0xAA7 JUMP JUMPDEST DUP3 MSTORE POP POP JUMP JUMPDEST PUSH1 0x0 PUSH1 0x20 DUP3 ADD SWAP1 POP PUSH2 0xAD7 PUSH1 0x0 DUP4 ADD DUP5 PUSH2 0xAB3 JUMP JUMPDEST SWAP3 SWAP2 POP POP JUMP JUMPDEST PUSH1 0x0 DUP2 MLOAD SWAP1 POP SWAP2 SWAP1 POP JUMP JUMPDEST PUSH1 0x0 DUP3 DUP3 MSTORE PUSH1 0x20 DUP3 ADD SWAP1 POP SWAP3 SWAP2 POP POP JUMP JUMPDEST PUSH1 0x0 DUP2 SWAP1 POP PUSH1 0x20 DUP3 ADD SWAP1 POP SWAP2 SWAP1 POP JUMP JUMPDEST PUSH2 0xB12 DUP2 PUSH2 0x902 JUMP JUMPDEST DUP3 MSTORE POP POP JUMP JUMPDEST PUSH1 0x0 PUSH2 0xB24 DUP4 DUP4 PUSH2 0xB09 JUMP JUMPDEST PUSH1 0x20 DUP4 ADD SWAP1 POP SWAP3 SWAP2 POP POP JUMP JUMPDEST PUSH1 0x0 PUSH1 0x20 DUP3 ADD SWAP1 POP SWAP2 SWAP1 POP JUMP JUMPDEST PUSH1 0x0 PUSH2 0xB48 DUP3 PUSH2 0xADD JUMP JUMPDEST PUSH2 0xB52 DUP2 DUP6 PUSH2 0xAE8 JUMP JUMPDEST SWAP4 POP PUSH2 0xB5D DUP4 PUSH2 0xAF9 JUMP JUMPDEST DUP1 PUSH1 0x0 JUMPDEST DUP4 DUP2 LT ISZERO PUSH2 0xB8E JUMPI DUP2 MLOAD PUSH2 0xB75 DUP9 DUP3 PUSH2 0xB18 JUMP JUMPDEST SWAP8 POP PUSH2 0xB80 DUP4 PUSH2 0xB30 JUMP JUMPDEST SWAP3 POP POP PUSH1 0x1 DUP2 ADD SWAP1 POP PUSH2 0xB61 JUMP JUMPDEST POP DUP6 SWAP4 POP POP POP POP SWAP3 SWAP2 POP POP JUMP JUMPDEST PUSH1 0x0 PUSH1 0x20 DUP3 ADD SWAP1 POP DUP2 DUP2 SUB PUSH1 0x0 DUP4 ADD MSTORE PUSH2 0xBB5 DUP2 DUP5 PUSH2 0xB3D JUMP JUMPDEST SWAP1 POP SWAP3 SWAP2 POP POP JUMP JUMPDEST PUSH32 0x4E487B7100000000000000000000000000000000000000000000000000000000 PUSH1 0x0 MSTORE PUSH1 0x11 PUSH1 0x4 MSTORE PUSH1 0x24 PUSH1 0x0 REVERT JUMPDEST PUSH1 0x0 PUSH2 0xBF7 DUP3 PUSH2 0x8AE JUMP JUMPDEST SWAP2 POP PUSH32 0xFFFFFFFFFFFFFFFFFFFFFFFFFFFFFFFFFFFFFFFFFFFFFFFFFFFFFFFFFFFFFFFF DUP3 SUB PUSH2 0xC29 JUMPI PUSH2 0xC28 PUSH2 0xBBD JUMP JUMPDEST JUMPDEST PUSH1 0x1 DUP3 ADD SWAP1 POP SWAP2 SWAP1 POP JUMP JUMPDEST PUSH32 0x4E487B7100000000000000000000000000000000000000000000000000000000 PUSH1 0x0 MSTORE PUSH1 0x32 PUSH1 0x4 MSTORE PUSH1 0x24 PUSH1 0x0 REVERT JUMPDEST PUSH32 0x4E487B7100000000000000000000000000000000000000000000000000000000 PUSH1 0x0 MSTORE PUSH1 0x22 PUSH1 0x4 MSTORE PUSH1 0x24 PUSH1 0x0 REVERT JUMPDEST PUSH1 0x0 PUSH1 0x2 DUP3 DIV SWAP1 POP PUSH1 0x1 DUP3 AND DUP1 PUSH2 0xCAA JUMPI PUSH1 0x7F DUP3 AND SWAP2 POP JUMPDEST PUSH1 0x20 DUP3 LT DUP2 SUB PUSH2 0xCBD JUMPI PUSH2 0xCBC PUSH2 0xC63 JUMP JUMPDEST JUMPDEST POP SWAP2 SWAP1 POP JUMP INVALID LOG2 PUSH5 0x6970667358 0x22 SLT KECCAK256 0x5E 0xA8 0xB7 SUB 0x5E CALLDATACOPY 0xA6 PUSH1 0xB4 0xCF GAS GT PUSH32 0x4F1B904F359AD44D43EBD572E10F48A03A3B4864736F6C634300081300330000 "},"gasEstimates":{"creation":{"codeDepositCost":"664200","executionCost":"infinite","totalCost":"infinite"},"external":{"Register()":"99703","Reset()":"infinite","VoteDown()":"51143","VoteUp()":"51144","agreeAbility()":"2430","getInidviduals()":"infinite","individuals(uint256)":"5067","manager()":"2578","moto()":"infinite","negativeVoteCount()":"2451","positiveVoteCount()":"2495","voterCount()":"2474","voters(address)":"2912"}},"methodIdentifiers":{"Register()":"19e5bf3a","Reset()":"6423db34","VoteDown()":"b78662e7","VoteUp()":"7317ea29","agreeAbility()":"05684b80","getInidviduals()":"fc3cf018","individuals(uint256)":"66542aa7","manager()":"481c6a75","moto()":"68e2a8e4","negativeVoteCount()":"a7acbb2b","positiveVoteCount()":"e3f7db6e","voterCount()":"42169e48","voters(address)":"a3ec138d"}},"storageLayout":{"storage":[{"astId":44,"contract":"Voting.sol:VotingCampaign","label":"manager","offset":0,"slot":"0","type":"t_address"},{"astId":46,"contract":"Voting.sol:VotingCampaign","label":"moto","offset":0,"slot":"1","type":"t_string_storage"},{"astId":50,"contract":"Voting.sol:VotingCampaign","label":"voters","offset":0,"slot":"2","type":"t_mapping(t_address,t_bool)"},{"astId":53,"contract":"Voting.sol:VotingCampaign","label":"individuals","offset":0,"slot":"3","type":"t_array(t_address)dyn_storage"},{"astId":55,"contract":"Voting.sol:VotingCampaign","label":"voterCount","offset":0,"slot":"4","type":"t_uint256"},{"astId":57,"contract":"Voting.sol:VotingCampaign","label":"positiveVoteCount","offset":0,"slot":"5","type":"t_uint256"},{"astId":59,"contract":"Voting.sol:VotingCampaign","label":"negativeVoteCount","offset":0,"slot":"6","type":"t_uint256"},{"astId":64,"contract":"Voting.sol:VotingCampaign","label":"agreeAbility","offset":0,"slot":"7","type":"t_uint256"}],"types":{"t_address":{"encoding":"inplace","label":"address","numberOfBytes":"20"},"t_array(t_address)dyn_storage":{"base":"t_address","encoding":"dynamic_array","label":"address[]","numberOfBytes":"32"},"t_bool":{"encoding":"inplace","label":"bool","numberOfBytes":"1"},"t_mapping(t_address,t_bool)":{"encoding":"mapping","key":"t_address","label":"mapping(address => bool)","numberOfBytes":"32","value":"t_bool"},"t_string_storage":{"encoding":"bytes","label":"string","numberOfBytes":"32"},"t_uint256":{"encoding":"inplace","label":"uint256","numberOfBytes":"32"}}},"userdoc":{"kind":"user","methods":{},"version":1}}